:100000000000042071030000CD030000CF030000B6
:10001000D1030000D3030000D5030000000000005E
:10002000000000000000000000000000D7030000F6
:10003000D903000000000000DB030000DD03000026
:10004000911D0000DF030000C12A0000F5640000DC
:100050000D650000DF030000B9290000DF03000088
:10006000DF030000DF030000DF030000DF03000008
:10007000DF030000392E0000DF030000DF03000073
:10008000B15F0000A1340000DF030000DF030000C7
:10009000DF030000DF030000DF030000DF030000D8
:1000A000DF030000DF030000DF030000DF030000C8
:1000B000DF030000DF03000000000000000000007C
:1000C000DF030000DF030000DF030000DF030000A8
:1000D000B5340000DF030000DF030000DF03000091
:1000E000415F0000DF030000DF03000000000000AC
:1000F00000000000DF0300000000000009410000D4
:1001000000000000000000000000000000000000EF
:1001100000000000000000000000000000000000DF
:1001200000000000000000000000000000000000CF
:1001300000000000000000000000000000000000BF
:1001400000000000000000000000000000000000AF
:10015000000000000000000000000000000000009F
:10016000000000000000000000000000000000008F
:10017000000000000000000000000000000000007F
:10018000000000000000000000000000000000006F
:10019000000000000000000000000000000000005F
:1001A000000000000000000000000000000000004F
:1001B000000000000000000000000000000000003F
:1001C000000000000000000000000000000000002F
:1001D000000000000000000000000000000000001F
:1001E000000000000000000000000000000000000F
:1001F00000000000000000000000000000000000FF
:100200003A493B480A1A02D0072291438D463949A0
:1002100039480A1A06D00722914381F3098802223D
:1002200082F3148835483649364A00F041F836489A
:100230003649374A00F03CF836483749374A00F02B
:1002400037F837483749384A00F032F837483849E4
:10025000384A00F02DF838483849394A00F028F873
:1002600038483949394A00F023F8394839490022D9
:1002700000F036F838483949002200F031F83848A3
:100280003849091A22F06DF9374A9047254826491E
:10029000884205D00268043003B4904703BCF7E7F6
:1002A00000208646EC4600200021304A9047FEE7B9
:1002B000884214D0521A12D003460B43134303242E
:1002C000234206D1036804300B600431043AF9D1AB
:1002D0007047037801300B700131013AF9D1704752
:1002E000884202D002700130FAE770470000042013
:1002F00000E003200000042000000420D0A9020038
:100300001400002048010020E4030000E403000082
:100310007C270200D0A90200140000201400002055
:10032000A4270200A4270200A4270200A427020099
:10033000A4270200A4270200A4270200A427020089
:10034000CDA9020004AB02004801002048010020B2
:1003500048010020743400207434002074340020DC
:1003600074340020745400209903000021650000BB
:1003700000F036B80F484FF00701884385460E4815
:1003800080470E48016841F470010160BFF34F8F50
:10039000BFF36F8FFFF734BF09480A490A4A884202
:1003A00007D0521A05D0037801300B700131013AA1
:1003B000F9D17047000004200D71000088ED00E0C5
:1003C000902702000000002014000020FEE7FEE756
:1003D000FEE7FEE7FEE7FEE7FEE7FEE7FEE7FEE7F5
:0403E000FFF7C8BF9C
:1003E40086B003900291019201238DF817309DF895
:1003F4001730204A039B13601E4A029B53601D4A18
:10040400019B9360039B44F20102934212D0039B2D
:1004140044F20202934220D1019B164AD360154B49
:10042400DB681B68134A9361124BDB685B68114AF3
:10043400D36112E0019B0F4A13610E4B1B699B6849
:100444000C4A53610B4B1B691B680A4A9361094BA5
:100454001B695B68074AD36100BF72B600BF00BF67
:100464009DF81730DBB2002BFAD162B600BF00BF93
:1004740006B070474801002000B587B00390029190
:10048400019272B600BF039B44F20102934207D06B
:10049400039B44F20202934205D1019B059303E0BE
:1004A400019B049300E000BF074B1B6803F00103AA
:1004B400002B00D000BE019A02990398FFF790FF29
:1004C40000BF07B05DF804FBF0ED00E084B00190DC
:1004D400019B9B680393019BDA68039BD31A18461C
:1004E40004B0704782B001900B468DF80330019B35
:1004F4001A68019BDB68019989880B4013449DF8B5
:1005040003201A70019BDB685A1C019BDA6000BF50
:1005140002B0704784B003900B460192ADF80A30E4
:10052400039B1A68039B9968BDF80A300B4403992E
:1005340089880B4013441A78019B1A7000BF04B0D9
:10054400704700B583B001900091009A0021019892
:10055400FFF7E0FF019B9B685A1C019B9A6000BF58
:1005640003B05DF804FB84B0039002911346ADF828
:100574000630029B002B01D10E231DE0BDF806308E
:10058400002B07D0BDF806305A1EBDF806301340C4
:10059400002B01D009230FE0039B029A1A60BDF8D7
:1005A4000630013B9AB2039B9A80039B00229A6017
:1005B400039B0022DA600023184604B0704700B59C
:1005C40083B001900B468DF803300198FFF77EFF4E
:1005D4000246019B9B889A4207D89DF8033019462E
:1005E4000198FFF77FFF002300E00423184603B0BF
:1005F4005DF804FB00B583B0019000910198FFF70A
:1006040065FF0346002B05D000990198FFF799FF79
:10061400002300E00523184603B05DF804FB000046
:1006240000B583B00190019B1B781A460C4B9B5C70
:10063400002B05D0019B0433184605F013F90BE099
:10064400019B1B781A46064B9B5C002B04D1019B33
:100654000C33184604F048F900BF03B05DF804FBFE
:10066400F801002000B587B00390029113468DF87D
:10067400073000230593039B1B781A46114B9B5CA0
:10068400002B09D0039B04339DF8072002991846D8
:1006940005F04AF905900FE0039B1B781A46094BB5
:1006A4009B5C002B08D1039B0C339DF80720029917
:1006B400184604F091F90590059B184607B05DF8BB
:1006C40004FB00BFF801002000B587B0039002913D
:1006D40013468DF8073000230593039B1B781A46B5
:1006E400114B9B5C002B09D0039B04339DF807201E
:1006F4000299184605F0F8F905900FE0039B1B7862
:100704001A46094B9B5C002B08D1039B0C339DF8C4
:1007140007200299184604F03FFA0590059B1846F5
:1007240007B05DF804FB00BFF801002084B001901D
:10073400019B9B680393019BDA68039BD31A1846B9
:1007440004B0704700B587B001900091009B0593F9
:10075400019B1B78022B50D0022B7EDC002B5FD038
:10076400012B7AD1019B1B7A002B07D10598059B9D
:100774001D3301221946FFF7A7FF6FE0059B03F124
:100784002002019B5B681B7819461046FFF717FF90
:100794000490049B002B0AD001238DF80830049B9D
:1007A4000393059B9B6902AA104698470FE0059B9B
:1007B40020331846FFF7BAFF0346002B07D0002367
:1007C4008DF80830059B9B6902AA10469847059B43
:1007D40020331846FFF7AAFF0246059B9B8C9A42DA
:1007E40007D80598059B1D3301221946FFF76CFFB6
:1007F40034E0059B01225A7530E002238DF808305D
:10080400019BDB6803930598059B1D330122194660
:10081400FFF75AFF059B9B6902AA104698471DE003
:10082400059B03F13002059B1C3319461046FFF764
:10083400E1FE0346002B07D10598059B1C330122DA
:100844001946FFF70FFF09E003238DF80830059BD5
:100854009B6902AA1046984700E000BF00BF07B09A
:100864005DF804FB30B591B00390029113468DF806
:100874000730029B002B01D107237DE0039B03F18A
:100884002000029B1968029B5B689BB21A46FFF723
:100894006AFE0F900F9B0E930E9B002B01D00E9BB4
:1008A4006AE0039B03F13000029B9968029BDB68BA
:1008B4009BB21A46FFF757FE0F900F9B0D930D9BAB
:1008C400002B01D00D9B57E02D4B04AC1D460FCDE2
:1008D4000FC495E80F0084E80F00039B1B6C5B6951
:1008E4000A93039B1B6C1B7C002B14BF0123002366
:1008F400DBB28DF824309DF807308DF82C30039B43
:100904001B6C5B7C002B01D00E2300E000238DF8D0
:100914002530039B1B6CDB680693039B1B6C9B6855
:100924000793039B1B6C1B680593039B1B6C5B6801
:100934000493039B0893039B04A9124A184600F0EE
:10094400A1FF0F900F9B0C930C9B002B01D00C9BD1
:1009540012E0039B00225A75039B1B6C1B68B3F1C6
:10096400FF3F08D00398039B1D3301221946FFF76C
:10097400ABFE034600E00023184611B030BD00BFB3
:10098400A42702004907000000B583B00190019B31
:100994001846FFF745FE0023184603B05DF804FB34
:1009A40072B600BF034B1B680133024A136000BFD9
:1009B400704700BF68010020064B1B68013B054AD5
:1009C4001360044B1B68002B01D162B600BF00BF4B
:1009D400704700BF6801002000B583B0019000F0AB
:1009E40025F80346012B03D00449432000F03BF8CB
:1009F400FFF7D6FF00BF03B05DF804FB54280200E4
:100A040000B583B003468DF8073000F00FF80346B5
:100A1400012B03D00449512000F025F8FFF7CCFF47
:100A240000BF03B05DF804FB5428020084B0EFF368
:100A340005830193019BC3F308030393039B002BDA
:100A44000DD1EFF314830093009B0293029B03F0F8
:100A54000103002B0CBF01230023DBB200E00123C0
:100A6400184604B0704700B585B003460091ADF850
:100A74000630BDF806300293009B039302AB1A467E
:100A8400002144F20200FFF7F7FC00BF05B05DF857
:100A940004FB10B487B001900091019B009A53E8C5
:100AA400004F44EA020043E8000191F0000FF6D140
:100AB400059404900391059B184607B05DF8044B18
:100AC400704710B487B001900091019B009A53E8DD
:100AD400004F04EA020043E8000191F0000FF6D150
:100AE400059404900391049B184607B05DF8044BE9
:100AF400704700B583B0019001210198FFF7C9FF49
:100B04000346184603B05DF804FB00B583B00190BA
:100B140000210198FFF7D5FF0346184603B05DF89E
:100B240004FB00B585B0039002910192039B002B56
:100B340001D10E230EE0029B002B01D10E2309E00C
:100B4400039B029A1A60039B1B681B680199039814
:100B540098470346184605B05DF804FB10B584B009
:100B64000390029101920093039B002B01D10E2369
:100B74002AE0019B002B01D10E2325E0039B1B6877
:100B8400002B01D108231FE0009B002B01D1092376
:100B94001AE0029800F006F90346002B01D1102355
:100BA40012E0009A0299039800F0E2F80346002B41
:100BB40001D1102308E0039B1B689C68009B019AE9
:100BC40002990398A0470346184604B010BD10B517
:100BD40086B00590049103920293059B002B01D1EA
:100BE4000E2342E0039B002B01D10E233DE0059B25
:100BF4001B68002B01D1082337E0029B002B01D195
:100C0400092332E0059B5B685A68029BB3FBF2F14F
:100C140001FB02F29B1A002B01D0092325E0049862
:100C240000F0C0F80346002B01D110231DE0039B04
:100C3400184600F0B7F80346002B01D1102314E046
:100C4400029A0499059800F093F80346002B01D109
:100C540010230AE0059B1B68DC68089B0093029B39
:100C6400039A04990598A0470346184606B010BD98
:100C740010B584B00390029101920093039B002B62
:100C840001D10E232CE0039B1B68002B01D1082308
:100C940026E0019B002B01D1092321E0029903984E
:100CA40000F08DF80346002B01D1102318E0039BBC
:100CB4005B681B68019A02FB03F31A4602990398C6
:100CC40000F056F80346002B01D1102308E0039BE3
:100CD4001B681C69009B019A02990398A04703466C
:100CE400184604B010BD000000B585B00190019B0A
:100CF400002B03D0019B1B68002B28D100230393F6
:100D040019E0039A13469B0013449B001A46154BA3
:100D140013440193019B1B68002B09D0019B1B68A2
:100D2400DB69019898470346002B01D0012314E0A6
:100D3400039B013303930C4A0A4BD31A0B4AA2FBBD
:100D440003231B09039A9A42DBD3002305E0019B8A
:100D54001B68DB69019898470346184605B05DF89F
:100D640004FB00BF0000002014000020CDCCCCCC3C
:100D740084B0039002910192039BDB68029A9A4229
:100D840009D3029A019B13445A1E039B1B699A427E
:100D940001D8012300E0002303F00103DBB218466D
:100DA40004B0704782B00190019B03F00303002B51
:100DB4000CBF01230023DBB2184602B0704782B097
:100DC40001900091019B5B681B685A1E009B1340B5
:100DD400002B0CBF01230023DBB2184602B070477E
:100DE40000B58BB00390019200930B468DF80B3045
:100DF400039B9B68002B13D09DF80B308DF81030AB
:100E040000230593009B0693019B07930C9B089377
:100E14000D9B0993039B9B6804AA1046984700E026
:100E240000BF0BB05DF804FB82B001900091019B00
:100E3400024A5A600023184602B07047B8280200DC
:100E440000B583B0019000910348FFF75EFE0023D4
:100E5400184603B05DF804FB6C01002000B585B0B2
:100E64000390029101920093029B009A1946019803
:100E740021F020FC0023184605B05DF804FB0000B7
:100E840000B587B005900491039202931148FFF7CF
:100E940030FE0346002B01D0112316E00422029BEE
:100EA400B3FBF2F31A460399049800F089FD09484C
:100EB400FFF72BFE089B0193029B0093049B039A6C
:100EC40001210598FFF78CFF0023184607B05DF851
:100ED40004FB00BF6C01002000B589B005900491AB
:100EE40003920293002307931548FFF702FE03467B
:100EF400002B0ED011231EE04FF48052079B03FBFE
:100F040002F2049B1344184600F036FD079B01339C
:100F14000793079A039B9A42EED10948FFF7F5FD20
:100F2400029B0193039B0093049B002202210598DA
:100F3400FFF756FF0023184609B05DF804FB00BF15
:100F44006C01002082B001900091009B184602B011
:100F5400704782B0019000910023184602B0704798
:100F640082B00190044B1B68002B14BF01230023A3
:100F7400DBB2184602B070476C01002082B0034611
:100F84008DF807309DF90730002B0DDB9DF80730F5
:100F940003F01F0206499DF907305B09012000FA9E
:100FA40002F2603341F8232000BF02B0704700BF53
:100FB40000E100E000B583B00190019B002B03D158
:100FC40006497220FFF74FFD019B00221A60BFF310
:100FD4005F8F00BF00BF03B05DF804FB3829020037
:100FE40000B583B00020FFF7F7FCF1EE103A01934F
:100FF400019B23F09F030093009BE1EE103A00BF96
:10100400BFF35F8F00BF2620FFF7B8FF0020FFF774
:10101400F7FC019B03F00703002B03D003497D2059
:10102400FFF721FD00BF03B05DF804FB7029020047
:1010340008B5064B00221A700548FFF7BBFF0549A7
:10104400054800F00FFA0023184608BD740100207B
:1010540070010020D42902007801002008B5FFF7B0
:10106400BFFF20BF40BF20BF00BF08BD82B00190BA
:10107400019B9B68024A12781344184602B07047D9
:101084003B2A020000B583B001900091019B002B24
:1010940003D108498320FFF7E6FC019B9B68009A73
:1010A4009A4202D2009B013300E00023184603B0A9
:1010B4005DF804FBE029020000B585B00190019BB6
:1010C4001B681B680393019B1B685B680293029A6D
:1010D400039B9A4203D3029A039BD31A07E0019815
:1010E400FFF7C4FF0246039BD21A029B134418461F
:1010F40005B05DF804FB000000B585B00190019BCC
:10110400002B03D10D499820FFF7ADFC019B1B6810
:101114001B680393019B1B685B6802930299019807
:10112400FFF7B0FF0246039B93420CBF0123002349
:10113400DBB2184605B05DF804FB00BFE0290200ED
:1011440010B586B00190009100230593019B002BFC
:1011540003D15249A320FFF786FC009B002B03D147
:101164004E49A420FFF77FFC0020FFF735FC0198CF
:10117400FFF7C2FF03468DF813309DF8133083F058
:101184000103DBB2002B03D1019B1B7C002B7AD122
:10119400019B1B685B680393019B1B685A68019B56
:1011A4001C6811460198FFF76DFF034663609DF8C4
:1011B4001330002B0AD0019B1B681A68019B1C6822
:1011C40011460198FFF75EFF03462360019BDB682D
:1011D400013B072B37D801A252F823F0011200007B
:1011E400111200004B120000231200004B120000E9
:1011F4004B1200004B12000035120000019B5A688C
:10120400039B1344009A12781A702DE0019B5A68CC
:10121400039B5B001344009A12881A8024E0019B0C
:101224005A68039B9B001344009A12681A601BE0DF
:10123400019B5A68039BDB00D118009BD3E9002370
:10124400C1E9002310E0019B5B681946019BDB6840
:10125400039A02FB03F30B441846019BDB681A460E
:10126400009921F027FA00BF0198FFF725FF0290AB
:10127400019B1B689B68029A9A4207D9019B1B68D1
:10128400029A9A6002E00423059300E000BF002064
:10129400FFF7B6FB059B184606B010BDE029020017
:1012A40000B585B001900B468DF80330019B1B6897
:1012B4001B680393019B1B685B6802939DF80330D2
:1012C400002B0ED0029A039B9A4206D30198FFF793
:1012D400CDFE0246029BD31A11E0039A029BD31A55
:1012E4000DE0029A039B9A4203D3029A039BD31AFA
:1012F40005E00198FFF7BAFE0246039BD31A18468D
:1013040005B05DF804FB00B58BB003900291019227
:10131400039B1B681B68099300210398FFF7C0FF18
:101324000890039B5B681946039BDB68099A02FBE0
:1013340003F30B440793019A089B9A4219D8039B21
:10134400DB68019A02FB03F31A460799029821F01D
:10135400B1F9099A019B1A44039B9B689A4203D8EA
:10136400099A019B134400E00023039A1268136056
:1013740020E0039BDA68089B02FB03F30693069ABA
:101384000799029821F096F9019A089BD31A0593BC
:10139400029A069B13441846039B5968039BDB6817
:1013A400059A02FB03F31A4621F084F9039B1B6898
:1013B400059A1A6000BF0BB05DF804FB00B587B056
:1013C40003900291019200230593039B002B04D107
:1013D40015494FF4EC70FFF746FB029B002B04D138
:1013E400114940F2D910FFF73EFB019B002B01D1BC
:1013F400002315E00020FFF7EFFA0398FFF75CFEE7
:101404000246019B934205D8019A02990398FFF77B
:101414007AFF01E0052305930020FFF7F1FA059B0D
:10142400184607B05DF804FBE029020000B585B05A
:101434000190019B002B04D1094940F21E20FFF7C3
:1014440012FB0020FFF7C8FA0198FFF735FE03905E
:101454000020FFF7D5FA039B184605B05DF804FB9E
:10146400E029020000B583B001900091019B002B9C
:1014740003D110495020FFF7F6FA009B002B03D14B
:101484000C495120FFF7EFFA019B009A1A60019B67
:101494001B681A68019B5A60019B5A68019B1B6870
:1014A4005B689A4202D1019B00225A6000BF03B0DC
:1014B4005DF804FB3C2A0200044BD3F80034002BF3
:1014C40014BF01230023DBB218467047000001401B
:1014D40000B583B000230193144B1B78002B02D07A
:1014E4008523019314E0114B00229A600F4B0022D4
:1014F4005A600E4B00221A610C4B0022DA600C4831
:1015040000F0F0FB019000F013FC084B01221A706C
:10151400FFF7D2FF0346002B02D0044B01229A703E
:10152400019B184603B05DF804FB00BF8001002056
:101534007916000084B001900091019B1B6803930D
:1015440006E0039A009B9A420DD0039B1B68039309
:10155400039B002BF5D1019B1A68009B1A60019B29
:10156400009A1A6000E000BF04B0704784B0019094
:10157400019B1B680393039B002B03D0039B1A68F6
:10158400019B1A60039B184604B0704700B583B0F2
:101594000190224B1B78002B03D12149F620FFF741
:1015A40062FA1E4B9B78DBB2002B12D0019B002BFE
:1015B40003D0019B5B68012098470020FFF70CFAD9
:1015C400164BDB680133154AD3600020FFF718FA85
:1015D40017E00020FFF700FA019B002B03D00199CC
:1015E4001048FFF7A7FF0D4BDB68002B01D100F07B
:1015F400B3FB0A4BDB680133084AD3600020FFF7D2
:10160400FFF9064BDB68002B04D105494FF48970C0
:10161400FFF729FA00BF03B05DF804FB8001002046
:10162400B42A02009001002000B585B003468DF86D
:1016340007309DF80730002B02D10C4B039301E0D7
:101644000B4B03930398FFF791FF0290029B002B2F
:1016540006D0029B5B689DF8072010469847F1E787
:1016640000BF00BF05B05DF804FB00BF8801002087
:101674009001002000B583B003468DF807309DF833
:101684000730002B05D10A4B01225A700020FFF7C6
:10169400CBFF9DF80730012B05D1054B01229A7031
:1016A4000120FFF7C1FF00BF03B05DF804FB00BFDA
:1016B4008001002000B583B003468DF807300DF19A
:1016C400070319460748FFF73BFD0648FFF714FDDB
:1016D4000346002B01D001F097FB00BF03B05DF877
:1016E40004FB00BF7C27020000B585B001900023F5
:1016F4000393124B1B78002B01D0852319E0019B27
:10170400002B01D10E4B01930C4B019A013312882B
:101714001A800C490C4801F01FFB0390039B002B1B
:1017240001D0039B05E001F055FB044B01221A7024
:10173400039B184605B05DF804FB00BF940100202C
:10174400102B0200B91600009501002000B583B0EB
:101754000190094B1B78012B03D00849A320FFF704
:1017640082F90748FFF762FE0346DAB2019B1A705A
:1017740000BF03B05DF804FB94010020142B0200A9
:101784007C27020000B585B001900B468DF803302C
:1017940000230393104B1B78012B03D00F49B72070
:1017A400FFF761F99DF803301A4601990C48FFF7D9
:1017B40005FE039001F00EFB039B002B06D0039B58
:1017C400052B03D00549D120FFF74DF9039B18469B
:1017D40005B05DF804FB00BF94010020142B020047
:1017E4007C27020000B589B001900091009B07930B
:1017F400019B1B788DF80C30019B5B680493019B63
:101804009B68DBB28DF81430019BDB680693074AB2
:10181400079B52F823300649079A51F8221003AA6D
:101824001046984700BF09B05DF804FBE8010020AA
:10183400F001002000B589B001900091009B07934E
:10184400019B1B788DF80C30019B5B680493019B12
:101854009B68DBB28DF81430019BDB680693074A62
:10186400079B52F823300649079A51F8221003AA1D
:101874001046984700BF09B05DF804FBE80100205A
:10188400F001002030B58FB0039002910192039BC8
:101894001B780C932C490C9B019A41F82320029B42
:1018A4001A692A490C9B41F823200C9B012B07D170
:1018B400029B5B7F002B03D125497620FFF7D3F8E9
:1018C400029B5B7F1946234A0C9B13440A461A70F9
:1018D400029B04AC1D460FCD0FC495E80F0084E8AD
:1018E4000F000C9B089300230D93039B1B781A464F
:1018F400184B9B5C002B0DD0039B181D019B002BE8
:1019040001D0154A00E0002204AB194603F044FF5D
:101914000D9014E0039B1B781A460E4B9B5C002B26
:101924000DD1039B03F10C00019B002B01D00B4A4A
:1019340000E0002204AB194602F06CFF0D900D9BF1
:1019440018460FB030BD00BFE8010020F0010020B0
:10195400702B0200F8010020E9170000391800007C
:1019640000BF044BD3F80034002BFAD000BF00BFF3
:10197400704700BF00E0014000B583B001900F4BF9
:101984000222C3F80425BFF36F8F00BFBFF34F8F4C
:1019940000BF0A4A019BC2F80835FFF7E1FF074B75
:1019A4000022C3F80425BFF36F8F00BFBFF34F8F2E
:1019B40000BF00BF03B05DF804FB00BF00E00140BE
:1019C40000B587B0039002910192174B0122C3F82E
:1019D4000425BFF36F8F00BFBFF34F8F00BF0023F9
:1019E40005930EE0059B9B00029A1344059A91000F
:1019F400039A0A441B681360FFF7B2FF059B013387
:101A04000593059A019B9A42ECD3074B0022C3F835
:101A14000425BFF36F8F00BFBFF34F8F00BF00BF1C
:101A240007B05DF804FB00BF00E0014082B003464C
:101A34008DF807309DF90730002B0DDB9DF807303A
:101A440003F01F0206499DF907305B09012000FAE3
:101A540002F2603341F8232000BF02B0704700BF98
:101A640000E100E0BFF34F8F00BF064BDB6803F4D7
:101A7400E0620449044B1343CB60BFF34F8F00BFB4
:101A840000BFFDE700ED00E00400FA0500B583B0F7
:101A940003468DF807309DF907301846FFF7C6FF57
:101AA4000023184603B05DF804FB08B5FFF7DAFF1E
:101AB40082B003468DF807309DF90730002B0CDB0C
:101AC4009DF8073003F01F0205499DF907305B09B3
:101AD400012000FA02F241F8232000BF02B070474F
:101AE40000E100E082B0034600918DF807309DF9D3
:101AF4000730002B0ADB009BDAB20C499DF9073052
:101B04005201D2B20B4483F800230BE0009BDAB2FB
:101B140007499DF8073003F00F03043B5201D2B28A
:101B24000B441A7600BF02B0704700BF00E100E02A
:101B340000ED00E082B00190019B1B0B5BB21846E4
:101B440002B0704700B583B003460A468DF80730EB
:101B540013468DF806309DF80630072B03D9084943
:101B64006B20FEF780FF9DF806209DF90730114693
:101B74001846FFF7B7FF00BF03B05DF804FB00BFD2
:101B8400CC2B020000B583B003468DF807309DF9D5
:101B940007301846FFF78CFF00BF03B05DF804FB65
:101BA40082B003468DF807300F4A9DF90730002BA9
:101BB40000DA1F335B115BB252F823209DF9073022
:101BC400594203F01F0301F01F0158BF4B425BB29F
:101BD40022FA03F303F00103002B14BF01230023B3
:101BE400DBB2184602B0704700E100E082B0019019
:101BF4004FF08042019BC2F8043300BF02B070472B
:101C040082B001904FF08042019BC2F8083300BFBC
:101C140002B0704782B003468DF807309DF8073054
:101C240003F1804301221A6000BF02B0704784B000
:101C34000346ADF80630BDF8063003F180430022B8
:101C44001A60BDF8063003F180431B680393039BBD
:101C540000BF04B0704782B00346ADF80630BDF84B
:101C6400063003F180431B68002B14BF01230023BB
:101C7400DBB2184602B0704782B001904FF0804248
:101C8400019BC2F8183500BF02B0704700B583B09D
:101C940006238DF807304FF08040FFF74BFF0346D3
:101CA4001846FFF77DFF034683F00103DBB2002BE8
:101CB40013D04FF08040FFF73DFF03461A469DF8CE
:101CC400073019461046FFF73DFF4FF08040FFF7FD
:101CD40031FF03461846FFF755FF00BF03B05DF818
:101CE40004FB000000B585B00190019B002B03D1DB
:101CF4000D49A420FEF7B7FE002303930B4B1B7979
:101D0400002B02D08523039308E0084A019B13604B
:101D1400064B01221A71054B00225A71039B184687
:101D240005B05DF804FB00BFFC2B0200FC010020A1
:101D340008B5074B1B79002B03D10649BD20FEF7DC
:101D440092FEFFF7A3FF0120FFF796FF00BF08BD37
:101D5400FC010020FC2B020008B50A4B1B79002B68
:101D640003D10949EA20FEF77EFE4FF48270FFF7A3
:101D74005EFF0220FFF73AFF0820FFF74BFF00BF8A
:101D840008BD00BFFC010020FC2B020008B54FF485
:101D94008070FFF760FF0346002B14D04FF480706F
:101DA400FFF745FF0120FFF72BFF114B5B7983F011
:101DB4000103DBB2002B06D00D4B01225A710C4BF0
:101DC4001B68002098474FF48270FFF744FF0346D6
:101DD400002B0AD04FF48270FFF729FF0220FFF78F
:101DE4000FFF034B1B680120984700BF08BD00BFCD
:101DF400FC01002082B003468DF807309DF90730BE
:101E0400002B0CDB9DF8073003F01F0205499DF9F8
:101E140007305B09012000FA02F241F8232000BFD9
:101E240002B0704700E100E082B0034600918DF8F3
:101E340007309DF90730002B0ADB009BDAB20C490E
:101E44009DF907305201D2B20B4483F800230BE012
:101E5400009BDAB207499DF8073003F00F03043BF7
:101E64005201D2B20B441A7600BF02B0704700BFD1
:101E740000E100E000ED00E082B00190019B1B0B4B
:101E84005BB2184602B0704700B583B003460A46F9
:101E94008DF8073013468DF806309DF80630072B71
:101EA40003D908496B20FEF7DEFD9DF806209DF955
:101EB400073011461846FFF7B7FF00BF03B05DF8BF
:101EC40004FB00BF582C020000B583B003468DF814
:101ED40007309DF907301846FFF78CFF00BF03B0A9
:101EE4005DF804FB00B583B00346ADF80630BDF8D9
:101EF4000630184600F026F803461B68012B0CBF79
:101F040001230023DBB2184603B05DF804FB00B5DF
:101F140085B00346ADF80630BDF80630184600F02B
:101F240011F803461A4600231360BDF8063018461C
:101F340000F008F803461B680393039B00BF05B039
:101F44005DF804FB82B00346ADF80630BDF80630F8
:101F540003F1804303F5C043184602B07047000004
:101F640082B00190034A019BC2F8043300BF02B05F
:101F7400704700BF0060004082B00190034BD3F86B
:101F84000423019B1340184602B0704700600040D0
:101F940082B00190084A019B03F5A27352F82330E2
:101FA400054943F00102019B03F5A27341F8232084
:101FB40000BF02B0704700BF0060004084B00390CF
:101FC400029113468DF80730144A039B03F5A2735C
:101FD40052F82330114923F44F3323F44073039A06
:101FE40002F5A27241F822300C4A039B03F5A27356
:101FF40052F82320029B1B0203F47C519DF8073006
:102004001B0403F440330B4304491A43039B03F5B5
:10201400A27341F8232000BF04B070470060004061
:1020240082B00190054A019B03F5A27352F8233054
:102034001B0A03F03F03184602B0704700600040DB
:1020440082B00190064A019B03F5A27352F8233033
:102054001B0C03F00303DBB2184602B0704700BF49
:102064000060004000B583B00190019B1B681846D6
:1020740000F028F90346002B04D10B494FF4F67005
:10208400FEF7F1FC019B1B681F2B02D84FF0A04305
:1020940006E0019B1B6803F01F02019B1A60034BBF
:1020A400184603B05DF804FB882C020000030050BE
:1020B40000B585B00190084611461A4603468DF8CE
:1020C40003300B468DF8023013468DF8013001AB16
:1020D4001846FFF7C7FF03909DF803209DF80230D0
:1020E4005B001A439DF801309B001A439DF8183099
:1020F4001B0242EA03019DF81C301B04019A194398
:10210400039B02F5E07243F8221000BF05B05DF8AE
:1021140004FB00B585B003900B468DF80B309DF899
:102124000B30002201920022009200220021039829
:10213400FFF7BEFF00BF05B05DF804FB00B585B036
:10214400019001AB1846FFF78DFF0390019A039BA2
:1021540002F5E07253F8223023F002030293019A4D
:10216400039B02F5E072029943F8221000BF05B008
:102174005DF804FB00B585B001900B468DF8033083
:1021840001AB1846FFF76EFF0390019A039B02F51B
:10219400E07253F82230019A23F44031039B02F594
:1021A400E07243F82210019A039B02F5E07253F89F
:1021B40022109DF803301B04019A1943039B02F576
:1021C400E07243F8221000BF05B05DF804FB00B5CF
:1021D40085B0019001AB1846FFF744FF03900398C4
:1021E40000F020F80246019B22FA03F303F00103F6
:1021F400184605B05DF804FB00B585B0019001AB4D
:102204001846FFF72FFF0390019A039B02F5E07233
:1022140053F822301B0C03F00303DBB2184605B05D
:102224005DF804FB82B00190019BD3F81035184689
:1022340002B0704788B0039002910192164A05AB30
:1022440092E8030083E80300039B079319E0079BCC
:102254009B0020336B4453F80C3CD3F82025019B9E
:102264001A60079B9B0020336B4453F80C3C019A83
:102274001268C3F82025019B04330193079B0133A3
:102284000793039A029B1344079A9A42DFD300BF31
:1022940000BF08B0704700BFB82C020000B585B07D
:1022A400019001AB1846FFF7DDFE0390019B01226C
:1022B40002FA03F31A46039BC3F8202500BF05B0B6
:1022C4005DF804FB84B00190019B5B090293002339
:1022D4000393029B002B03D0029B012B04D007E045
:1022E4004FF0FF33039303E04FF6FF73039300BFF4
:1022F400019B03F01F030193039A019B22FA03F34A
:1023040003F00103002B14BF01230023DBB21846A2
:1023140004B0704784B001900091009B0393019B2B
:10232400DB080293019B03F0070301930122019B45
:1023340002FA03F30399029A0A44127813401846E6
:1023440004B0704784B001900091009B0393019BFB
:10235400DB080293019B03F007030193039A029B9A
:1023640013441B785AB20121019B01FA03F35BB2B7
:10237400134359B2039A029B1344CAB21A7000BFA2
:1023840004B0704782B001900C4A019B1344383367
:1023940093F90030002B09DB084A019B13443833BE
:1023A40093F90030072B01DC012300E0002303F044
:1023B4000103DBB2184602B0704700BF04020020DC
:1023C40082B00190064A019B1344383393F90030DC
:1023D400072BCCBF01230023DBB2184602B07047A1
:1023E4000402002082B00190064A019B1344383352
:1023F40093F90030DB43DBB2DB09DBB2184602B0F1
:10240400704700BF0402002084B00390029101923F
:102414008DF80330029B59B20E4A039B13443833A0
:102424000A461A700B49029B019A41F823209DF831
:10243400033083F00103DBB2002B08D0029B083B7E
:10244400039A51B2034A13440A4683F8682000BF32
:1024540004B070470402002082B00190044A019B3A
:1024640013443833FF221A7000BF02B0704700BF14
:102474000402002000B583B0019004490198FFF7DD
:1024840061FF00BF03B05DF804FB00BF72020020CF
:1024940082B00190044A019B1344383393F900300D
:1024A400184602B0704700BF0402002082B00190B9
:1024B400034A019B52F82330184602B0704700BF0C
:1024C4000402002084B00190074A019B134468333E
:1024D40093F900308DF80F309DF80F3023F0C003CE
:1024E400184604B0704700BF0402002084B0019075
:1024F400074A019B1344683393F900308DF80F3079
:102504009DF80F309B09DBB2184604B0704700BF3A
:102514000402002000B589B00390029113468DF89F
:102524000730FF238DF81F309DF80730002B01D0B2
:10253400002300E0082305939DF80730002B01D009
:10254400082300E00E230493059B069314E00F4A2E
:10255400069B52F82330B3F1FF3F0AD19DF80730B0
:10256400029A06990398FFF74FFF069B8DF81F30D8
:1025740006E0069B01330693069A049B9A42E6D32F
:102584009DF91F30184609B05DF804FB04020020D1
:1025940082B003468DF807309DF80730094A4FF0A2
:1025A400FF3142F823109DF80730072B07D99DF817
:1025B4000730083B034A1344FF2283F8682000BF16
:1025C40002B070470402002000B583B02D4B93F88D
:1025D4007430002B03D008230093009B4EE00023AB
:1025E4008DF8073011E09DF807301846FFF76AFEB2
:1025F4000346002B04D09DF807301846FFF72CFF44
:102604009DF8073001338DF807309DF807302F2BE4
:10261400E9D900238DF8073009E09DF80730184602
:10262400FFF7B6FF9DF8073001338DF807309DF8AA
:1026340007300D2BF1D906220021134820F06CF845
:102644001248FFF719FC034606211846FFF71CFC45
:102654000E48FFF711FC03461846FFF735FC4FF40C
:10266400BE70FFF754FC4FF00040FFF779FC054BB8
:10267400012283F8742000230093009B184603B0C2
:102684005DF804FB04020020720200200060004098
:1026940000B587B00390029101920398FFF712FEF0
:1026A4000346002B04D136494FF40C70FEF7DBF9D6
:1026B400002305930398FFF795FE0346002B02D0F1
:1026C4000823059357E0029B9B78C3F34003DBB2D6
:1026D4001A4601990398FFF71DFF03468DF813303E
:1026E4009DF91330B3F1FF3F43D0029B9B78C3F3B2
:1026F4008003DBB283F00103DBB2002B13D0029B17
:102704009B7803F00103DBB2002B03D00398FFF79F
:1027140015FD05E0029B5B7819460398FFF7F9FC69
:102724000398FFF7A7FE029B9B7803F00203DBB23A
:10273400002B08D09DF91300029B1B781A460399BD
:10274400FFF73CFC17E09DF91330083B0D4A134496
:1027540093F96810029B1B789B015AB29DF91330C0
:10276400083B0A4351B2074A13440A4683F86820D7
:1027740001E004230593059B184607B05DF804FBAC
:10278400C02C02000402002000B589B001900B4661
:102794008DF803300198FFF795FD0346002B04D113
:1027A4003A494FF41870FEF75EF90198FFF71AFEE4
:1027B4000346002B04D1354940F26120FEF753F95A
:1027C4000198FFF7FDFD0346002B2AD00198FFF77F
:1027D4005FFE0346083B1846FFF788FE03468DF864
:1027E4000F309DF80F30032B0BD10198FFF7EFFC4E
:1027F4000346002B01D0032300E002238DF81F3091
:1028040008E09DF80F30012B01D1022300E00323DF
:102814008DF81F309DF81F3019460198FFF7AAFC68
:1028240030E00198FFF7AEFD0346002B2AD0019853
:10283400FFF72EFE03460693069B9BB240339BB2E2
:102844009B00ADF81630069B1846FFF7A1FBBDF8B8
:1028540016301846FFF75BFB9DF80330002B11D0B0
:102864000198FFF715FE03461846FFF71FFE049074
:10287400049B002B06D00122069B02FA03F31846A0
:10288400FFF76EFB00BF09B05DF804FBC02C02002B
:1028940000B585B00190019A02210020FFF7CAFC1F
:1028A400002303930BE0039B9B00019A13441B68D2
:1028B400002B01D0012306E0039B01330393039B08
:1028C400012BF0D90023184605B05DF804FB000085
:1028D40000B587B00190002305935BE0344A059B63
:1028E4001344683393F90030B3F1FF3F4ED0059899
:1028F400FFF7E8FD049001990498FFF70BFD0346E8
:10290400002B44D00598FFF7F1FD03468DF80F30F6
:102914000498FFF771FC03468DF80E309DF80E30D5
:10292400022B01D1032300E002238DF80D309DF822
:102934000D3019460498FFF71DFC0498FFF7AEFC10
:102944000498FFF7A5FD03461846FFF7AFFD029074
:10295400029B002B1BD09DF80F30032B0FD09DF84A
:102964000E30022B03D19DF80F30012B07D09DF8B8
:102974000E30032B0BD19DF80F30022B07D19DF89D
:102984000F20029B11460498984700E000BF059B66
:1029940001330593059B052BA0D90198FFF778FF18
:1029A4000346002B97D100BF00BF07B05DF804FBBE
:1029B4000402002000B58BB00023099301AB002270
:1029C4001A605A604FF48073ADF81E3001230693E9
:1029D4000023089321E0BDF81E301846FFF782FA61
:1029E4000346002B0ED00698FFF7C6FA0346002BC9
:1029F40008D0BDF81E301846FFF789FA099A069BDD
:102A040013430993069B5B000693BDF81E30043301
:102A1400ADF81E30089B01330893089B072BDAD9C5
:102A24004FF4BE70FFF75EFA0346002B0DD04FF44F
:102A3400BE70FFF76CFA099B43F00043099301ABA6
:102A44001A4602210020FFF7F5FB099BDBB2002B9D
:102A540029D0012306930023089321E0069A099BB9
:102A64001340002B16D00898FFF7DAFA059008985F
:102A7400FFF7E6FA03468DF813300898FFF716FDC2
:102A84000390039B002B05D09DF81320039B114654
:102A940005989847069B5B000693089B01330893AF
:102AA400089B072BDAD9099B002B03DA01AB1846E4
:102AB400FFF70EFF00BF0BB05DF804FB08B5064B33
:102AC4001B68002B03D105495120FDF7CCFF024BB5
:102AD4001B68984708BD00BF7C0200201C2D020023
:102AE40082B00190019B044A934201D1034B00E060
:102AF4000023184602B07047002000407C020020EA
:102B040000B587B001900091019B002B03D11849B7
:102B14007720FDF7A8FF0198FFF7E2FF0490049BDC
:102B2400002B1ED000238DF817300020FDF754FF32
:102B3400049B1B79002B03D001238DF8173005E08B
:102B4400049B009A1A60049B01221A710020FDF76D
:102B540057FF9DF81730002B03D011230393039BD9
:102B640002E000230393039B184607B05DF804FBBF
:102B74001C2D020000B585B00190019B002B03D1F0
:102B84000A499B20FDF76FFF0198FFF7A9FF039007
:102B9400039B002B05D0039B00221A60039B002299
:102BA4001A7100BF05B05DF804FB00BF1C2D0200C4
:102BB40082B003468DF807309DF90730002B0CDBFB
:102BC4009DF8073003F01F0205499DF907305B09A2
:102BD400012000FA02F241F8232000BF02B070473E
:102BE40000E100E082B0034600918DF807309DF9C2
:102BF4000730002B0ADB009BDAB20C499DF9073041
:102C04005201D2B20B4483F800230BE0009BDAB2EA
:102C140007499DF8073003F00F03043B5201D2B279
:102C24000B441A7600BF02B0704700BF00E100E019
:102C340000ED00E000B583B003460A468DF8073086
:102C440013468DF806309DF80630072B03D9084942
:102C54006B20FDF708FF9DF806209DF9073011460B
:102C64001846FFF7BFFF00BF03B05DF804FB00BFC9
:102C7400782D020000B583B003468DF807309DF926
:102C840007301846FFF794FF00BF03B05DF804FB5C
:102C940082B00190034A019BC2F8043300BF02B022
:102CA400704700BF00D0004082B00190034A019BEE
:102CB400C2F8083300BF02B0704700BF00D0004024
:102CC40082B003468DF807309DF8073003F1804346
:102CD40003F5504301221A6000BF02B0704784B06C
:102CE4000346ADF80630BDF8063003F1804303F522
:102CF400504300221A60BDF8063003F1804303F507
:102D040050431B680393039B00BF04B0704700004B
:102D140082B00190054BD3F80022019BDB430349A9
:102D24001340C1F8003200BF02B0704700D0004029
:102D3400024BD3F80835DBB21846704700D0004088
:102D4400044BD3F80435034A43F00103C2F80435B5
:102D540000BF704700D0004000B583B001900091DF
:102D6400019B002B03D118493E20FDF77CFE009BFC
:102D7400002B03D114493F20FDF775FE134B1B783C
:102D8400002B01D085231BE0114A009B1360019B9B
:102D94001B7803F00103DBB2002B01D0FFF7D0FF57
:102DA4000120FFF7B5FF019B5B7819460D20FFF763
:102DB40041FF0D20FFF75EFF044B01221A70002330
:102DC400184603B05DF804FBA82D0200840200201D
:102DD4008802002008B50A4B1B78012B03D009494F
:102DE4005620FDF740FE4FF48070FFF778FF012076
:102DF400FFF74EFF0020FFF763FF00BF08BD00BFD1
:102E040084020020A82D020008B5084B1B78012B72
:102E140003D007495E20FDF726FE0120FFF744FF9B
:102E24000420FFF74DFF00BF08BD00BF840200204F
:102E3400A82D020000B583B04FF48070FFF74FFF58
:102E4400FFF776FF03468DF80730054B1B689DF8A6
:102E540007201046984700BF03B05DF804FB00BF8D
:102E64008802002082B003468DF807309DF90730B0
:102E7400002B0CDB9DF8073003F01F0205499DF978
:102E840007305B09012000FA02F241F8232000BF59
:102E940002B0704700E100E082B0034600918DF873
:102EA40007309DF90730002B0ADB009BDAB20C498E
:102EB4009DF907305201D2B20B4483F800230BE092
:102EC400009BDAB207499DF8073003F00F03043B77
:102ED4005201D2B20B441A7600BF02B0704700BF51
:102EE40000E100E000ED00E000B583B003460A46CF
:102EF4008DF8073013468DF806309DF80630072B01
:102F040003D908496B20FDF7AEFD9DF806209DF915
:102F1400073011461846FFF7BFFF00BF03B05DF846
:102F240004FB00BF002E020000B583B003468DF8F9
:102F340007309DF907301846FFF794FF00BF03B030
:102F44005DF804FB84B0039002910192039B029A02
:102F540002F5A872019943F8221000BF04B070472B
:102F640082B001900091019B009AC3F8042300BF32
:102F740002B0704782B001900091019B009AC3F89F
:102F8400082300BF02B0704782B001900091019BFA
:102F9400D3F80423009B1340184602B0704782B054
:102FA40001900B46ADF80230BDF80230019A13448B
:102FB4001B68184602B0704784B001900B46ADF808
:102FC4000230BDF80230019A134400221A60BDF8A1
:102FD4000230019A13441B680393039B00BF04B09F
:102FE400704782B00190019BD3F80435184602B0B3
:102FF4007047000000B583B001900091009BB3F5C9
:10300400805F04D306494FF4BE70FDF72CFD019B8D
:10301400009AC3F8082500BF03B05DF804FB00BFA5
:10302400302E020082B001900B468DF803309DF8DB
:103034000320019B13441A460123136000BF02B00E
:10304400704782B001900091019B009AC3F8442319
:1030540000BF02B0704782B001900091019B009ABA
:10306400C3F8482300BF02B07047000000B587B022
:10307400039002910192029B002B03D1314951200C
:10308400FDF7F1FC019B002B03D12E495220FDF7E3
:10309400EAFC039B5B7919462B4A019B42F82130D9
:1030A400039B5B791946294A0B465B000B44134486
:1030B4001B78002B03D008230593059B3DE0039B5D
:1030C40093F90420029B9B7819461046FFF70CFFE6
:1030D400039B93F904301846FFF726FF039B1A68F5
:1030E400029B1B8819461046FFF784FF039B5B79FC
:1030F4001946029B1879154A0B465B000B4413448E
:10310400013302461A70039B5B791946029BD878F7
:103114000E4A0B465B000B441344023302461A70FA
:10312400039B5B791946094A0B465B000B44134425
:1031340001221A7000230593059B184607B05DF819
:1031440004FB00BF602E02008C02002094020020C9
:1031540000B583B00190019B5B7919460F4A0B4679
:103164005B000B4413441B78012B03D00C498220D1
:10317400FDF779FC019B1B6800211846FFF752FFFD
:10318400019B5B791946054A0B465B000B441344CB
:1031940002221A7000BF03B05DF804FB9402002001
:1031A400602E020000B583B00190019B5B79194643
:1031B4000F4A0B465B000B4413441B78002B03D1CE
:1031C4000C498B20FDF74FFC019B1B68042118461A
:1031D400FFF728FF019B5B791946054A0B465B0004
:1031E4000B44134401221A7000BF03B05DF804FBC2
:1031F40094020020602E020000B58BB0039002916F
:1032040001928DF80330039B5B791946484A0B46BB
:103214005B000B4413441B78002B03D14549B420B5
:10322400FDF721FC039B9B791A46029B934203D32F
:103234004049B520FDF717FC4FF48032029B02FA97
:1032440003F30893029B9BB250339BB29B00ADF8EF
:103254001E30039B1B6808991846FFF7FCFE039B6E
:103264001B6808991846FFF785FE019B23F07F43EE
:103274000193039B5B7919462D4A0B465B000B4473
:10328400134401331B78002B2CD0039B1B68019A39
:1032940002991846FFF756FE039B1B681846FFF772
:1032A400A0FE0690069A019BD31A0993069A019BE5
:1032B4009A4205D2099B03F1FF1303F57F43099357
:1032C400039B5B7919461A4A0B465B000B44134473
:1032D40002331B781A46099B93420ADA0D2305939D
:1032E400059B21E0039B1B68019A02991846FFF78E
:1032F40029FE9DF80330002B0DD0039B1B68BDF8FD
:103304001E2011461846FFF757FE039B1B680899B9
:103314001846FFF725FE039B1B6808991846FFF71C
:1033240090FE00230593059B18460BB05DF804FB43
:1033340094020020602E020000B585B001900B4677
:103344008DF803304FF48273ADF80E3002230293EC
:10335400019B1B68BDF80E2011461846FFF72CFE92
:10336400019B1B6802991846FFF76BFE9DF803301A
:10337400002B05D0019B1B6802991846FFF7F0FD4E
:1033840000BF05B05DF804FB00B589B0039002915D
:1033940001924FF4803306934FF4A073ADF81630C6
:1033A4000023079330E006990398FFF7EDFD0346E9
:1033B400002B1ED0BDF8163019460398FFF7EFFD19
:1033C4000346002B15D006990398FFF744FE06998F
:1033D4000398FFF7CFFDBDF8163019460398FFF7A1
:1033E400EBFD2D4A029B52F82330079AD2B21046C5
:1033F4009847069B5B000693BDF816300433ADF87E
:103404001630079B01330793079A019B9A42CAD34C
:103414004FF48073ADF8163001210398FFF7B4FD23
:103424000346002B14D0BDF8163019460398FFF755
:10343400B6FD0346002B0BD0BDF816301946039891
:10344400FFF7BAFD144A029B52F823300420984730
:103454004FF48273ADF8163002210398FFF794FD00
:103464000346002B14D0BDF8163019460398FFF715
:1034740096FD0346002B0BD0BDF816301946039871
:10348400FFF79AFD044A029B52F82330052098471F
:1034940000BF09B05DF804FB8C02002008B50422CB
:1034A40000210248FFF770FF00BF08BD0010014073
:1034B40008B5042201210248FFF766FF00BF08BDDA
:1034C4000040024082B003468DF807309DF9073072
:1034D400002B0CDB9DF8073003F01F0205499DF912
:1034E40007305B09012000FA02F241F8232000BFF3
:1034F40002B0704700E100E082B003468DF8073067
:103504009DF90730002B13DB9DF8073003F01F02F1
:1035140009499DF907305B09012000FA02F22033C2
:1035240041F82320BFF34F8F00BFBFF36F8F00BF5D
:1035340000BF02B0704700BF00E100E082B0034664
:1035440000918DF807309DF90730002B0ADB009BB2
:10355400DAB20C499DF907305201D2B20B4483F818
:1035640000230BE0009BDAB207499DF8073003F013
:103574000F03043B5201D2B20B441A7600BF02B0CF
:10358400704700BF00E100E000ED00E082B0019070
:10359400019B03F06043B3F1005F0CBF01230023E0
:1035A400DBB2184602B0704782B00190019B1B0B3E
:1035B4005BB2184602B0704700B583B003460A46B2
:1035C4008DF8073013468DF806309DF80630072B2A
:1035D40003D908496B20FDF746FA9DF806209DF9AA
:1035E400073011461846FFF7A9FF00BF03B05DF886
:1035F40004FB00BFB82E020000B583B003468DF86B
:1036040007309DF907301846FFF75CFF00BF03B091
:103614005DF804FB00B583B003468DF807309DF9CF
:1036240007301846FFF768FF00BF03B05DF804FBDE
:1036340082B001900B468DF803309DF80330019A57
:10364400134401221A6000BF02B0704784B0019095
:103654000B46ADF80230BDF80230019A1344002243
:103664001A60BDF80230019A13441B680393039B4C
:1036740000BF04B0704782B001900B46ADF8023031
:10368400BDF80230019A13441B68002B14BF0123B8
:103694000023DBB2184602B0704782B0019000915B
:1036A400019B009AC3F8042300BF02B0704782B0A4
:1036B40001900091019B009AC3F8082300BF02B057
:1036C400704782B00190019B0722C3F8002500BF18
:1036D40002B0704782B00190019B0022C3F800251C
:1036E40000BF02B0704784B003900291019200932E
:1036F400039B029AC3F80825039B019AC3F80C257F
:10370400039B009AC3F8102500BF04B0704784B02F
:1037140003900291009313468DF80730039B029A9D
:10372400C3F814259DF80720039BC3F86825039B61
:10373400009AC3F8642500BF04B0704782B00190BA
:103744000091019B009AC3F86C2500BF02B070473A
:1037540082B001900091019B009AC3F8602500BFDC
:1037640002B0704782B001900091009A019BC3F8A7
:10377400242500BF02B0704784B0039002910192E7
:10378400029A039BC3F84425039B019AC3F8482576
:1037940000BF04B0704784B0039002910192029A72
:1037A400039BC3F83425039B019AC3F8382500BF53
:1037B40004B0704784B001900B468DF80330134673
:1037C4008DF802309DF80230002B14BF0123002332
:1037D400DBB203939DF80330032B10D0032B13DCCF
:1037E400012B02D0022B05D00EE0039B43F0020311
:1037F40003930AE0039B43F00403039305E0039B54
:1038040043F00603039300E000BF019B039AC3F84F
:10381400542500BF04B0704782B001900B468DF868
:1038240003309DF80320019BC3F8C02500BF02B0FC
:10383400704782B00190019B0122C3F8502500BF5C
:1038440002B0704782B00190019B0022C3F850255A
:1038540000BF02B0704782B00190019B0122C3F8FF
:10386400402500BF02B0704782B00190019B002246
:10387400C3F8402500BF02B07047000000B583B014
:103884000190019B1B68184600F0C2F80346002B08
:1038940004D10B494FF4F670FDF7E5F8019B1B6862
:1038A4001F2B02D84FF0A04306E0019B1B6803F0D6
:1038B4001F02019B1A60034B184603B05DF804FB1A
:1038C400E82E02000003005000B585B001900846C0
:1038D40011461A4603468DF803300B468DF8023024
:1038E40013468DF8013001AB1846FFF7C7FF03906C
:1038F4009DF803209DF802305B001A439DF80130C7
:103904009B001A439DF818301B0242EA03019DF8FC
:103914001C301B04019A1943039B02F5E07243F81F
:10392400221000BF05B05DF804FB00B585B003901C
:103934000023019300230093002301220121039813
:10394400FFF7C2FF00BF05B05DF804FB00B585B00A
:1039540003900B468DF80B309DF80B30002201923A
:1039640000220092002200210398FFF7ADFF00BF60
:1039740005B05DF804FB00B585B003900023019306
:10398400002300930023012200210398FFF79CFFEA
:1039940000BF05B05DF804FB00B585B0019001AB34
:1039A4001846FFF76BFF0390019B012202FA03F311
:1039B4001946039800F018F800BF05B05DF804FB41
:1039C40000B585B0019001AB1846FFF757FF03908F
:1039D400019B012202FA03F31946039800F00EF842
:1039E40000BF05B05DF804FB82B001900091019B1B
:1039F400009AC3F8082500BF02B0704782B0019056
:103A04000091019B009AC3F80C2500BF02B07047D7
:103A140084B00190019B5B09029300230393029BF2
:103A2400002B03D0029B012B04D007E04FF0FF339F
:103A3400039303E04FF6FF73039300BF019B03F06E
:103A44001F030193039A019B22FA03F303F001037A
:103A5400002B14BF01230023DBB2184604B07047C7
:103A640000B58DB00590049103920293049B002B42
:103A740003D19049AD20FCF7F6FF059B1B791A464C
:103A84001346DB0013449B008B4A13440993099BA0
:103A94001B7F002B03D008230893089B05E1059B9B
:103AA4001B79002B15D0049B9B7BFF2B0DD1049B12
:103AB4009B68B3F1206F08D0049B9B68B3F1A05FAF
:103AC40003D0049B1B7C002B03D006230893089B84
:103AD400EBE0059B1B680793059B1A68059B1B7904
:103AE4001946764B53F8213019461046FFF708F86B
:103AF4000346002B03D011230893089BD5E0099BB0
:103B0400039A1A60099B029A5A60049B1B7B012B3F
:103B140005D8049B1B781846FFF752FF04E0049B6A
:103B24001B781846FFF738FF049B1B7818460023C0
:103B3400019300230093002300220121FFF7C4FE18
:103B4400049B5B78FF2B09D0049B5B780B930B9849
:103B5400FFF736FF0B98FFF7E8FE02E04FF0FF3364
:103B64000B93049B9B78FF2B07D0049B9B780A93B1
:103B740001210A98FFF7EAFE02E04FF0FF330A93AF
:103B8400049B9A78099B83F82120049BDA78099B8B
:103B940083F82020049BDB78FF2B2AD0049B1B791D
:103BA400002B05D0049BDB781846FFF709FF04E0DF
:103BB400049BDB781846FFF7EFFE049BDB7818467E
:103BC400FFF7B3FE049B1B7C002B0ED0049B1A7CD6
:103BD400099B9A77049BDB781946049B1B791A4648
:103BE400049B5B7C0798FFF792FD049B1A79099B61
:103BF400DA77049B9B7BFF2B0FD0049B9B7B18469F
:103C0400FFF7CAFE049B9B7B1846FFF78EFE049BBE
:103C14009B7B19460798FFF791FD049BDB7B1946B4
:103C24000798FFF795FD049B1B7819460A9B0B9A8E
:103C34000798FFF758FD049B9B6819460798FFF700
:103C440091FD049B197B049B5B7B1A460798FFF745
:103C5400B1FD049B9B7919460798FFF7DDFD079892
:103C6400FFF72FFD099B1B68002B15D0059B1B68D4
:103C74001846FFF799FC03461A46049B5B791946DC
:103C84001046FFF799FC059B1B681846FFF78CFC50
:103C940003461846FFF7B0FC099B00225A77099B9C
:103CA40001221A7700230893089B18460DB05DF88B
:103CB40004FB00BF182F02009C020020742F020096
:103CC40000B585B00190019B1B791A461346DB00B1
:103CD40013449B002E4A13440393039B1B7F002B26
:103CE40004D12C494FF4AE70FCF7BDFE039B1B6856
:103CF400002B08D0019B1B681846FFF755FC0346B0
:103D04001846FFF787FC019B1B680293039B1B6803
:103D1400002B1BD020490298FFF7C9FC039B5B7F53
:103D2400DBB2002B12D014210298FFF781FC00BFF4
:103D34004FF482710298FFF79EFC034683F001035F
:103D4400DBB2002BF4D1039B00225A77039B93F838
:103D54002130FF2B05D0039B93F821301846FFF741
:103D64000AFE0298FFF7B6FC029B0C4A934202D16A
:103D74000B4B01221A60019B1B681846FEF7FAFEE2
:103D8400039B00221A7700BF05B05DF804FB00BF57
:103D94009C020020182F02005201080000F002408B
:103DA40004F0024000B583B00190019B93F82030E9
:103DB400FF2B17D0019B9B7F83F00103DBB2002B09
:103DC40010D0019BDB7F002B06D0019B93F82030A1
:103DD4001846FFF7F5FD05E0019B93F820301846DF
:103DE400FFF7DAFD019B00225A77019B00221A7229
:103DF400019B1B68019A02F10800019A526811465E
:103E0400984700BF03B05DF804FB00B583B0019090
:103E14000B468DF803309DF8033083F00103DBB2C9
:103E2400002B04D040210198FFF741FC03E040211E
:103E34000198FFF732FC00BF03B05DF804FB00B546
:103E440083B001900091009B03F00103002B03D089
:103E54000198FFF7EEFC02E00198FFF7F3FC009BEA
:103E640003F00203002B03D00198FFF7F4FC02E0F7
:103E74000198FFF7F9FC00BF03B05DF804FB00B53F
:103E840087B00390029101920093019B1B68002B61
:103E94000AD0019B1B681846FFF778FB034683F0A2
:103EA4000103DBB2002B0ED1019B9B68002B11D0C8
:103EB400019B9B681846FFF769FB034683F00103E7
:103EC400DBB2002B06D0029B00225A771023059305
:103ED400059B5EE0019B1968019B5B681A46039889
:103EE400FFF74AFC019B9968019BDB681A4603981B
:103EF400FFF751FC4FF48C710398FFF7A7FB00996F
:103F04000398FFF79CFF009B03F00803002B03D1E9
:103F140010210398FFF78CFB029B1B68002B29D10F
:103F240000BF4FF48C710398FFF7A5FB034683F0A1
:103F34000103DBB2002BF4D1029B93F82030FF2B5A
:103F440024D0029B9B7F83F00103DBB2002B1DD0A6
:103F5400029BDB7F002B06D0029B93F8203018468F
:103F6400FFF72EFD12E0029B93F820301846FFF76E
:103F740013FD0BE0009B03F00403002B0CBF012393
:103F84000023DBB219460398FFF73FFF0023059394
:103F9400059B184607B05DF804FB000010B586B019
:103FA400039002910192039B1B791A461346DB008E
:103FB40013449B003F4A13440593059B1B7F002B2E
:103FC40004D13D4940F22D20FCF74DFD029B1B68B6
:103FD400002B08D1029B5B68002B04D0364940F2C9
:103FE4002E20FCF740FD029B9B68002B08D1029B0E
:103FF400DB68002B04D0304940F22F20FCF733FD5E
:10400400039B1B79002B09D1029BDB68B3F5803F2E
:1040140004D2029B5B68B3F5803F04D326494FF476
:104024000C70FCF720FD00230493059B5B7FDBB23F
:10403400002B03D011230493049B38E0059B1B68D9
:10404400002B07D0019B03F01403002B02D1059B26
:1040540001225A77059B029A03F10C0413460FCBF5
:1040640084E80F00059B93F82030FF2B17D0059BA5
:104074009B7F83F00103DBB2002B10D0059BDB7F19
:10408400002B06D0059B93F820301846FFF784FCDC
:1040940005E0059B93F820301846FFF791FC039B3D
:1040A4001868019B029A0599FFF7E9FE0346184632
:1040B40006B010BD9C020020182F020000B583B08A
:1040C400019000914FF48C710198FFF7D4FA0346E4
:1040D400002B10D04FF48C710198FFF7B7FA009BB6
:1040E4001B68002B04D1064940F29720FCF7BBFC67
:1040F4000098FFF757FE00BF03B05DF804FB00BF54
:10410400182F020008B503490348FFF7D7FF00BF83
:1041140008BD00BF9C02002000F0024082B00346AC
:104124008DF807309DF90730002B0CDB9DF8073024
:1041340003F01F0205499DF907305B09012000FACD
:1041440002F241F8232000BF02B0704700E100E012
:1041540082B003468DF807309DF90730002B13DB3E
:104164009DF8073003F01F0209499DF907305B09E8
:10417400012000FA02F2203341F82320BFF34F8FCD
:1041840000BFBFF36F8F00BF00BF02B0704700BF16
:1041940000E100E082B0034600918DF807309DF9FC
:1041A4000730002B0ADB009BDAB20C499DF907307B
:1041B4005201D2B20B4483F800230BE0009BDAB225
:1041C40007499DF8073003F00F03043B5201D2B2B4
:1041D4000B441A7600BF02B0704700BF00E100E054
:1041E40000ED00E082B00190019B1B0B5BB218460E
:1041F40002B0704700B583B003460A468DF8073015
:1042040013468DF806309DF80630072B03D908496C
:104214006B20FCF728FC9DF806209DF90730114619
:104224001846FFF7B7FF00BF03B05DF804FB00BFFB
:10423400782F020000B583B003468DF807309DF94E
:1042440007301846FFF76AFF00BF03B05DF804FBB0
:1042540000B583B003468DF807309DF90730184642
:10426400FFF776FF00BF03B05DF804FB84B0019054
:104274000B46ADF80230BDF80230019A1344002217
:104284001A60BDF80230019A13441B680393039B20
:1042940000BF04B0704782B001900B46ADF8023005
:1042A400BDF80230019A13441B68002B14BF01238C
:1042B4000023DBB2184602B0704782B0019000912F
:1042C400019B009AC3F8042300BF02B0704782B078
:1042D40001900091019BD3F80423009B1340002B11
:1042E40014BF01230023DBB2184602B0704782B02A
:1042F40001900091019B009AC3F8082300BF02B00B
:10430400704784B00190019BD3F880340393019BE0
:10431400039AC3F88024039B184604B0704782B004
:104324000190019B0422C3F8002500BF02B070472E
:1043340082B00190019B0022C3F8002500BF02B0A7
:10434400704784B0039002910192039B019AC3F8D1
:104354001425039B029AC3F80C2500BF04B07047D0
:1043640000B583B001904FF0FF324FF0FF31019858
:10437400FFF7E7FF00BF03B05DF804FB82B00190D4
:10438400019BD3F80C35184602B0704782B00190F7
:10439400019BD3F81435184602B0704782B00190DF
:1043A400019BD3F80835184602B0704782B00190DB
:1043B400019BD3F81035184602B0704784B00390BF
:1043C40002910192039B029AC3F80825039B019A68
:1043D400C3F8102500BF04B0704700B583B0019046
:1043E4004FF0FF324FF0FF310198FFF7E7FF00BFB6
:1043F40003B05DF804FB82B00190019BD3F818353B
:10440400DBB2184602B0704782B001900B468DF8BB
:1044140003309DF80320019BC3F81C2500BF02B0A4
:10442400704782B001900B468DF803309DF803303D
:10443400019A134401221A6000BF02B0704782B08F
:1044440001900B468DF8033013468DF802309DF829
:1044540003209DF802301343DBB21A46019BC3F8D4
:104464006C2500BF02B0704782B001900091019B9F
:10447400009AC3F8242500BF02B0704700B583B08A
:104484000190019B1B68184600F0A4F80346002B1A
:1044940004D10B494FF4F670FCF7E5FA019B1B6855
:1044A4001F2B02D84FF0A04306E0019B1B6803F0CA
:1044B4001F02019B1A60034B184603B05DF804FB0E
:1044C400A82F02000003005000B585B001900846F3
:1044D40011461A4603468DF803300B468DF8023018
:1044E40013468DF8013001AB1846FFF7C7FF039060
:1044F4009DF803209DF802305B001A439DF80130BB
:104504009B001A439DF818301B0242EA03019DF8F0
:104514001C301B04019A1943039B02F5E07243F813
:10452400221000BF05B05DF804FB00B585B0039010
:104534000023019300230093002301220121039807
:10454400FFF7C2FF00BF05B05DF804FB00B585B0FE
:1045540003900B468DF80B309DF80B30002201922E
:1045640000220092002200210398FFF7ADFF00BF54
:1045740005B05DF804FB00B585B0039000230193FA
:10458400002300930023012200210398FFF79CFFDE
:1045940000BF05B05DF804FB00B585B0019001AB28
:1045A4001846FFF76BFF0390019B012202FA03F305
:1045B4001946039800F004F800BF05B05DF804FB49
:1045C40082B001900091019B009AC3F8082500BFB6
:1045D40002B0704784B00190019B5B0902930023F1
:1045E4000393029B002B03D0029B012B04D007E012
:1045F4004FF0FF33039303E04FF6FF73039300BFC1
:10460400019B03F01F030193039A019B22FA03F316
:1046140003F00103002B14BF01230023DBB218466F
:1046240004B0704700B583B001900091009B1B68F3
:10463400B3F1FF3F09D0009B1B681846FFF7ACFF9E
:10464400009B1B681846FFF770FF009B5B68B3F183
:10465400FF3F05D0009B5B6800211846FFF776FFFB
:10466400019B1A68009B9B6919461046FFF7FCFEE4
:10467400019B1868009B597D009B1B7D1A46FFF720
:10468400DEFE019B1868009B1968009B5B681A4654
:10469400FFF757FE009B1B7D012B22D1009B9B68DB
:1046A400B3F1FF3F05D0009B9B6800211846FFF73C
:1046B4004DFF009BDB68B3F1FF3F09D0009BDB6833
:1046C4001846FFF769FF009BDB681846FFF72DFFCC
:1046D400019B1868009BD968009B9B681A46FFF7EA
:1046E4006DFE00BF03B05DF804FB000000B583B0AD
:1046F40001900B468DF80330019B1B684FF48E71BB
:104704001846FFF7B3FD019B1B684FF4A2711846CE
:10471400FFF7ACFD019B1B680E491846FFF7CDFD62
:10472400019B1B681846FFF75DFD03461A469DF87A
:10473400033019461046FFF75DFD019B1B681846C0
:10474400FFF750FD03461846FFF774FD00BF03B0A2
:104754005DF804FB8000020000B583B00190019B6A
:104764001B6808491846FFF7C2FD019B1B681846E1
:10477400FFF738FD03461846FFF76AFD00BF03B094
:104784005DF804FB8402020000B587B00190019B30
:104794001B681846FFF7F2FD0590019B1B6818463D
:1047A400FFF7F4FD0490019B1B681846FFF7F6FD24
:1047B4000390019B1B681846FFF7F8FD0290019BCC
:1047C4001B681846FFF7CCFD019B1B681846FFF7D2
:1047D40004FE059BB3F1FF3F02D00598FFF7CBFE23
:1047E400049BB3F1FF3F02D00498FFF7C4FE029B81
:1047F400B3F1FF3F02D00298FFF7BDFE039BB3F174
:10480400FF3F02D00398FFF7B6FE00BF07B05DF884
:1048140004FB000000B587B0039002910192029B53
:10482400002B03D12D49AA20FCF71DF9039B1B790A
:104834001A462C2302FB03F3294A1344059300234D
:104844000493059B93F82A30002B03D00823049388
:10485400049B3EE0039B1A68039B1B791946214B7A
:1048640053F8213019461046FEF74AF90346002B47
:1048740003D011230493049B2BE002990398FFF7C0
:10488400D1FE059B019A5A60029B1A69059B1A6026
:10489400059B5B68002B05D0029B1B7F1946039880
:1048A400FFF724FF039B1B681846FFF738FD059BA1
:1048B40000229A61059B0022DA61059B002283F89D
:1048C4002920059B00225A61059B012283F82A2096
:1048D400049B184607B05DF804FB00BFD82F020004
:1048E400C00200203430020000B585B00190019B65
:1048F4001B791A462C2302FB03F3114A1344039336
:10490400019B1B681846FFF713FD039B5B68002B94
:1049140002D00198FFF720FF0198FFF735FF019BB4
:104924001B681846FEF726F9039B002283F82A2009
:10493400039B00225A6000BF05B05DF804FB00BF72
:10494400C002002000B585B0019000914FF48E7133
:104954000198FFF78BFC009B9A68009B1B6A134429
:104964001B788DF80F30009B1B6A5A1C009B1A623F
:104974009DF80F3019460198FFF746FD00BF05B0BA
:104984005DF804FB00B585B001900091009B5B6964
:10499400039316E0009B93F82830DBB2002B01D080
:1049A400002314E04FF48E710198FFF774FC034662
:1049B40083F00103DBB2002BECD100990198FFF7DF
:1049C400C1FF009B1B6A039A9A42EBD80123184645
:1049D40005B05DF804FB000000B587B003900291B8
:1049E4000192039B1B791A462C2302FB03F33C4AD6
:1049F40013440493049B93F82A30012B04D03949BF
:104A04004FF48C70FCF72FF8029B002B04D135492E
:104A140040F21910FCF727F8019B002B04D131490F
:104A24004FF48D70FCF71FF8039800F05DF803460F
:104A3400002B03D011230593059B4CE0049B019AA2
:104A44005A61049B029A9A60049B00221A62049B96
:104A5400002283F8282000230593039B1B684FF44E
:104A64008E711846FFF702FC039B1B680821184649
:104A7400FFF7D7FC039B1B6804991846FFF762FFF6
:104A8400049B5B68002B25D1039B1B680499184683
:104A9400FFF778FF034683F00103DBB2002B02D05B
:104AA4000F23059313E000BF039B1B684FF48E7123
:104AB4001846FFF7F0FB034683F00103DBB2002B3B
:104AC400F2D1039B1B680C211846FFF7AAFC049B38
:104AD40000225A61059B184607B05DF804FB00BF2D
:104AE400C0020020D82F020082B00190019B1B79E4
:104AF4001946074A2C2301FB03F3134414331B68A0
:104B0400002B14BF01230023DBB2184602B0704708
:104B1400C002002000B583B00190019B1B684FF4D4
:104B240092711846FFF7A2FB019B1B684FF4847136
:104B34001846FFF79BFB019B1B6800211846FFF7F3
:104B440070FC00BF03B05DF804FB10B582B00190A7
:104B54000091009B9B69002B08D14FF4847101984C
:104B6400FFF784FB0198FFF746FC13E04FF48471D0
:104B74000198FFF77BFB009BDA68009B5B6AD41803
:104B84000198FFF738FC03462370009B5B6A5A1CAC
:104B9400009B5A6202B010BD00B589B00390029127
:104BA4000192039B1B791A462C2302FB03F37F4AD1
:104BB40013440693039B1B7919467C4A2C2301FB5F
:104BC40003F313442A331B78012B04D078494FF4A0
:104BD400B670FBF748FF029B002B04D1744940F2E6
:104BE4006D10FBF740FF019B002B04D170494FF47B
:104BF400B770FBF738FF00238DF81F30069B5B6806
:104C0400002B06D0039B1B684FF401711846FFF775
:104C14006EFB069B9B69002B15D0069BDB69002B62
:104C24000ED0069B5B68002B06D0039B1B684FF4D9
:104C340001711846FFF741FB11230593059BB0E072
:104C440001238DF81F309DF81F3083F00103DBB280
:104C5400002B0CD0069B019A9A61069B029ADA609B
:104C6400069B00225A62069B0022DA6105E0069B3D
:104C7400029A1A61069B019ADA61069B93F829301D
:104C840083F00103DBB2002B09D09DF81F3083F0C1
:104C94000103DBB2002B02D00398FFF73BFF069B16
:104CA4005B68002B73D1039B1B684FF4A2711846F9
:104CB400FFF7DCFA039B1B684FF492711846FFF769
:104CC400EAFA03468DF81330039B1B684FF4847192
:104CD4001846FFF7E0FA03468DF81230039B1B6871
:104CE4004FF4A2711846FFF7D6FA03468DF8113037
:104CF4009DF8123083F00103DBB2002B0DD09DF838
:104D0400113083F00103DBB2002B06D09DF8133081
:104D140083F00103DBB2002BCCD19DF81330002BC0
:104D24000FD19DF81130002B0BD1039B1B68069902
:104D34001846FFF70AFF069B9A69069B5B6A9A422C
:104D4400B8D8069B00229A619DF81330002B03D03B
:104D540003230593059B24E09DF81130002B03D019
:104D64000F230593059B1CE0069B93F82930002B29
:104D740006D0039B1B6800211846FFF752FB0DE089
:104D8400039B1B6804211846FFF74BFB06E0039BBB
:104D94001B684FF401711846FFF78FFA002305933F
:104DA400059B184609B05DF804FB00BFC002002053
:104DB400D82F020000B589B003900291019201231B
:104DC4008DF81030029B0693019B0593039B5B684F
:104DD400039A116804AA1046984700BF09B05DF809
:104DE40004FB00B587B00190009100238DF80830D2
:104DF400009B0493019B9B680393019B00225A61CF
:104E0400019B5B68019A116802AA1046984700BF8B
:104E140007B05DF804FB00B58BB0019000914FF42E
:104E240000710198FFF753FA0346002B39D04FF471
:104E340092710198FFF72FFA0346002B31D04FF4FB
:104E440092710198FFF712FA4FF401710198FFF77C
:104E54004EFA009B93F8293083F00103DBB2002B58
:104E640003D004210198FFF7DCFA02238DF80C30FB
:104E74000198FFF746FA03460693009B9B69059346
:104E8400009BDB680493009B00229A61009B002234
:104E9400DA61009B5B68009A116803AA1046984780
:104EA40052E004210198FFF712FA0346002B4BD07D
:104EB4004FF484710198FFF7EEF90346002B43D0B9
:104EC40000990198FFF741FE009B9A69009B5B6A79
:104ED4009A4239D1009BDB69002B19D0009BDB6817
:104EE4000993009B5B6A0893009BDA69009B9A61B3
:104EF400009B1A69009BDA60009B0022DA61009B28
:104F040000225A62099A08990098FFF753FF1BE0A0
:104F1400009B93F8293083F00103DBB2002B03D00C
:104F240004210198FFF77DFA4FF401710198FFF70E
:104F3400DEF9009B00229A61009B596A009BDB68A2
:104F44001A460098FFF736FF4FF48E710198FFF769
:104F5400A2F90346002B24D0009B5B690793009BB6
:104F64001B6A079A9A420DD9009B93F82830DBB24A
:104F740083F00103DBB2002B04D000990198FFF702
:104F8400E1FC0EE04FF48E710198FFF76FF9009B7E
:104F94005B69002B05D0009B5B6919460098FFF7FD
:104FA40020FF4FF4A2710198FFF775F90346002B17
:104FB4001CD04FF4A2710198FFF758F9009B93F8A5
:104FC4002930002B03D000210198FFF72AFA009B17
:104FD4009B69002B0AD0009B00229A61009B596AAE
:104FE400009BDB681A460098FFF7E4FE00BF0BB095
:104FF4005DF804FB08B503490348FFF70CFF00BF45
:1050040008BD00BFC00200200020004082B003465B
:105014008DF807309DF90730002B0CDB9DF8073025
:1050240003F01F0205499DF907305B09012000FACE
:1050340002F241F8232000BF02B0704700E100E013
:1050440082B003468DF807309DF90730002B13DB3F
:105054009DF8073003F01F0209499DF907305B09E9
:10506400012000FA02F2203341F82320BFF34F8FCE
:1050740000BFBFF36F8F00BF00BF02B0704700BF17
:1050840000E100E082B0034600918DF807309DF9FD
:105094000730002B0ADB009BDAB20C499DF907307C
:1050A4005201D2B20B4483F800230BE0009BDAB226
:1050B40007499DF8073003F00F03043B5201D2B2B5
:1050C4000B441A7600BF02B0704700BF00E100E055
:1050D40000ED00E082B00190019B03F06043B3F166
:1050E400005F0CBF01230023DBB2184602B07047F7
:1050F40082B00190019B1B0B5BB2184602B0704753
:1051040000B583B003460A468DF8073013468DF880
:1051140006309DF80630072B03D908496B20FBF7AE
:10512400A2FC9DF806209DF9073011461846FFF7AA
:10513400A9FF00BF03B05DF804FB00BF38300200D4
:1051440000B583B003468DF807309DF90730184643
:10515400FFF75CFF00BF03B05DF804FB00B583B04C
:1051640003468DF807309DF907301846FFF768FFAE
:1051740000BF03B05DF804FB84B001900B46ADF8AA
:105184000230BDF80230019A134400221A60BDF8BF
:105194000230019A13441B680393039B00BF04B0BD
:1051A400704782B001900B46ADF80230BDF8023072
:1051B400019A13441B68002B14BF01230023DBB2A4
:1051C400184602B0704782B001900091019BD3F859
:1051D4000022009B1A43019BC3F8002200BF02B0C7
:1051E400704782B001900091019BD3F80022009B8C
:1051F400DB431A40019BC3F8002200BF02B0704792
:1052040082B001900091019B009AC3F8042300BF6F
:1052140002B0704782B001900091019B009AC3F8DC
:10522400082300BF02B0704784B00190019BD3F8FB
:1052340080340393019B039AC3F88024039B18468C
:1052440004B0704782B00190019B0822C3F8002586
:1052540000BF02B0704782B00190019B0022C3F8E6
:10526400002500BF02B0704784B003900291019200
:10527400039B029AC3F80C25039B019AC3F81425D7
:1052840000BF04B0704700B583B001904FF0FF3207
:105294004FF0FF310198FFF7E7FF00BF03B05DF85F
:1052A40004FB82B00190019BD3F80C35184602B080
:1052B400704782B00190019BD3F81435184602B0B0
:1052C400704782B00190019BD3F80835184602B0AC
:1052D400704782B00190019BD3F81035184602B094
:1052E400704784B0039002910192039B029AC3F821
:1052F4000825039B019AC3F8102500BF04B070472A
:1053040000B583B001904FF0FF324FF0FF310198A8
:10531400FFF7E7FF00BF03B05DF804FB82B0019024
:105324000B468DF803309DF80330019A1344012293
:105334001A6000BF02B0704782B001900B468DF82E
:10534400033013468DF802309DF803209DF8023097
:105354001343DBB21A46019BC3F86C2500BF02B0AD
:10536400704782B001900091019B009AC3F82425F4
:1053740000BF02B0704784B0039002910192029A78
:10538400039BC3F84425039B019AC3F8482500BF37
:1053940004B0704782B00190019BD3F84C35184695
:1053A40002B0704784B0039002910192029A039B69
:1053B400C3F83425039B019AC3F8382500BF04B011
:1053C400704782B00190019BD3F83C35184602B077
:1053D4007047000000B583B00190019B1B6818461C
:1053E40000F0A4F80346002B04D10B494FF4F670E7
:1053F400FBF739FB019B1B681F2B02D84FF0A0431E
:1054040006E0019B1B6803F01F02019B1A60034B1B
:10541400184603B05DF804FB683002000003005036
:1054240000B585B00190084611461A4603468DF82A
:1054340003300B468DF8023013468DF8013001AB72
:105444001846FFF7C7FF03909DF803209DF802302C
:105454005B001A439DF801309B001A439DF81830F5
:105464001B0242EA03019DF81C301B04019A1943F4
:10547400039B02F5E07243F8221000BF05B05DF80B
:1054840004FB00B585B0039000230193002300932F
:105494000023012201210398FFF7C2FF00BF05B0DA
:1054A4005DF804FB00B585B003900B468DF80B3016
:1054B4009DF80B300022019200220092002200216C
:1054C4000398FFF7ADFF00BF05B05DF804FB00B51E
:1054D40085B003900023019300230093002301224D
:1054E40000210398FFF79CFF00BF05B05DF804FBA3
:1054F40000B585B0019001AB1846FFF76BFF039030
:10550400019B012202FA03F31946039800F004F800
:1055140000BF05B05DF804FB82B001900091019BCF
:10552400009AC3F8082500BF02B0704784B0019008
:10553400019B5B09029300230393029B002B03D07E
:10554400029B012B04D007E04FF0FF33039303E0E9
:105554004FF6FF73039300BF019B03F01F030193F6
:10556400039A019B22FA03F303F00103002B14BFF7
:1055740001230023DBB2184604B0704700B583B0A2
:1055840001900091009B1B68B3F1FF3F09D0009B81
:105594001B681846FFF7ACFF009B1B681846FFF713
:1055A40070FF009B5B68B3F1FF3F05D0009B5B6815
:1055B40000211846FFF776FF019B1A68009B9B6940
:1055C40019461046FFF7CDFE019B1868009B597DD4
:1055D400009B1B7D1A46FFF7AFFE019B1868009BDA
:1055E4001968009B5B681A46FFF73EFE009B1B7D13
:1055F400012B22D1009B9B68B3F1FF3F05D0009B98
:105604009B6800211846FFF74DFF009BDB68B3F150
:10561400FF3F09D0009BDB681846FFF769FF009B3A
:10562400DB681846FFF72DFF019B1868009BD968BB
:10563400009B9B681A46FFF754FE00BF03B05DF859
:1056440004FB000000B583B001900B468DF80330D5
:10565400019B1B684FF488711846FFF78DFD019B71
:105664001B684FF490711846FFF786FD019B1B6879
:105674004FF492711846FFF77FFD019B1B684FF4AE
:10568400A2711846FFF778FD019B1B684FF4AC71BB
:105694001846FFF771FD019B1B680F491846FFF779
:1056A400AFFD019B1B681846FFF722FD03461A460F
:1056B4009DF8033019461046FFF722FD019B1B6835
:1056C4001846FFF715FD03461846FFF739FD00BFDE
:1056D40003B05DF804FB00BF1003420000B583B0C3
:1056E4000190019B1B6808491846FFF793FD019B35
:1056F4001B681846FFF7FCFC03461846FFF72EFD0F
:1057040000BF03B05DF804FB1003420000B587B08E
:105714000190019B1B681846FFF7C3FD0590019B90
:105724001B681846FFF7C5FD0490019B1B681846CB
:10573400FFF7C7FD0390019B1B681846FFF7C9FDDF
:105744000290019B1B681846FFF79DFD019B1B6897
:105754001846FFF7D5FD059BB3F1FF3F02D005982E
:10576400FFF7B5FE049BB3F1FF3F02D00498FFF7A7
:10577400AEFE029BB3F1FF3F02D00298FFF7A7FEF3
:10578400039BB3F1FF3F02D00398FFF7A0FE00BFD5
:1057940007B05DF804FB000000B587B003900291E8
:1057A4000192029B002B03D12B49CF20FBF75BF91D
:1057B400039B1B791A461346DB0013449B00274ABC
:1057C4001344059300230493059B93F82030002B86
:1057D40003D008230493049B3AE0039B1A68039BB9
:1057E4001B7919461E4B53F8213019461046FDF714
:1057F40087F90346002B03D011230493049B27E06D
:1058040002990398FFF7BAFE059B019A5A60029B1E
:105814001A69059B1A60059B5B68002B05D0029BE7
:105824001B7F19460398FFF70DFF039B1B6818465F
:10583400FFF708FD059B00229A61059B0022DA61AF
:10584400059B00225A61059B012283F82020049BBA
:10585400184607B05DF804FB98300200EC02002003
:10586400F430020000B585B00190019B1B791A4603
:105874001346DB0013449B002A4A13440393019B01
:105884001B680293039B5B68002B02D00198FFF70F
:1058940025FF20210298FFF7A4FC039B9B69002BA2
:1058A40008D04FF4A2710298FFF766FC0421029815
:1058B400FFF734FD4FF4AC710298FFF75DFC0C2147
:1058C4000298FFF72BFD00BF4FF4AC710298FFF76D
:1058D40068FC034683F00103DBB2002BF4D1039B85
:1058E4009B69002B0AD04FF4A2710298FFF759FC70
:1058F400034683F00103DBB2002BE5D10298FFF7E6
:10590400AAFC0198FFF702FF0298FDF733F9039B05
:10591400002283F82020039B00225A6000BF05B0B8
:105924005DF804FBEC02002000B589B003900291FD
:105934000192039B1B791A461346DB0013449B0018
:105944005B4A13440693069B93F82030012B04D042
:10595400584940F25310FBF786F8029B002B04D100
:1059640054494FF4AA70FBF77EF8019B002B04D135
:10597400504940F25510FBF776F8039B1B79002B36
:1059840003D1019BB3F5803F0CD3039B1B79012BFF
:1059940003D1019BB3F5803F04D346494FF4AB7068
:1059A400FBF761F80298FFF795FB034683F00103C8
:1059B400DBB2002B03D010230793079B73E00398FB
:1059C40000F07AF80346002B03D011230793079BBA
:1059D40069E0069B019A5A61069B029A9A60002329
:1059E4000793039B1B684FF490711846FFF7C4FBA1
:1059F400039B1B684FF4AC711846FFF7BDFB039B78
:105A04001868069B9968069B5B691A46FFF7B3FC06
:105A1400039B1B6808211846FFF780FC069B5B6804
:105A2400002B3FD1039B1B684FF490711846FFF77E
:105A3400B8FB03468DF81730039B1B684FF4AC7119
:105A44001846FFF7AEFB03468DF816309DF8173065
:105A540083F00103DBB2002B06D09DF8163083F0EF
:105A64000103DBB2002BDDD19DF81630002B02D0F0
:105A74000F23079313E0039B1B680C211846FFF7C1
:105A84004DFC00BF039B1B684FF4AC711846FFF735
:105A940088FB034683F00103DBB2002BF2D1069BA3
:105AA40000225A61079B184609B05DF804FB00BF49
:105AB400EC0200209830020082B00190019B1B7917
:105AC4001946084A0B46DB000B449B00134414336D
:105AD4001B68002B14BF01230023DBB2184602B05D
