:10000000007E0020EDE9010069370300C1E901002D
:10001000C1E90100C1E90100C1E9010000000000DF
:10002000000000000000000000000000F1E20100FC
:10003000C1E90100000000009DE20100C1E90100EA
:10004000A1E30100C35A0300A1E30100A1E3010001
:10005000A1E30100A1E30100A1E30100A1E301008C
:10006000715A0300019B0200A1E30100A95A030099
:10007000A1E30100A1E30100A1E30100A1E301006C
:10008000A1E30100A1E30100A1E30100A1E301005C
:10009000A1E30100A1E30100A1E30100A1E301004C
:1000A000A1E30100A1E30100A1E30100A1E301003C
:1000B000A1E30100A1E30100A1E30100A1E301002C
:1000C000A1E30100A1E30100A1E30100A1E301001C
:1000D000A1E30100A1E30100A1E30100A1E301000C
:1000E000A1E30100A1E30100A1E30100A1E30100FC
:1000F000A1E30100A1E30100A1E30100A1E30100EC
:1001000001F0FF01102A2BDB10F0070F08D010F8C8
:10011000013B013A8B422DD010F0070F42B3F6D1CC
:10012000F0B441EA012141EA014122F007047FF0E5
:1001300000070023F0E80256083C85EA010586EA3C
:10014000010685FA47F5A3FA87F586FA47F6A5FA78
:1001500087F68EB9EED1F0BC01F0FF0102F0070284
:1001600032B110F8013B013A83EA010313B1F8D12F
:100170000020704701387047002D06BF3546033810
:10018000073815F0010F07D1013015F4807F02BF49
:10019000013015F4C03F0130F0BC0138704700BF9A
:1001A00081F0004102E000BF83F0004330B54FEA28
:1001B00041044FEA430594EA050F08BF90EA020F95
:1001C0001FBF54EA000C55EA020C7FEA645C7FEA28
:1001D000655C00F0E2804FEA5454D4EB5555B8BF4B
:1001E0006D420CDD2C4480EA020281EA030382EABC
:1001F000000083EA010180EA020281EA0303362D4E
:1002000088BF30BD11F0004F4FEA01314FF4801C20
:100210004CEA113102D0404261EB410113F0004F32
:100220004FEA03334CEA133302D0524263EB4303E9
:1002300094EA050F00F0A780A4F10104D5F1200E87
:100240000DDB02FA0EFC22FA05F2801841F10001E2
:1002500003FA0EF2801843FA05F359410EE0A5F1B6
:1002600020050EF1200E012A03FA0EFC28BF4CF0E7
:10027000020C43FA05F3C01851EBE37101F000459D
:1002800007D54FF0000EDCF1000C7EEB00006EEBAA
:100290000101B1F5801F1BD3B1F5001F0CD3490834
:1002A0005FEA30004FEA3C0C04F101044FEA44528B
:1002B00012F5800F80F09A80BCF1004F08BF5FEA12
:1002C000500C50F1000041EB045141EA050130BDF2
:1002D0005FEA4C0C404141EB0101013C28BFB1F504
:1002E000801FE9D291F0000F04BF01460020B1FA4F
:1002F00081F308BF2033A3F10B03B3F120020CDA22
:100300000C3208DD02F1140CC2F10C0201FA0CF0FF
:1003100021FA02F10CE002F11402D8BFC2F1200C64
:1003200001FA02F120FA0CFCDCBF41EA0C0190401A
:10033000E41AA2BF01EB0451294330BD6FEA040463
:100340001F3C1CDA0C340EDC04F11404C4F120024E
:1003500020FA04F001FA02F340EA030021FA04F360
:1003600045EA030130BDC4F10C04C4F1200220FAB7
:1003700002F001FA04F340EA0300294630BD21FAF5
:1003800004F0294630BD94F0000F83F4801306BFBB
:1003900081F480110134013D4EE77FEA645C18BFAF
:1003A0007FEA655C29D094EA050F08BF90EA020F46
:1003B00005D054EA000C04BF1946104630BD91EA3E
:1003C000030F1EBF0021002030BD5FEA545C05D141
:1003D0004000494128BF41F0004130BD14F5800480
:1003E0003CBF01F5801130BD01F0004545F0FE41F4
:1003F00041F470014FF0000030BD7FEA645C1ABF29
:10040000194610467FEA655C1CBF0B46024650EA5F
:10041000013406BF52EA033591EA030F41F400218B
:1004200030BD00BF90F0000F04BF0021704730B511
:100430004FF4806404F132044FF000054FF00001E6
:1004400050E700BF90F0000F04BF0021704730B5A7
:100450004FF4806404F1320410F0004548BF40427C
:100460004FF000013EE700BF42004FEAE2014FEAD1
:1004700031014FEA02701FBF12F07F4393F07F4FAC
:1004800081F06051704732F07F4208BF704793F0AF
:100490007F4F04BF41F40021704730B54FF46074C2
:1004A00001F0004521F000411CE700BF50EA0102C5
:1004B00008BF704730B54FF000050AE050EA01026E
:1004C00008BF704730B511F0004502D5404261EBDE
:1004D00041014FF4806404F132045FEA915C3FF41F
:1004E000D8AE4FF003025FEADC0C18BF03325FEABC
:1004F000DC0C18BF033202EBDC02C2F1200300FA6D
:1005000003FC20FA02F001FA03FE40EA0E0021FA91
:1005100002F11444BDE600BF70B54FF0FF0C4CF47F
:10052000E06C1CEA11541DBF1CEA135594EA0C0F31
:1005300095EA0C0F00F0DEF82C4481EA030621EA6C
:100540004C5123EA4C5350EA013518BF52EA0335A7
:1005500041F4801143F4801338D0A0FB02CE4FF059
:100560000005E1FB02E506F00042E0FB03E54FF089
:100570000006E1FB03569CF0000F18BF4EF0010E81
:10058000A4F1FF04B6F5007F64F5407404D25FEA7D
:100590004E0E6D4146EB060642EAC62141EA555130
:1005A0004FEAC52040EA5E504FEACE2EB4F1FD0C72
:1005B00088BFBCF5E06F1ED8BEF1004F08BF5FEAF0
:1005C000500E50F1000041EB045170BD06F00046A2
:1005D00046EA010140EA020081EA0301B4EB5C044F
:1005E000C2BFD4EB0C0541EA045170BD41F4801147
:1005F0004FF0000E013C00F3AB8014F1360FDEBF6C
:10060000002001F0004170BDC4F10004203C35DA47
:100610000C341BDC04F11404C4F1200500FA05F3CA
:1006200020FA04F001FA05F240EA020001F000426B
:1006300021F0004110EBD37021FA04F642EB0601E1
:100640005EEA430E08BF20EAD37070BDC4F10C040B
:10065000C4F1200500FA04F320FA05F001FA04F2CF
:1006600040EA020001F0004110EBD37041F10001BB
:100670005EEA430E08BF20EAD37070BDC4F12005C6
:1006800000FA05F24EEA020E20FA04F301FA05F22E
:1006900043EA020321FA04F001F0004121FA04F2D6
:1006A00020EA020000EBD3705EEA430E08BF20EAA6
:1006B000D37070BD94F0000F0FD101F000464000E0
:1006C00041EB010111F4801F08BF013CF7D041EA62
:1006D000060195F0000F18BF704703F00046520066
:1006E00043EB030313F4801F08BF013DF7D043EA37
:1006F0000603704794EA0C0F0CEA135518BF95EAED
:100700000C0F0CD050EA410618BF52EA4306D1D173
:1007100081EA030101F000414FF0000070BD50EA92
:10072000410606BF1046194652EA430619D094EA1C
:100730000C0F02D150EA013613D195EA0C0F05D106
:1007400052EA03361CBF104619460AD181EA03015A
:1007500001F0004141F0FE4141F470014FF0000012
:1007600070BD41F0FE4141F4780170BD70B54FF0AD
:10077000FF0C4CF4E06C1CEA11541DBF1CEA13552D
:1007800094EA0C0F95EA0C0F00F0A7F8A4EB05040F
:1007900081EA030E52EA03354FEA013100F0888006
:1007A0004FEA03334FF0805545EA131343EA1263CF
:1007B0004FEA022245EA111545EA10654FEA002684
:1007C0000EF000419D4208BF964244F1FD0404F53D
:1007D000407402D25B084FEA3202B61A65EB030599
:1007E0005B084FEA32024FF480104FF4002CB6EB56
:1007F000020E75EB030E22BFB61A754640EA0C00D6
:100800005B084FEA3202B6EB020E75EB030E22BF15
:10081000B61A754640EA5C005B084FEA3202B6EB56
:10082000020E75EB030E22BFB61A754640EA9C0015
:100830005B084FEA3202B6EB020E75EB030E22BFE5
:10084000B61A754640EADC0055EA060E18D04FEAA3
:10085000051545EA16754FEA06164FEAC30343EA43
:1008600052734FEAC2025FEA1C1CC0D111F4801F10
:100870000BD141EA00014FF000004FF0004CB6E709
:1008800011F4801F04BF01430020B4F1FD0C88BFA8
:10089000BCF5E06F3FF6AFAEB5EB030C04BFB6EBB3
:1008A000020C5FEA500C50F1000041EB045170BDA6
:1008B0000EF0004E4EEA113114EB5C04C2BFD4EBD3
:1008C0000C0541EA045170BD41F480114FF0000E57
:1008D000013C90E645EA060E8DE60CEA135594EAD3
:1008E0000C0F08BF95EA0C0F3FF43BAF94EA0C0FD6
:1008F0000AD150EA01347FF434AF95EA0C0F7FF44B
:1009000025AF104619462CE795EA0C0F06D152EA9E
:1009100003353FF4FDAE1046194622E750EA410682
:1009200018BF52EA43067FF4C5AE50EA41047FF493
:100930000DAF52EA43057FF4EBAE12E74FF0FF3CF8
:1009400006E000BF4FF0010C02E000BF4FF0010CC9
:100950004DF804CD4FEA410C7FEA6C5C4FEA430C42
:1009600018BF7FEA6C5C1BD001B050EA410C0CBF91
:1009700052EA430C91EA030F02BF90EA020F0020F3
:10098000704710F1000F91EA030F58BF994208BF5A
:1009900090422CBFD8176FEAE37040F00100704717
:1009A0004FEA410C7FEA6C5C02D150EA013C07D16E
:1009B0004FEA430C7FEA6C5CD6D152EA033CD3D0B9
:1009C0005DF8040B704700BF8446104662468C46B3
:1009D0001946634600E000BF01B5FFF7B7FF0028E6
:1009E00048BF10F1000F01BD4DF808EDFFF7F4FF0F
:1009F0000CBF012000205DF808FB00BF4DF808ED9A
:100A0000FFF7EAFF34BF012000205DF808FB00BFBC
:100A10004DF808EDFFF7E0FF94BF012000205DF8DE
:100A200008FB00BF4DF808EDFFF7CEFF94BF012093
:100A300000205DF808FB00BF4DF808EDFFF7C4FF8C
:100A400034BF012000205DF808FB00BF4FEA410CD5
:100A50007FEA6C5C02D150EA013C0AD14FEA430CB8
:100A60007FEA6C5C02D152EA033C02D14FF00000F5
:100A700070474FF0010070474FEA410212F5001233
:100A800015D211D56FF47873B3EB625212D94FEAD5
:100A9000C12343F0004343EA505311F0004F23FABF
:100AA00002F018BF404270474FF00000704750EA14
:100AB000013005D111F0004008BF6FF000407047D1
:100AC0004FF00000704700BF4FEA4102B2F1E0432F
:100AD00024BFB3F5001CDCF1FE5C0DD901F0004C25
:100AE0004FEAC0024CEA5070B2F1004F40EB830075
:100AF00008BF20F00100704711F0804F21D113F1A1
:100B00003872BCBF01F00040704741F480114FEAD9
:100B10005252C2F11802C2F1200C10FA0CF320FA62
:100B200002F018BF40F001004FEAC1234FEAD3237F
:100B300003FA0CFC40EA0C0023FA02F34FEA4303E9
:100B4000CCE77FEA625307D150EA01331EBF4FF072
:100B5000FE4040F44000704701F0004040F0FE408D
:100B600040F40000704700BF80F0004002E000BF8A
:100B700081F0004142001FBF5FEA410392EA030F88
:100B80007FEA226C7FEA236C6AD04FEA1262D2EBD2
:100B90001363C1BFD218414048404140B8BF5B42D7
:100BA000192B88BF704710F0004F40F4000020F070
:100BB0007F4018BF404211F0004F41F4000121F086
:100BC0007F4118BF494292EA030F3FD0A2F10102D0
:100BD00041FA03FC10EB0C00C3F1200301FA03F10E
:100BE00000F0004302D5494260EB4000B0F5000F31
:100BF00013D3B0F1807F06D340084FEA310102F1F0
:100C00000102FE2A51D2B1F1004F40EBC25008BFA1
:100C100020F0010040EA03007047490040EB00006B
:100C2000013A28BFB0F5000FEDD2B0FA80FCACF16C
:100C3000080CB2EB0C0200FA0CF0AABF00EBC25099
:100C400052421843BCBFD0401843704792F0000F87
:100C500081F4000106BF80F400000132013BB5E7DA
:100C60004FEA41037FEA226C18BF7FEA236C21D050
:100C700092EA030F04D092F0000F08BF08467047B5
:100C800090EA010F1CBF0020704712F07F4F04D183
:100C9000400028BF40F00040704712F100723CBF96
:100CA00000F50000704700F0004343F0FE4040F4C0
:100CB000000070477FEA226216BF08467FEA23637E
:100CC0000146420206BF5FEA412390EA010F40F469
:100CD000800070474FF0000304E000BF10F00043B5
:100CE00048BF40425FEA000C08BF704743F096439C
:100CF00001464FF000001CE050EA010208BF7047B7
:100D00004FF000030AE000BF50EA010208BF70473D
:100D100011F0004302D5404261EB41015FEA010C52
:100D200002BF84460146002043F0B64308BFA3F14A
:100D30008053A3F50003BCFA8CF2083AA3EBC2532C
:100D400010DB01FA02FC634400FA02FCC2F120024B
:100D5000BCF1004F20FA02F243EB020008BF20F082
:100D60000100704702F1200201FA02FCC2F12002E8
:100D700050EA4C0021FA02F243EB020008BF20EADD
:100D8000DC7070474FF0FF0C1CEAD0521EBF1CEA0B
:100D9000D15392EA0C0F93EA0C0F6FD01A4480EAF9
:100DA000010C400218BF5FEA41211ED04FF00063E2
:100DB00043EA501043EA5111A0FB01310CF000400E
:100DC000B1F5000F3EBF490041EAD3715B0040EA34
:100DD000010062F17F02FD2A1DD8B3F1004F40EB04
:100DE000C25008BF20F00100704790F0000F0CF0D7
:100DF000004C08BF49024CEA502040EA51207F3A9B
:100E0000C2BFD2F1FF0340EAC250704740F4000075
:100E10004FF00003013A5DDC12F1190FDCBF00F066
:100E200000407047C2F10002410021FA02F1C2F114
:100E3000200200FA02FC5FEA310040F1000053EAB0
:100E40004C0308BF20EADC70704792F0000F00F0FE
:100E5000004C02BF400010F4000F013AF9D040EA04
:100E60000C0093F0000F01F0004C02BF490011F498
:100E7000000F013BF9D041EA0C018FE70CEAD15396
:100E800092EA0C0F18BF93EA0C0F0AD030F0004C16
:100E900018BF31F0004CD8D180EA010000F00040CA
:100EA000704790F0000F17BF90F0004F084691F088
:100EB000000F91F0004F14D092EA0C0F01D14202C2
:100EC0000FD193EA0C0F03D14B0218BF084608D18B
:100ED00080EA010000F0004040F0FE4040F40000D5
:100EE000704740F0FE4040F4400070474FF0FF0C68
:100EF0001CEAD0521EBF1CEAD15392EA0C0F93EAAF
:100F00000C0F69D0A2EB030280EA010C49024FEA00
:100F1000402037D04FF0805343EA111143EA1013B9
:100F20000CF000408B4238BF5B0042F17D024FF471
:100F3000000C8B4224BF5B1A40EA0C00B3EB510F4C
:100F400024BFA3EB510340EA5C00B3EB910F24BF35
:100F5000A3EB910340EA9C00B3EBD10F24BFA3EBBA
:100F6000D10340EADC001B0118BF5FEA1C1CE0D182
:100F7000FD2A3FF650AF8B4240EBC25008BF20F035
:100F8000010070470CF0004C4CEA50207F32C2BF89
:100F9000D2F1FF0340EAC250704740F400004FF026
:100FA0000003013A37E792F0000F00F0004C02BF57
:100FB000400010F4000F013AF9D040EA0C0093F021
:100FC000000F01F0004C02BF490011F4000F013B7B
:100FD000F9D041EA0C0195E70CEAD15392EA0C0FE3
:100FE00008D142027FF47DAF93EA0C0F7FF470AF1B
:100FF000084676E793EA0C0F04D14B023FF44CAF5E
:1010000008466EE730F0004C18BF31F0004CCAD1F2
:1010100030F000427FF45CAF31F000437FF43CAF2E
:101020005FE700BF4FEA4002B2F1FE4F0FD34FF02F
:101030009E03B3EB12620DD94FEA002343F0004345
:1010400010F0004F23FA02F018BF404270474FF0F3
:101050000000704712F1610F01D1420205D110F07A
:10106000004008BF6FF0004070474FF0000070472D
:101070007BB972B90029BEBF00204FF0004106E0E5
:1010800008BF00281CBF6FF000414FF0FF3000F098
:1010900075B8ADF1080C6DE904CE002909DB002B11
:1010A0001ADB12F0DAFBDDF804E0DDE9022304B01C
:1010B0007047404261EB4101002B1BDB12F0CDFB7E
:1010C000DDF804E0DDE9022304B0404261EB4101B8
:1010D000524263EB43037047524263EB430312F007
:1010E000BCFBDDF804E0DDE9022304B0404261EB23
:1010F00041017047524263EB430312F0AEFBDDF84F
:1011000004E0DDE9022304B0524263EB430370477D
:1011100053B94AB9002908BF00281CBF4FF0FF315E
:101120004FF0FF3000F02AB8ADF1080C6DE904CEA5
:1011300012F093FBDDF804E0DDE9022304B0704710
:10114000D0B50C4B002206460F46FFF7E5F900F03C
:1011500017F80446FFF766F9074B0022FFF7DCF9A2
:1011600002460B4630463946FFF71EF800F008F8F5
:101170002146D0BD0000F03D0000F041704700BFA7
:101180004A0011D212F5001211D20DD56FF4787306
:10119000B3EB62520ED44FEAC12343F0004343EA5B
:1011A000505323FA02F070474FF00000704750EAA6
:1011B000013002D14FF0FF3070474FF00000704710
:1011C0002DE9F00791E8F807B2E802105B1854EB3C
:1011D0000C04B2E802104D4156EB0C06B2E80210C6
:1011E0004F4158EB0C08B2E8021059EB01095AEBD9
:1011F0000C0A80E8F80780410130BDE8F00770472D
:101200002DE9F00791E8F807B2E802105B1A74EBD9
:101210000C04B2E802108D4176EB0C06B2E8021025
:101220008F4178EB0C08B2E8021079EB01097AEBF8
:101230000C0A80E8F80780414042BDE8F00770479B
:101240002DE9F007524290E87800B1E88007174096
:10125000DB1918EA020854EB080419EA020955EBF5
:1012600009051AEA020A56EB0A0678C090E87800E7
:10127000B1E8800717407B4118EA020854EB0804E4
:1012800019EA020955EB09051AEA020A56EB0A06A1
:1012900078C080410130BDE8F00770472DE9F007C4
:1012A000524290E87800B1E880071740DB1B18EA4B
:1012B000020874EB080419EA020975EB09051AEA39
:1012C000020A76EB0A0678C090E87800B1E8800759
:1012D0001740BB4118EA020874EB080419EA020936
:1012E00075EB09051AEA020A76EB0A0678C0804116
:1012F0004042BDE8F00770472DE9F00152424FF03F
:10130000040890E8300091E8C000A31B1340E41AE1
:10131000F618EB1B1340ED1AFF1830C0C0C1B8F12E
:101320000108EED1BDE8F001704700BF00B592E8BA
:10133000DC072DE9DC07B1E8805702B4A7FB0251B6
:101340000A95A8FB020BE7FB6310E9FB62B00B9167
:10135000A8FB0351EAFB6201E7FB64B5E7FB660506
:10136000E8FB6615CDF830B0A9FB03B6EAFB6316BF
:10137000ECFB6356E8FB640BE9FB641BEAFB645B74
:10138000ECFB646B0D90ACFB0230059CEEFB6250F5
:10139000E9FB6460EAFB64B0E7FB6431E8FB64519D
:1013A000069CE8FB6461E9FB64B1EAFB64010E930F
:1013B000A7FB0432079CE7FB6462E8FB64B2E9FB2D
:1013C0006402EAFB6412049CE9FB6453EAFB646375
:1013D000089CE7FB64B3E8FB6403E9FB6413EAFBE6
:1013E00064230F955DF8049B99E80006DDF8008002
:1013F000A9FB0854EAFB68B4DDF81080ECFB680434
:10140000EEFB6814E9FB6824EAFB6834DDF804802D
:10141000EEFB6865E9FB68B5EAFB6805DDF814805A
:10142000ECFB6815EEFB6825E9FB6835EAFB6845CF
:101430000F96DDF80880AEFB0876E9FB6806EAFB4C
:101440006816DDF81880ECFB6826EEFB6836E9FBD1
:101450006846EAFB6856DDF80C80ECFB68B7EEFBEB
:101460006807E9FB6817EAFB6827DDF81C80ECFBDE
:101470006837EEFB6847E9FB6857EAFB686708B026
:1014800000BD00BF2DE9F14F87B0FFF74FFFDDF83A
:101490001C8008F1200888E8FF00FFBC87E87F086F
:1014A000BDE8F08F00B591E89857A3FB0352019572
:1014B000A3FB0401E3FB6420E3FB67100292A3FBA0
:1014C0000752E3FB6802E4FB6415E3FB6805E3FBFA
:1014D00069250391A4FB07B6E3FB6926E3FB6A5683
:1014E000E4FB670BE4FB682BE3FB6A5BE3FB6C6BE1
:1014F0000490A4FB0810E4FB6950E3FB6C60E3FB81
:101500006EB0E7FB6721E4FB6951E4FB6A61E3FB32
:101510006EB1E4FB6E010592A7FB0832E4FB6A6240
:10152000E4FB6CB2E4FB6E02E7FB6E12E7FB685370
:10153000E7FB6963E4FB6CB3E7FB6C03E7FB6E134B
:10154000E8FB6E230695A7FB0954E7FB6AB4E7FBAB
:101550006C04E8FB6C14E8FB6E24E9FB6E34E8FBDA
:101560006865E7FB6AB5E8FB6A05E8FB6C15E9FB13
:101570006C25E9FB6E35EAFB6E450796A8FB0976FC
:10158000E8FB6A06E9FB6A16E9FB6C26EAFB6C36A7
:10159000EAFB6E46ECFB6E56E8FB69B7E9FB6907B0
:1015A000E9FB6A17EAFB6A27EAFB6C37ECFB6C473E
:1015B000ECFB6E57EEFB6E6700BD00BF2DE9F14FEF
:1015C00087B0FFF76FFFDDF81C8008F1200888E87E
:1015D000FF00FFBC87E87F08BDE8F08F30B44FF014
:1015E000000310F8014B11F8015B013A84EA05048D
:1015F00043EA0403F5D1A3F101034FEAD37030BCF1
:10160000704700BF4FF0000310F8012B013943EA87
:101610000203F9D1A3F101034FEAD370704700BF71
:1016200030B411F8014B12F8015B6C4000F8014B2B
:10163000013BF6D130BC70472DE9F00791E8F8077F
:10164000B2E802105B1854EB0C04B2E802104D41F2
:1016500056EB0C06B2E802104F4158EB0C08B2E80A
:10166000021059EB01095AEB0C0A8941B3F1FF331F
:1016700074F1FF3475F1FF3576F1000677F100075C
:1016800078F1000879F101097AF1FF3A51F100018E
:101690005B184C414D4156F1000657F1000758F1D7
:1016A000000859EBD1795AEB010A80E8F807BDE848
:1016B000F00770472DE9F00791E8F807B2E802104B
:1016C0005B1A74EB0C04B2E802108D4176EB0C0649
:1016D000B2E802108F4178EB0C08B2E8021079EB07
:1016E00001097AEB0C0A89415B184C414D4156F1D6
:1016F000000657F1000758F1000859EBD1795AEB71
:10170000010A80E8F807BDE8F007704718EB040805
:1017100059EB05095AEB060A5BEB070B5FF0000C6F
:101720004CF1000C18EB050859EB06095AEB070AB7
:101730005BEB070B50EB0C005FF0000C51EB0C0166
:1017400052EB0C0263414CF1000CB8EB070879F145
:1017500000097AF1000A7BEB040BA841B141A241D8
:10176000B3416CF1000CBBEB050BB041B941AA4190
:10177000BB416CF1000C4CF001068CF0020718EB39
:10178000060859EB6C095AEB6C0A7BEB6C0B70EB9F
:101790006C0471EB6C0572EB670653EB6C076CEB3A
:1017A0006C0C18EB0C0059EB0C015AEB0C025BF1C2
:1017B000000354F1000455F1000556EBDC7657EBBD
:1017C0000C0770472DE9F14F87B0FFF7AFFDDDF84B
:1017D0001080DDF81490DDF818A0FFF797FFBDE842
:1017E000000FFFF793FF03B05DF8048B88E8FF005C
:1017F000BDE8F08F2DE9F14F87B0FFF753FEDDF81C
:101800001080DDF81490DDF818A0FFF77FFFBDE829
:10181000000FFFF77BFF03B05DF8048B88E8FF0043
:10182000BDE8F08F1FB51A4C207A8DF80100E079E1
:101830008DF80000A079ADF804006079ADF80200E1
:1018400068460BF00DFA08B1AD211CE0E06802908B
:1018500002A80BF01BFA08B1B12114E00D48006892
:10186000039003A815F0C2FD08B1B5210BE0A07EDE
:101870000BF03EFA08B1BE2105E0607E0BF032FAB3
:10188000002803D0BF21032000F05EFA1FBD000036
:10189000D0160020501E00003EB504460068C01D52
:1018A00020F007002060002000900190029008784E
:1018B0008DF8010048788DF8020088788DF80300D3
:1018C000C8788DF8040008798DF80500C87D8DF87A
:1018D0000600487F8DF80800887F8DF80900C87FD2
:1018E0008DF80A0091F820008DF80B000848407927
:1018F00010B108798DF807000AB1002000E02068D7
:10190000694601F001F92168084420603EBD0000ED
:1019100040000020F8B50446887816460D4688B188
:101920002068C01C20F003002060E97DEA786B8A03
:101930001144CAB2A97806B1002001F0EDFB21687C
:1019400008442060654FF87898B1287C88B13879D0
:1019500008B1FF2200E025222068C01C20F003000F
:101960002060297C06B1002001F05EFC216808445B
:101970002060287D90B1A87818B9F87870B1287CDB
:1019800060B12068C01D20F007002060297D06B1ED
:10199000002004F005FB21680844206050480368DB
:1019A00073B1287960B12068C01C20F0030020606A
:1019B0006A7D297906B10020984721680844206093
:1019C000484802686AB1A87D58B12068C01C20F060
:1019D00003002060A97D06B10020904721680844DB
:1019E00020604148D0F800C0BCF1000F11D0E87D64
:1019F00078B12068C01C20F003002060A97E00910F
:101A00006B7E2A7EE97D06B10020E047216808440C
:101A10002060787978B1287968B12068C01C20F0FE
:101A2000030020602A7F297906B1002001F01AFC0A
:101A300021680844206095F82100B8B12068C01DD5
:101A400020F0070020605EB195F821105FF00000E3
:101A50004FF4887212F08EFD21680844206009E07E
:101A60000DF0C2FD95F821102068F1E716B90020AD
:101A70000DF0BAFD95F8220038B32068C01D20F0A3
:101A80000700206095F8221006B10020FF2212F016
:101A900071FD276833463844C01C20F0030040F035
:101AA00004022260A97F012001F00EFC2168002EB3
:101AB0000844206010D138460DF09CFD95F82200B6
:101AC000BDE8F840FB210DF09BBD002E04D1BDE820
:101AD000F84000200DF08EBDF8BD00004000002051
:101AE0004C000020540000205000002010B528B108
:101AF0001422044916F005FF002010BD6FF01500F8
:101B000010BD0000781E00002DE9F0416FF02C069A
:101B1000002871D1474C607810B1B011BDE8F08158
:101B2000002976D06FF01500002AF7D0424B11291A
:101B30009D7879D2DFE801F078090C0F1F224A5214
:101B400069285558642D323F45001078187060E0C0
:101B5000107858705DE091780029DFD0D1780029A5
:101B6000DCD011781B29D9D351781B29D6D3106822
:101B7000C3F805004DE01068D8604AE01178DA78C3
:101B80009142CBD3997044E01178A942C6D8D9705C
:101B90003FE01178A942C1D8D9753AE011780029FF
:101BA000BCD05178F929B9D80029B7D0108818834A
:101BB000907898762DE01078D87610780BF03CFD70
:101BC00027E011780029A9D0197722E0E17811B136
:101BD00011780229A2D3107818741AE0108858825C
:101BE00017E01078187114E061790029117804D099
:101BF000002993D059750CE016E002298ED3F9E73D
:101C0000117808298AD8997503E01188FF2985D8A9
:101C1000197501220849002011F081FFB0F5803FBD
:101C200004DB6FF00B0079E7304677E70121A17004
:101C300074E7000040000020D016002010B5074CCB
:101C4000607820B10BF0D2FB207811F041FC01F05C
:101C500099FB01F071FC0020607010BD4000002075
:101C600070B50C46050002D00CB1600702D06FF0D1
:101C7000150070BD00F026F9A8B1284611F0EEFB62
:101C80000A4D00220A492870204611F048FF16F03C
:101C9000D6FA002128780BF085FBFFF7C3FD012061
:101CA0006870002070BD4FF0FF3070BD4000002014
:101CB000D016002030B589B005000CD011F076FBAD
:101CC0004FF0FF3420B111F009FAB0F5FA7F05D9D1
:101CD000204609B030BD6FF01500FAE7154C1648E4
:101CE000A56000F0B1FD00206070A070E070207170
:101CF000607101462422684616F07DFE24220F49B9
:101D0000684616F0FEFD242269460D4816F0F9FDDE
:101D1000EFF3108472B601F043FB0A4801F018FC9F
:101D200018B1CB21032000F00FF804B962B60020EF
:101D3000CFE700004000002025180000541E0000DE
:101D4000D0160020F11E00000EB572B6154A956837
:101D5000DDB1002203466E460A2403E0B0FBF4F036
:101D6000521CD2B20028F9D1B0540AE0D8B2B0FB6C
:101D7000F4F7B3FBF4F304FB1700521ED2B2303079
:101D8000B054002AF2D13046A847BFF34F8F06481F
:101D90000168064A01F4E06111430160BFF34F8F0F
:101DA00000BFFDE7400000200CED00E00400FA0554
:101DB000064810B581784078014302D04FF0FF30DB
:101DC00010BD0BF0ADF8002010BD00004000002059
:101DD000064810B581784078014302D04FF0FF30BB
:101DE00010BD0BF015FB002010BD000040000020CE
:101DF000064810B581784078014302D04FF0FF309B
:101E000010BD15F0E7FC002010BD000040000020D0
:101E1000064810B581784078014302D04FF0FF307A
:101E200010BD0BF007FB002010BD0000400000209B
:101E3000064810B581784078014302D04FF0FF305A
:101E400010BD15F00DFD002010BD00004000002069
:101E50000100000001010100001B1B030200000043
:101E60004C1D000003001F00080200000149000093
:101E70000100000000000000E07E2EC15E05852309
:101E80004615DCFA8E297D701093A5FC054A10B525
:101E9000526812B1BDE81040104792210420FFF7AC
:101EA00053FF0000F4160020054A10B5926812B1E5
:101EB000BDE81040104798210420FFF745FF0000BF
:101EC000F41600200548016829B1416819B18068FD
:101ED00008B101207047002070470000F416002070
:101EE00002490DC881E80D0000207047F41600205B
:101EF000F8B5124C0026256811E00098022802D09F
:101F000003280CD106E0206810B10020266005E00F
:101F100028210CE0206868B101202660A8476846A7
:101F200001F0DCFA0028E8D0052805D0352104208E
:101F3000FFF70AFF2D21FAE7F8BD00005800002046
:101F40002DE9FC41334E0546001D06F584773060CF
:101F5000387858B1BA783C46791C2846921C16F05D
:101F6000D0FC002020700420BDE8FC81294803F04B
:101F7000C7F80446022804D0042C07D0082C42D00D
:101F800045E02449284611F022FE40E030780A2836
:101F900002D0262815D10FE005213E2000F03EF8A2
:101FA00078B9B088ADF8000001A9684611F06EFF5D
:101FB0000028CDD0A8210CE01A213E2000F02EF8F8
:101FC00050B11449284600F04DF8B0F5817F11D387
:101FD000C7210820FFF7B8FE0F4801A9006800904C
:101FE000F088ADF80000684611F072FF0028AFD00D
:101FF000BA21EEE70028ABD0A978287800F00EF8D7
:102000000028A5D003E00349284611F00EFE204623
:10201000AAE70000001700206020000070B50C4601
:10202000054600F0B3FB002802D03E2D01D0012070
:1020300070BD122C06D106480178022902D04078E2
:102040000028F5D02046BDE8704000F0B1BB00008C
:102050002404002001494870704700002404002037
:10206000000011002DE9F84F044691F800C00D461C
:1020700000203E26A21CE31CFF274FF010094FF062
:10208000030E4FF01A0B04F10D014FF0120ABCF1D0
:10209000320F75D2DFE80CF074334B4E52FD74AD45
:1020A000B6C4FEFBFAF9F8F7F61974757492F5F4F4
:1020B000F3F274F174F0EFEEED74ECEBEAE9E8E7BB
:1020C000E6E5E4E3E2E1E0DF74DE0E20207068790B
:1020D000E070B5F80500000A20712879A070B5F805
:1020E00005008338B0F5005F03D03621C720FFF725
:1020F0002BFE7246E91D601D16F003FCFEE20C206B
:1021000020702879A0706879E070B5F80500000AA1
:102110002071E8796071287AA0712889000AE0713D
:10212000A87A20726889000A607208207FE284F829
:10213000009001E084F800B028793AE1267002208E
:10214000A07015F8040FE070A87A207168786071AB
:10215000D5F80200C4F80600E8886081287A207368
:102160002E7A1F2E00D31F260846324605F10B019A
:1021700016F0C7FB0D36697AA155761EF0B254E20F
:1021800058E226700B20A0702879E07068792071E1
:10219000A8796071D5F80700C4F80600B5F80B00FF
:1021A0006081687B2073D5F80E00C4F80D00688A42
:1021B000A4F81100287DE074504638E2292000F090
:1021C000F7FA48B126702920A0702122291DE01CB1
:1021D00016F097FB22202AE20A2000F0E9FA0028F4
:1021E0002946204602D011F080FD1EE211F054FD78
:1021F0001BE226701420A0702879E070A888000ADD
:10220000207157E13E20207004201070686818602B
:10221000A8685860A8891881A87B98720C2006E2EB
:10222000267084F802E02879E070A8792071E888A7
:10223000000A6071287AA0712889000AE071A87AE2
:1022400020726889000A6072287BA072A889000A3F
:10225000E07245E254E227E208E233E242E2FAE1C8
:10226000EAE1C5E1B9E1EFE1A5E14EE124E11BE1DD
:102270000DE1F5E0F1E0E9E0BFE0ADE097E09BE0E3
:1022800042E03EE053E04DE031E025E018E015E0AB
:1022900000E055E026700520A0702879E070A8883D
:1022A000000A2071D5F80600C4F80500D5F80A0028
:1022B000C4F80900E889A4F80D0036E2112037E0DF
:1022C000052020702879A0706879E070B5F80500C5
:1022D000000A2071E879C6E1082020702879A070F2
:1022E000A879E070E888000A2071287ABBE13020E4
:1022F00020702879A070A879E070E888000A207121
:10230000A0E126700720B3E126700C20A070287988
:10231000E070A8792071E888000A6071287AA071BD
:10232000687A56E0291D204600F002FA7DE1572028
:1023300020702879A070A888000AE070022076E159
:1023400026700D22A2702A79E270EA89A2806A7949
:10235000A271D5F80620C4F807206A89A4F80B20DA
:102360002A7C20466273291D6A7C82738A7BC27331
:102370008A7E02744A7A4274B1F81120ADF80020C6
:102380004282CA7C02754A69C0F815200A8BA0F8FF
:1023900019200A7AC2760D7AE52D00D3E5252A4662
:1023A0001C301C3116F0ADFA1A35E8B23DE126704A
:1023B0001120A07001203AE1267084F802A028794B
:1023C000E07068792071A8796071E888000AA071CE
:1023D000287AE07106202AE12670242000F0E8F92E
:1023E00008B124205DE00E20A0700F263246291D82
:1023F000E01C16F086FA701C17E12670252000F00C
:10240000D7F940B12520A0700A263246291DE01CCC
:1024100016F077FA0FE00F20A070A988A4F8031037
:10242000A9796171E979A171297AE171297B217218
:10243000697B61720726A0196A7B05F10E01C01C39
:1024400016F05FFA687B761C3044EEE0267084F864
:102450000290A888A4F80300F4E02670202025E16B
:1024600026702120A0702879E07068792071B5F875
:102470000500000A6071E879A071287AE071687A35
:102480002072A87A6072E87AA0720920CFE02670E4
:10249000262000F08DF918B12620A0701726A5E798
:1024A0001820A0701326A1E726702720A070A88806
:1024B000A4F80300A879D6E026702820A0706968E7
:1024C000002604F10308C4F80310304615E000BFED
:1024D00008EB0600A919071D51F8080F3860888815
:1024E000B8807A79B81D891D16F00BFA7879B61D77
:1024F000304486B209F10100C0B298F80310814659
:102500004945E5D8761DB0B28FE026701920A0703D
:102510002879E07068792071B5F80500000A6071CB
:10252000E888000AA071D5F80600000CE071D5F823
:102530000600000E2072B5F80900000A6072D5F896
:102540000900000CA072D5F80900000EE072A889FD
:10255000000A2073E868000C6073E868000EA0733E
:10256000B5F80F00000AE073D5F80F00000C2074D6
:10257000D5F80F00000E6074E87CA074287DE0742C
:10258000687D2075A87D6075E87DA075287EE07562
:10259000687E2076A87E6076688B000AA076287F09
:1025A000E076A88B000A2077A87F6077E88B000A86
:1025B000A0771D203BE0267084F802B02879E070F7
:1025C000A888000A2071A8796071E888000AA071C3
:1025D000287AE071687A207290E018463E232370D2
:1025E00022231370291D132216F08BF914201EE0EC
:1025F0003E2020701D2010701E462D1D0E222946E3
:10260000304616F07EF90021084609E005EB40024D
:1026100006EB4003891CD289401CDA8189B2C0B222
:102620006A7B8242F2D80F3188B2002802D06070F3
:10263000801C80B2BDE8F88F3E2020701E201070F4
:10264000A88818800320F2E73E2020701F20107019
:102650006868186034E02770A120A0702879E070C5
:1026600068792071002060710420E0E72770A220C3
:10267000A0702879E070A888000A2071A87960719C
:10268000E888000AA071287AE0712889000A20727F
:10269000A87A60726889000AA072287BE072A88913
:1026A000000A20730B20C2E72770A320A0702879AE
:1026B000E070A888000A2071A8796071E879A0719B
:1026C0000520B4E726701320A0702879E07068799F
:1026D0002071D5F80600C4F805006889A4F809003F
:1026E0000A20A4E72770A420A0702879E070A888A9
:1026F000000A2071A8796071E879A071072096E737
:1027000027708020A070A988A4F80310E988A4F895
:102710000510297AE17169892181A9896181E98995
:10272000A181297C01F00101A1730D207FE7000048
:1027300070B50A7882703AB3012A25D81323037042
:1027400000230AE001EB430400EB4305A678EE709A
:102750006488240A5B1C2C71DBB29342F2D3002301
:102760000BE000BF01EB430500EB43042E796671DB
:10277000AD882D0A5B1CA571DBB29342F2D3012117
:1027800001EB8200C0B270BD002070BD402803D2B2
:10279000401EC1B2054805E0FF2805D04038C1B24F
:1027A0000248083011F0D5BA012070475C000020C3
:1027B000401EC1B2014811F0CCBA00006C000020EC
:1027C000024902680A614068486170475C00002065
:1027D000054902680A60406842F48C220A60034A94
:1027E00010434860704700005C000020F80740027A
:1027F000024902688A604068C86070475C00002037
:1028000007484FF0FF3100220160C90C416000F120
:1028100008011F200A604A600831C1E900027047C0
:102820005C00002010B5FFF7EBFF0020FFF712FC63
:1028300014F02FFF04460348006800B1804720468B
:1028400010BD0000740000200149086070470000BE
:10285000740000202DE9F04104464FF08050D0F87C
:10286000A0701F4D1E4E103D10220021204616F074
:10287000C2F81022002104F1100016F0BCF82868FC
:10288000401C08D16868401C05D1A868401C02D1D2
:10289000E868401C07D028686A68A968EB6820616E
:1028A0006261A161E361002000F03AFF8743F8070D
:1028B00013D13068401C08D17068401C05D1B06845
:1028C000401C02D1F068401C07D032687068B168C3
:1028D000F36822606060A160E3600020BDE8F081E1
:1028E0009000001038B54FF0805104462248D1F8CE
:1028F000A010214D0268143D521C04D14268D243FD
:102900001204120C35D0C90733D001684068ADF805
:102910000000C4F80110BDF80000A4F80500A0797B
:1029200040F0C000A0712868401C0CD06868401CB2
:1029300009D0A868401C06D0E868401C03D00020DD
:1029400000F0EEFE40B110220021E01D16F053F819
:1029500001202070002038BD2A686968A868EB68EB
:10296000C4F80720C4F80B10C4F80F00C4F81330E3
:10297000EEE70020EDE70000A40000100221018036
:10298000418000210171E021417142F67E61C180E8
:102990000149816000207047C15E05852DE9F04145
:1029A0008F79DDF818E0082F01D9DB212CE0DFF862
:1029B000A4C05CF820400CB1DC2125E0CC79002CCF
:1029C00045D064001D680A346619022F01D93D46BE
:1029D00001E04FF002052E44A6F1010601D93D4663
:1029E00001E04FF00205A5F1010526EA05068D88F4
:1029F0003D44A5F10105A7F1010725EA07054FF6BA
:102A0000FF77BD4203D3E7211720FFF79DF9BEF101
:102A1000000F18D1341B4CF820402580C879A070D5
:102A20000120E070227108684FF6F072000CE0801F
:102A300008882081002003E004EB4007401C7A81D5
:102A4000CF798742F8D8C87900FB05601860BDE8E7
:102A5000F08100000C190020034951F820000028E3
:102A600000D08078704700000C19002070B5054632
:102A7000194850F8214064B3B5F5706F04D340F2A3
:102A800025211720FFF760F92946204611F0DCFCCC
:102A90000146FF2804D02046BDE8704011F0FBBC81
:102AA000A078B5FBF0F100FB1150C6B232464FF6EC
:102AB000F071204611F0DCFC0246FF2809D0B2423A
:102AC00001D00020E07029462046BDE8704011F09A
:102AD000B5BC002070BD00000C190020024609485A
:102AE00010B550F821401146204611F0ADFC0146CA
:102AF000FF2804D02046BDE8104011F0CCBC0020D7
:102B000010BD00000C1900202DE9F0410C460646CE
:102B10008978607886B00144FF2902D94FF4827128
:102B20000CE02178814202D94FF4847106E00496CA
:102B30003EB10025700706D040F219111720FFF7AB
:102B400003F90125F6E74FF000082C2241466648BC
:102B500015F051FF654F6378D7E90002B96863F358
:102B60001F6203910095CDE9010204AB424601A921
:102B70000020FFF713FFD7E90302A37894F8018040
:102B8000796963F31F6203910095CDE9010204ABFB
:102B9000424601A90120FFF701FFA178E37801EB8C
:102BA000080000F0FF08D7E90602396A63F31F62E4
:102BB00003910095CDE9010204AB002201A9022096
:102BC000FFF7ECFED7E909022379F96A63F31F6284
:102BD00003910095CDE9010204AB002201A9032075
:102BE000FFF7DCFED7E90C026379B96B63F31F6270
:102BF00003910095CDE9010204AB002201A9042054
:102C0000FFF7CCFED7E90F10A3797A6C63F31F604E
:102C10000392CDE90110A07918B10AF003FDADF8D7
:102C2000080004AB002201A905200095FFF7B6FEBD
:102C3000D7E91210E3793A6D63F31F60CDE9020220
:102C4000CDE9005104AB002201A90620FFF7A6FE42
:102C5000D7E91510237AFA6D63F31F60CDE90202FC
:102C6000CDE9005104AB002201A90720FFF796FE31
:102C7000D7E91810637ABA6E63F31F60CDE90202D8
:102C8000CDE9005104AB424601A90820FFF786FEBA
:102C9000617AA37A01EB080000F0FF08D7E91C0174
:102CA000FA6E63F31F6003910095CDE9012004AB38
:102CB000002201A90920FFF771FE7837E37A97E82F
:102CC000070063F31F610DF1040C00958CE8070009
:102CD00004AB424601A90A20FFF760FE049806B043
:102CE000801BBDE8F08100000C190020DC2D0000E5
:102CF00010B5044680790E4951F82000A8B14FF66E
:102D0000F073E179827891420FD24A1CE27100EBB4
:102D1000410252899A42F4D000EB41025289A280CA
:102D200011F0B9FB2060002010BD052010BD00008F
:102D30000C1900202DE9F04107464FF6FF7038804E
:102D4000124850F82140ECB1A5782079B0FBF5F19C
:102D500005FB110632464FF6F071204611F088FB54
:102D60000246FF280ED0A81B1044B0FBF5F105FB6E
:102D700011002179084481B239802046BDE8F04134
:102D800011F05CBB0020BDE8F08100000C190020B0
:102D90002DE9F0410746104850F8215039462846A1
:102DA00011F052FB0446FF2812D0D5F80600214648
:102DB0004FEA3046284611F06EFB01463846B047D0
:102DC00005EB44014FF6F07048810020BDE8F0812A
:102DD00043F20200FAE700000C190020956601009A
:102DE0008803080000000000AF6401001804080018
:102DF00000000000FD5A0100600108000000000012
:102E0000C1800100900008000000000045D60000CD
:102E1000A800080000000000D9810100000008009F
:102E200000000000EB8101008000080000000000AD
:102E3000BB6801007000080000000000436701004B
:102E40006001080000000000DD690100E8000800E2
:102E500000000000216A0100980008000000000046
:102E60002DE9FF4F244C064681B020689A469346D0
:102E700058B1017AB14203D9406850F8260040B1F8
:102E800043F2020005B0BDE8F08FA5211820FEF73F
:102E90005BFF1946029811F038FB804658460E99A0
:102EA00011F029FB054608EB0500001D87B22068DC
:102EB000A1463946006811F05CFA04001AD0678018
:102EC00025802946201D0E9D07465A460923009558
:102ED00011F0C5F92088414638440A23029ACDF8FA
:102EE00000A011F0BCF9D9F80000406840F8264075
:102EF0000020C7E70420C5E77800002070B5144C17
:102F000023688BB1197A814212D95A6852F820107D
:102F100071B1002542F820504A88186811F081FAF2
:102F2000216800200A7A0CE0C6211820FEF70CFF69
:102F300043F2020070BD4B6853F8203033B9401C97
:102F4000C0B28242F7D8086811F060FA002070BD64
:102F5000780000202DE9F0410D46040090464FF026
:102F6000000606D00027A00705D086211820FEF70E
:102F7000EBFE0127F7E7CDB11146002011F02AFA48
:102F80000C3000EB85068FB90A4F04F10C00AA0043
:102F90003C602572606000EB850020600021606865
:102FA00015F029FD4146386811F014FA3046BDE8A5
:102FB000F08100007800002070B5084D28680028D6
:102FC0000AD0002404E02046FFF798FF641CE4B216
:102FD0002868007AA042F6D870BD00007800002072
:102FE000094910B502460968002049B10B7A93429D
:102FF00005D9496851F82210002900D0081D10BDDC
:10300000EC211820FEF7A0FE780000200A4910B538
:1030100002460968002059B10B7A934207D94968E2
:1030200051F82210002902D031F8040B084410BDD9
:10303000FA211820FEF788FE78000020FEB506462B
:103040004418C81800210DE05EB100910191029171
:10305000E51800952560019F67609DF8087027724C
:103060002C461844521E1204120CEDD1002E11D021
:1030700000910191029108490A6800924A68019200
:10308000097A8DF8081000992160019961609DF816
:1030900008102172FEBD0000608B01002DE9F04197
:1030A0001C4E456804460022A1B101206070708862
:1030B0008308002004EB400104EB80060A830B84A4
:1030C00000FB035171602118401C0A750428F1D3DC
:1030D000BDE8F0816270002004EB40010A830A849D
:1030E00004EB80014A602118401C0A750428F3D3C0
:1030F000708811F0CFFA0746708811F0D2FA656037
:1031000020842918A1606784E560A0842161E78498
:10311000DEE700007C0000202DE9F04768B10026C2
:103120001144DFF89C80CFB2002488F8007081073A
:1031300005D04E210920FEF707FE0126F0E71F2BE0
:1031400004D84FF6FF7101EA830509E05900FF2B0F
:103150000CD903F1FF02B2EB430F00D211468DB23E
:103160004FF6FC71ED1C0D4036B109E07C22B2EB4C
:10317000430FF4D37C21F2E7C8F80400A8F802500A
:1031800007EB870104EBC10200214FF001090FE0BA
:103190005EB9D8F8044001EB810300EB020C04F89F
:1031A000339004EBC303C3F804C0491C2A44C9B2DA
:1031B000B942EDD3D21D22F00700BDE8F087000030
:1031C0007C00002070B511480024214602780CE0F4
:1031D000456801EB810315F8333023B101EB810120
:1031E00005EBC10403E0491CC9B29142F0D344B1DC
:1031F0000025A57001212046FFF750FF25702046CD
:1032000070BDA9210920FEF79FFD00007C00002071
:10321000044810B54088840811F043FA844200D372
:10322000204610BD7C0000202DE9F8430C460746DF
:1032300016462E2110460D46224611F059F88046BA
:1032400057B13846414632462B46009411F007F8F4
:1032500003484760047046704046BDE8F8830000AC
:10326000840000202DE9F8430F4604461646F72057
:10327000052111F03DF84FF6FC71C01C00EA010574
:10328000DCB1A00703D095211920FEF75DFD0D48A4
:1032900080460460858000240DE0B8F80400D8F86A
:1032A0000010F72204FB001029460523009610F0B9
:1032B000D6FF641CA4B2BC42EFD307FB05F0BDE807
:1032C000F88300008C0000207FB5054602980E466A
:1032D0001C46410701D0800703D01F214C20FEF778
:1032E00033FD4FF488722946002011F043F906FBA4
:1032F00000F10CB1002000E002A811F06BF8002CE6
:1033000003D103490D70029A4A6004B070BD0000F9
:103310009400002070B5074C05464FF48872217860
:10332000002011F027F9024629466068BDE8704088
:1033300011F077B89400002030B50D4901204860A5
:10334000821EC1F808230B4988600023C1F80032AF
:10335000C1F80823084C2360251D28608860C1F847
:1033600008232360286006490448086030BD000037
:1033700000E0004000F0004000F500400000F63F93
:1033800008F5014010B5FFF7D7FF11F063FA0349C4
:103390000148086010BD00000000F63F08F501403C
:1033A00010B5FFF7C9FF11F055FA00F087F805498D
:1033B0000348086000F0B8F8BDE8104000F0DCB841
:1033C0000000F63F08F501402DE9F84F82463848E5
:1033D00015F0A6F9DFF8D8B028B101260BF10100ED
:1033E000FF21017000E000264FF48075314C4FF052
:1033F00000082F1D01216160C4F80081C4F8048118
:10340000C4F804A52160DFF8B0901CE0D9F80000F2
:10341000C00618D50E2011F02CFAEFF310800090A2
:1034200072B603212046C4F80413294611F02EFA7F
:1034300030B93946204611F029FA08B915F007FAD3
:10344000009800B962B62946204611F01FFA28B943
:103450003946204611F01AFA0028D7D039462046BE
:1034600011F014FA0028C5D106BB9BF801108DF8A5
:103470000010009900919DF8001009B1012500E0AD
:1034800000250BF1010080F800800320C4F8080338
:10349000C4F80481C4F800810E2011F0EAF9044850
:1034A00015F055F915B11120BDE8F88F0020FBE7A4
:1034B0002604002000E0004010ED00E010B50648B2
:1034C00015F041F918B130211D20FEF73DFC0248EE
:1034D0000021417010BD00002604002070B5114984
:1034E0000A68EAB100231D4601244A68521C4A605A
:1034F000092A00D34D600E7904FA06F20E681642CE
:103500000BD0EFF3108372B60C6894430C6003B9D0
:1035100062B649680160002070BD5B1C092BE4D3D2
:10352000052070BD9C000020024800210160416020
:10353000704700009C00002010B5044C2078FF2844
:1035400003D00FF0C5FFFF20207010BD0000002049
:1035500010B5084C617809B10F2010BD0FF07EFF47
:103560002070FF2801D0002010BD73211F20FEF71E
:10357000EBFB00000000002001490020487070476C
:103580000000002005498A8E824218BF7047002043
:1035900081F832004FF6FF7088867047501A00207D
:1035A0000648074A818E5288914205D190F8320030
:1035B00000281CBF0020704701207047501A0020CF
:1035C00018040020014948807047000018040020BA
:1035D0000848094A818E5288914209D14FF6FF71FD
:1035E000818610F8321F19B1002101700120704747
:1035F00000207047501A002018040020074901F1EC
:10360000320091F83220012A04BF002070470122C5
:10361000027003480088888610467047501A0020C0
:10362000180400200749084B8A8E5B889A4206D10D
:1036300091F83220002A1EBF01600120704700204F
:1036400070470000501A00201804002009498A8E93
:10365000A2F57F43FF3B03D000210160084670477D
:1036600091F832200349012A1ABF0160012000208D
:1036700070470000501A0020014908807047000080
:10368000180400200549002081F832004FF6FF7031
:10369000888603490880488070470000501A00203F
:1036A000180400200549002081F832004FF6FF7011
:1036B000888603490880488070470000501A00201F
:1036C000180400200A4A10B1012807D00EE05078F3
:1036D00060B1D2F802000860D08804E0107828B108
:1036E00090680860908988800120704700207047AA
:1036F00028040020094A012340B1012818BF70475F
:1037000013700868906088889081704753700868CB
:10371000C2F802008888D08070470000280400208A
:10372000064910B1012803D006E0487810B903E03B
:10373000087808B101207047002070472804002055
:103740000149087770470000AA10002001488078DE
:1037500070470000A40000200148C07870470000B6
:10376000A400002070B5094C06460D46207818B11B
:10377000D0212720FEF7E8FA05490020087701212B
:10378000044811F0FEFDC4E90B6570BDA4000020E3
:10379000AA100020781000200149012048717047CC
:1037A000A40000202DE9F84FFE4DDDF828C02C784C
:1037B000002C6CD1002A1CBF002BBCF1000F66D07E
:1037C000C5F81CC0C5E90F014FF00009C5E9052384
:1037D00085F8059085F8049085F8029085F80190A9
:1037E00085F80390DFF8C083A5F80C90A5F80E903B
:1037F000D8F8040000F1A80604460AF0FDFD0AF01E
:10380000EBF894F972000AF093FE206A0BF0FCF8D2
:10381000A0690BF0EFF896F833000BF02FF998F849
:103820000000002838D004200FF038FF616941F60D
:103830004C50814228BF962003D201200BF0C2F8E1
:103840004D200AF00DFDD8F8040090F80803002878
:1038500018BF0AF0F5FC94F86F1001200AF034FB51
:10386000002808BFBDE8F88FD0480AF077FC208810
:10387000FFF7CCFB68632088FFF7B2FBA86394F8DE
:103880007B008DF800009DF8000080BB1DE040F239
:1038900045112720FEF758FA03200FF0FFFE61695B
:1038A00041F64C50814228BF962003D201200BF0F4
:1038B00089F84D200AF0D4FC94F86E1000200AF02C
:1038C00003FB0028D0D1BDE8F88F606F78B1B6F85F
:1038D0004A00B18A88420AD1B4F87810012208441B
:1038E000A6F84A0094F87A00616F0EF079FB06F1B1
:1038F0008800DFF8BCA20FC88AE80F00D6F898004D
:10390000CAF81900D6F89C00CAF81D00D8F80400BF
:10391000012700F1A80290F8C51026291EBF27290B
:1039200092F81EC0BCF1260F0BD04FF008024FF0EA
:103930000203212918BF22292ED0BCF1240F52D016
:1039400081E098F80010002990F86E1013D090F8DC
:10395000E60300287BD0082918BF042970D0082866
:1039600018BF04286CD0012918BF012857D000BF08
:103970004FF002016BE090F84203002867D008295D
:1039800018BF04295CD0082818BF042858D0012982
:1039900018BF012843D0EBE7BCF1240F23D098F8DF
:1039A0000010E9B390F86E1090F86E0110F0040F5B
:1039B00018BF10460CD0082918BF042940D0082889
:1039C00018BF04283CD0012918BF012827D0CFE711
:1039D00010F0010F18BF3846EDD110F0020F18BFDC
:1039E0001846E8D133E098F80010C9B190F86E108D
:1039F00090F86EC190F867000CEA000010F0040F18
:103A000018BF104610D0082918BF042918D008285C
:103A100018BF042814D0012918BF0128A8D100E03C
:103A200011E04FF0010112E010F0010F18BF38460D
:103A3000E9D110F0020F18BF1846E4D107E0FFE704
:103A40004FF0080103E090F86E100429F8D0A08F21
:103A500011F00C0F18BF4FF4296011F090F8218F6E
:103A6000814238BF08464F49887194F86F1011F0B1
:103A70000C0F14BF4FF42960B4F8420096F823B03D
:103A8000B4F84050082937D011F079F8BBF1000F95
:103A900004BF001D80B2854238BF2846C5B2DFF89A
:103AA00004B18BF8075001F0D9FD10B12B2D98BF50
:103AB0002B252A468BF8085098F8000000B396F89A
:103AC0002300E8B38AF81870D6E92001CAE9040196
:103AD00094F86F100120012908BF002343D0022968
:103AE00008BF01233FD0042908BF03233BD0082986
:103AF00008BF022337D027E0042111F040F8C5E7C2
:103B000096F8220058B38AF81870D6E91E01CAE95F
:103B10000401616941F64C5081422CBF0020042011
:103B200094F86E10012908BF002312D0022908BFA3
:103B300001230ED0042908BF03230AD0082900E07E
:103B400016E008BF022304D040F221410620FEF710
:103B5000FBF8FB221649CDF8009009F041FE012048
:103B600000F02EFC07E01249CDF8009009F038FE75
:103B7000012000F0C7FB0F480068032818BF0B287E
:103B80001ED0CAF85A90CAF85E90CAF86290AAF895
:103B900066900948B18A41802188018096F83310E7
:103BA00001710BE0A4000020E0000020C8450000E7
:103BB0005010002050150040AA100020BDE8F88FDA
:103BC00040F202214FF02700FEF7BEF82DE9F04148
:103BD000204D06460F461E48696A82B0406891F83B
:103BE000018000F1A80416F0020F15D0A86A48B3AE
:103BF0006A89D21C14F085FEA86A686201AA694627
:103C0000A86B10F09AFA009810F04AFA3860012276
:103C10004146A86B10F0FBF916F0010F04BF02B08B
:103C2000BDE8F081D4E92002411C42F10000C4E962
:103C30002010207E01280CBF00200120207602B039
:103C4000BDE8F08140F25C412720FEF77DF80000DE
:103C5000E0000020A40000200248C089C0F38020BA
:103C600070470000A40000200448007800281CBF12
:103C70000C2070470020024908777047A4000020FC
:103C8000AA10002038B51A48017800F13C0449B167
:103C90002178007849B102280ED040F21E21272059
:103CA000FEF752F800F08EFA0BE0012809D040F23E
:103CB0001A212720FEF748F86068D0F820030AF0A0
:103CC00063FA606890F87B108DF800109DF8001082
:103CD000002918BF38BD416F002908BF38BD90F8D2
:103CE0007A00BDE83840002211460EF079B9000094
:103CF000A400002000204870312008700548826E22
:103D00004A60C26E8A60026FCA60B0F874000882AE
:103D10007047000050100020012984BF0120704727
:103D200070B51B4C0546A169884700282CD0207926
:103D300050BB04F13C000178002908BF012D01D0DF
:103D400021B31DBB1348027812F0100F06D1E06AB0
:103D5000007810F0100F08BF012001D04FF00000D4
:103D6000A36A23B9638913B112F0100F0CD0002994
:103D70001CBF217B11F0020F03D0216AC9780229F0
:103D800004D0A189084301D0012070BD002070BD7E
:103D9000A4000020B40000202DE9F34FDFF80083D9
:103DA00083468BB0D8F804004FF0000AA8F13C0419
:103DB00000F1A8078DF814A0CDF818A02078564679
:103DC000D146022804D040F2DF412720FDF7BCFF96
:103DD000A07B10F0400F07D140206269002190477E
:103DE000E08940F04000E08197F82300BBF1000F2C
:103DF00000F0D380A0B109F02DFE09F007FE78B9DC
:103E0000606A417861B10078397EC0F3C0008842B1
:103E100006D10120607000F0D5F90DB0BDE8F08F3B
:103E2000606A41786181002908BFA66203D0A06B57
:103E300010F06CFAA062E08940F48070E081606A62
:103E4000F97D0078C0F38000884208BF4FF0010A76
:103E500047D0D8F8040006A900F1A80590F8BE00E4
:103E600000283AD002280BD1606B10F0A8F8002887
:103E70004BD0D5E91E01401C41F10001C5E91E01EE
:103E8000AE7598F8000000281CBFA87C002809D057
:103E9000AE74A289314642F01002A28162694FF0ED
:103EA00010009047687C90B16E74FFF791FB90B35F
:103EB000A289082042F00802A2816269002190478D
:103EC000D5E91E02411C42F10000C5E91E10E87D43
:103ED00001280EBFEE750120E875E08940F480608E
:103EE000E081606A397E0078C0F3C000884222D148
:103EF00001F0B4FBB8B1616AE0790A7802F003021C
:103F0000012A18BF022A0BD00DE040F2DA314FF03F
:103F10002700FDF719FF40F2F1312720FDF714FFCC
:103F20004978814203D805A800F090F903E0207990
:103F300040F01000207197F8220000283FD098F838
:103F40000010D8F8040000290CBF012200225549B6
:103F50000A76D7E91E23C1E90423416941F64C5290
:103F6000914234BF4FF0040C4FF0000C90F86E00FB
:103F7000012808BF00231CD0022808BF012318D045
:103F8000042808BF032314D0082808BF022310D038
:103F900040F221410620FDF7D7FE002818BF09F0A6
:103FA00053FDA078401CA070E08940F40070E081CF
:103FB000C1E7FB223B496046009609F011FC0C98D2
:103FC000002520B9A1780120FFF7A6FE18B10AF05C
:103FD000FFFC012502E0002000F0F2F99DF814003A
:103FE000C0B1616A48780090A06AD0B16289D21CE1
:103FF00014F087FCA06A606209AA08A9A06B10F0FF
:104000009CF8089810F04CF881460122A06B0099AA
:104010000FF0FDFFB98A2448BAF1000F13D029B17F
:104020000DE040F25C412720FDF78EFE98F800106D
:1040300029B1C188002904BF0189002903D0418921
:1040400001F101014181BBF1000F14BFC188018959
:1040500001F101011ABFC180A6700181104801F071
:104060002DFE069840B110F01BF8D8F80410401C43
:104070000672082201F09CF9B9F1000F08D0D8F8B7
:10408000041009F1080006701022484601F090F96A
:10409000002D18BF00F096F80DB0BDE8F08F0000BD
:1040A000E000002050100020AA1000202DE9F84F59
:1040B000424E8346A6F13C0570688A4600F1A8048A
:1040C0002878012804D040F26B412720FDF73CFE00
:1040D000207C00274FF0010968B12774AA8939466E
:1040E00042F00402AA816A690420904730780028CF
:1040F00018BF84F81290296A4FF00308087838EA4C
:1041000000000DD1A07DA0B9AA89022042F00202D0
:10411000AA816A699047286A007838EA000008D0C6
:10412000286A407800280EBF84F816900220A075F7
:1041300001E084F8168094F8230000282CD0317810
:104140002A7A706800290CBF0121002181F0010347
:104150001B490B76D4E9203CC1E9043C90F86F0080
:104160004FF0010C012808BF002310D0022808BF1F
:1041700001230CD0042808BF032308D0082808BF57
:10418000022304D040F221410620FDF7DDFD0C4959
:104190006046009709F024FB3AEA0B0004D00021A6
:1041A0000846FFF7B9FD18B1BDE8F84F00F00AB8AE
:1041B000BDE8F84F002000F0A5B80000E0000020A6
:1041C0005010002010B509F00BFD09F005FC114C52
:1041D00000216269E08990470F48017F99B1A0F101
:1041E0005A01D1F85A208A66D1F85E20CA66D1F801
:1041F00062200A67B1F86620A1F8742002220749FC
:104200001D3001F031F9E269217960789047002092
:10421000207010BDA4000020AA100020F53C000072
:10422000084810B50078022804D040F24921272020
:10423000FDF78AFD044901200873BDE81040FFF72F
:10424000C1BF0000A4000020AA10002070B52649BC
:10425000264C0126496801F1A805616A0A7802F036
:104260000302012A18BF022A0ED0032A23D12E747A
:10427000E289304642F40062E281A28942F0010202
:10428000A2816269904716E04978A1B1E28942F4BF
:104290000062E281A26A002A08BF70BDFB291DD816
:1042A0006179002908BF067005D06269BDE87040D9
:1042B000202000211047287E012806BF00202876F4
:1042C0002E76606A4078002808BF70BDD5E92010BE
:1042D000491C40F10000C5E9201070BD207940F074
:1042E0001000207170BD0000E0000020A40000203C
:1042F00003480078002808BF7047FFF763BF00003D
:10430000A40000202DE9F041DFF8AC800746A8F1B9
:104310003C04D8F80450E06A606295F8CB10207A2B
:1043200005F1A80600291CBF001DC0B22249002FBC
:10433000496891F86F1002BFFF2895F86E209142EE
:1043400001D00AF067FB96F82300A8B1206B0AF0B1
:10435000FBF898F8000000280CBF0120002080F036
:10436000010116480176D6E92012C0E90412216B3A
:10437000606A09F0D1FA04E0606A0AF0E5F809F031
:104380002BFB3FB995F86F0010F00C0018BF2820E8
:1043900009F030FF686941F64C51884295F86E206B
:1043A0004FF0000134BF012000200AF0A7FA0220DC
:1043B0002070BDE8F0810000E000002050100020D7
:1043C0002DE9F04FDFF8F4A183B0AAF11C09DAF867
:1043D00004504FF000088DF80080A9F1200495F8F2
:1043E000CB10227A05F1A80600291CBF111DCAB204
:1043F00072490028496891F86E1002BFFF2A95F8AB
:104400006F00884203D04FF0FF000AF003FBB07D3D
:10441000DFF8ACB1012750B1012830D0022841D0DB
:1044200003284FD040F2FB212720FDF78DFCA07917
:10443000ADF80400A5F854004846FFF7F3F8A0B122
:10444000A289216A42F08002A2816269802090479D
:104450007774D9F80000C0781B283CD14FF00101D7
:1044600005F110000AF0D0FD35E06A4601A9606B45
:104470000FF0CBFE206210B196F85D1011B1C4F8B8
:1044800020B028E09DF8001031B9A0F8008080F835
:104490000280012110F075FFBDF80410206A10F0B1
:1044A000D9FE18E0B5F85400ADF804006A4601A939
:1044B000606B0FF0AAFE206268B940F2E521272068
:1044C000FDF742FC4846FFF7ADF868B3D9F80000A5
:1044D000C0781B28C2D0206A4FF008034FF00309B0
:1044E000017801F0F7010170F27D03EAC20241EAAE
:1044F000020101F0FB010170327E4FF0040303EA78
:10450000820241EA020101F0EF01017039EA010182
:1045100004BFC078022815D0606B0FF050FE002851
:1045200018BFB84605D00DE040F2EE212720FDF778
:104530000BFC206A007839EA000003D0FFF730F85E
:1045400080F00108206A017841EA0811017096F8AC
:10455000221000291CBF4178002913D0206B09F0DC
:10456000F3FF9AF8000000280CBF01210021154834
:104570000176D6E91E12C0E90412216A206B09F007
:10458000CBF903E009F0E0FF09F026FA686941F68B
:104590004C51884295F86F204FF0010134BF012043
:1045A00000200AF0ABF9E770206A01882182807848
:1045B000A074277003B0BDE8F08F0000E000002079
:1045C000781000205010002021420000993D00008A
:1045D000AD400000F14200000246074810B50078E7
:1045E00038B10648417821B1801C09F04BF8012010
:1045F00010BD002010BD00001C040020861A002001
:1046000000487047101C002004494A78824286BF47
:10461000084490F84201002070470000861A0020EC
:1046200004494A78824286BF01EB001082300020A4
:1046300070470000861A0020054A01EB410102EB99
:1046400041010268C1F80A218088A1F80E01704773
:10465000861A002004494A78824286BF01EB001086
:10466000801C002070470000861A002010B54FF40F
:10467000C5720021054814F0BEF9054800210170FB
:1046800041704FF46171418010BD0000861A002016
:104690001C0400200B4B93F801C084459CBF0020F4
:1046A0007047184490F80201C0EBC000184490F81D
:1046B00052310B70D0F853111160B0F8570190804F
:1046C00001207047861A002010B500F039F808283C
:1046D00008BF10BD01460B4A002092F801C0BCF192
:1046E000000F0CD9131893F802318B4203D108281C
:1046F00018BF10BD03E0401CC0B28445F2D80820AA
:1047000010BD0000861A0020014840887047000054
:104710001C04002006494A78824206D9084490F8D1
:104720003A01002804BF01207047002070470000B4
:10473000861A002001494870704700001C040020C0
:104740002DE9F00F204B0246002093F80080B8F1CD
:10475000000F35D90F784E788D78CC7891F804C059
:1047600091F805A0C0EBC001194491F8529191F85D
:1047700053B182EA090987EA0B0BD94491F854B185
:1047800086EA0B0BD94491F855B185EA0B0BD94455
:1047900091F856B184EA0B0BD94491F857B191F8CE
:1047A00058118CEA0B0BD9448AEA010111EB090F6D
:1047B00004BFBDE8F00F7047401CC0B28045D1D89F
:1047C000BDE8F00F08207047861A002070B58CB045
:1047D00000F110041D4616460DF1FF3C5FF0080085
:1047E00014F8012C8CF8012014F8022D0CF8022F7B
:1047F000401EF5D101F1100C6C460DF10F0108209F
:104800001CF8012C4A701CF8022D01F8022F401EE2
:10481000F6D1204610F047F87EB16A1E04F1300050
:104820005FF0080110F8013C537010F8023D02F8E7
:10483000023F491EF6D10CB070BD08982860099857
:1048400068600A98A8600B98E8600CB070BD000022
:1048500070B50446002571B1504A012933D00229B0
:104860006BD0032918BF70BD04F1CE01BDE87040C4
:10487000CD3010F068BA4FF46272002114F0BBF82A
:10488000012284F8CD20464AC4F816210722C4F834
:104890001A2194F81621FE2122F0040284F8162130
:1048A00084F84E117F2184F8C11004F1A8003D491D
:1048B000C4F8B0100022C0F8B050C0E90022202097
:1048C00084F8290370BD60693749B2FBF0F20144F6
:1048D000B1FBF0F1C4F8EC1040F6B831A4F8F010D8
:1048E000E38BA4F8F650B4F8FAC0521C0CFB00FCA1
:1048F000BCFBF0FCA4F8FAC040F2712C03FB0CF3F3
:1049000000EB03135B1EB3FBF0F3A4F8F830A4F83C
:10491000FE20264A04F1A80100EB0212521EB2FB4F
:10492000F0F24A640A6C4243B2FBF0F00864BDE85E
:1049300070402631481E10F006BAD4F85013B4F86F
:1049400056C3636904F1A800A4F8F650B4F8FA401D
:10495000B2FBF1F25C43B4FBF1F4A0F8524040F238
:1049600071240CFB04FC01EB0C1CACF1010CBCFB36
:10497000F1FCA0F850C0521CA0F85620B0F8482016
:10498000624301EB0212521EB2FBF1F24264026C6E
:104990005A43B2FBF1F1016470BD0000005A62029B
:1049A0002F4904C400E0FCFF7FC3C901389C1C00F0
:1049B00070B501260446002571B1584A012932D04C
:1049C00002297BD0032918BF70BD04F1CE01BDE8D8
:1049D0007040CD3010F0B7B94FF48362002114F06D
:1049E0000AF884F8CD604E4AC4F816210722C4F8AC
:1049F0001A2194F81621FE2122F0040284F81621CF
:104A000084F84E117F2184F8C110464904F1A800B2
:104A1000C4F8B0100021C0F8B050C0E90011202047
:104A200084F8940370BDA4F8265384F81B5360697E
:104A30003D49B2FBF0F20144B1FBF0F1C4F8EC10D7
:104A400040F6B831A4F8F010E38BA4F8F650B4F8AF
:104A5000FAC0521C0CFB00FCBCFBF0FCA4F8FAC032
:104A600040F2712C03FB0CF300EB03135B1EB3FB52
:104A7000F0F3A4F8F830A4F8FE202C4A04F1A801C1
:104A800000EB0212521EB2FBF0F24A640A6C42437F
:104A9000B2FBF0F008642631481E10F054F913F010
:104AA000B2FE38B1A06900F0E7FE002804BF84F828
:104AB000086370BD84F8085370BDFFE7D4F8EC13A9
:104AC000B4F8F2C3636904F1A800A4F8F650B4F88E
:104AD000FA40B2FBF1F25C43B4FBF1F4A0F85240AF
:104AE00040F271240CFB04FC01EB0C1CACF1010C3A
:104AF000BCFBF1FCA0F850C0521CA0F85620B0F846
:104B00004820624301EB0212521EB2FBF1F24264F2
:104B1000026C5A43B2FBF1F1016470BD005A6202AB
:104B20002F4904C400E0FCFF7FC3C901389C1C006E
:104B30002DE9F05F044690468A464FF00109084689
:104B400010F0F9FB0546504610F0F7FB074610F051
:104B5000010F18BF01262BD015F0010F18BF4FF021
:104B6000010B30D056EA0B0008BF4FF0000908F0E7
:104B7000C7FC384208BF002608F0C2FC284208BF24
:104B80004FF0000B94F86E00B0420CBF002030468E
:104B900088F8000094F86F10594508BF4FF0000BDB
:104BA00088F801B0002808BFBBF1000F28D118E039
:104BB00010F0020F18BF0226CED117F0040F14BF59
:104BC00008260026C8E715F0020F18BF4FF0020BA9
:104BD000C8D115F0040F14BF4FF0080B4FF0000BB5
:104BE000C0E7504610F096FBB4F8BC10401A00B273
:104BF00047F6FE71884201DC002801DC4FF0000915
:104C000016B1082E10D01FE094F86E00012818BFCE
:104C1000022819D0042818BF082805D040F2D7214F
:104C20004FF00600FDF790F894F86C0101280BD1C5
:104C3000B4F87001012894F86E0008D0082803D059
:104C40005FF0080088F800004846BDE8F09F04289F
:104C500018BF0420F6D1F3E730B40022A1F1010C13
:104C6000BCF1000F12DD431E11F0010F08BF13F855
:104C7000012F5C785FEA6C0C08D000BF13F8025F6C
:104C800022435C782A43BCF1010CF7D1491E5CBF7A
:104C9000405C0243002A0CBF0120002030BC70475A
:104CA000074991F9001008441428C4BF1420704724
:104CB00010F17F0FB4BF6FF07E0040B2704700006C
:104CC00036040020024A0021117051707047000024
:104CD0003604002008B57F208DF80000684609F0F2
:104CE0007FFE002804BF9DF9000008BD9DF900105B
:104CF00007484078404240B208441428C4BF1420FA
:104D000008BD10F17F0FB4BF6FF07E0040B208BD48
:104D100036040020014890F9010070473604002055
:104D2000014A10705170704736040020014890F914
:104D3000000070473604002010B513F08BFA0749C5
:104D400091F9001008441428C4BF142010BD10F1BC
:104D50007F0FB4BF6FF07E0040B210BD360400205C
:104D6000074908B509788DF800109DF80010002952
:104D70001CBF002008BD034913F0BBFA012008BD89
:104D8000380400203904002010B5054CFF212170A3
:104D90000146601C13F0ADFA0020207010BD000029
:104DA0003804002070B581EA11418BB2C47A83EADD
:104DB0000201002201F0FF0C090A91FAA1F19CFA0C
:104DC000ACFC090E4FEA1C6C4CEA012101EB011C02
:104DD000521C0CEB0301D2B289B2032AEAD381EA56
:104DE0000302DFF888C000216346E2FB0C310909A9
:104DF0006FF0240301FB0321C9B200EBD10301F0E2
:104E0000070C5D78012303FA0CFC15EA0C0F1CBF9C
:104E1000084670BD04FB02F1090C491CC9B24FF0F1
:104E2000000C00BF00EB0C04A2798A4227BF0022CD
:104E30006478891AC9B20AD303FA02F52C421CBF5E
:104E4000491EC9B271B1521CD2B2082AF4D30CF176
:104E5000010202F0FF0CBCF1050FE3D39D214620B7
:104E6000FCF772FF02EBCC00C0B270BD53E4B36E2E
:104E700070B5044690F8300008B1252801D91220F9
:104E800070BD002A04BF002070BD94F8250010B149
:104E9000012851D048E094F8320094F831102B4B9F
:104EA00001FB020000251A462946E0FB03210909FF
:104EB0006FF0240201FB0200C0B204EBD00284F8C0
:104EC000320000F0070192F82620012303FA01F1D5
:104ED0000A421EBF84F83300284670BD94F8301093
:104EE000B0FBF1F201FB1200401CC1B25FF0000008
:104EF00004EB000C9CF82B208A4227BF00229CF870
:104F000026C0891AC9B20BD303FA02F61CEA060FAF
:104F10001CBF491EC9B249B1521CD2B2082AF3D3F0
:104F2000401CC0B20528E3D31F2070BD02EBC000B7
:104F300084F83300284670BDA28A896904F12500EF
:104F4000FFF730FF84F83300002070BD53E4B36EE8
:104F5000417841B1C0782B2803D2044A105C8842C2
:104F600001D101207047002070470000698B0100CB
:104F700010B50122C1702B293CBF064A525C06D3F2
:104F8000FF2904D040F274412A20FCF7DDFE427074
:104F900010BD0000698B01000449897D01F0040106
:104FA00008430CBF01200020704700003819002082
:104FB0000348807D10F0020F0CBF012000207047D5
:104FC000381900200348807D10F0010F0CBF01202C
:104FD000002070473819002010B5017A81B10129ED
:104FE0001CBF002010BDC288036880885FF00101EB
:104FF00000F00CF8002808BF00F06CF8012010BD8C
:10500000C288036880880221F2E700002DE9F0439E
:1050100085B0884699461546064602A90FF0E2FC7F
:1050200000284CD10398002D00F1A80404BF0120F2
:1050300084F8240043D03046FDF7E8FF07000CD089
:1050400029460FF08FF8010003D02148408885429F
:1050500007D905B00020BDE8F08367212B20FCF7BD
:1050600073FE6A4638460FF076F8009800260680F0
:10507000867094F82410002918BF4FF002084146AA
:1050800010F07FF900982A464946C01C13F039FCFD
:10509000294638460FF01BF8A8B19DF8080060B10A
:1050A000039890F81A0328B1039880F81A630398BC
:1050B00011F086F80398A0F8126384F8246005B014
:1050C0000120BDE8F0837C212B20FCF73DFE000091
:1050D00038190020084882B0007A8DF800009DF849
:1050E000000000281CBF02B07047022202B0034932
:1050F000014800F05DB9000054190020ED53010093
:105100002DE9F84FDFF85CA2974F83464FF0010876
:10511000002578682E46007A8DF8000000980090EF
:105120009DF80010102908D19AF8170028B1BAF894
:105130001800002808BFBDE8F88F28463C6914B362
:10514000217A8DF80010009900919DF80020D2B1CD
:105150000028F2D1B4B3207A8DF800009DF80090B9
:1051600004F1080005210170A9F102000F2880F068
:10517000EC80DFE800F02B3945EA7E7093704F4FEA
:10518000707070B5D9007C68227A8DF80020009A82
:1051900000929DF80030012B08BF0446D8D0EFF3F1
:1051A000108172B622687A6001B962B6217A8DF8F0
:1051B0000010009900919DF80020002A0CBF404685
:1051C0003C61C5E7FFE70020BDE8F88F626832B1B7
:1051D000594620469047042060F307068CE040F2D1
:1051E000C3111020FCF7B0FD626822B15946204679
:1051F0009047064680E04FF4E6711020FCF7A4FDCE
:10520000616811B12046884776E04FF4EB711020B9
:10521000FCF79AFD55480368002B6DD060684A463C
:10522000594600909847042060F307069BF8000059
:105230001E2805D01B285FD19BF8040000285BD0F6
:10524000009804210089FDF7A3FD18B340F2EB118B
:105250001020FCF779FD46480368C3B360684A46EE
:1052600059469847042060F30706B9F10D0F11D095
:1052700042E0626832B159462046904706F0A8FFE6
:1052800028B107E040F211211020FCF75DFD06F087
:105290006BFFE0B104203D61BDE8F88F6068B8B1F4
:1052A00004882046FDF7B2FEB0B18BF801500F2103
:1052B0008BF80010ABF80640ABF808808BF8048040
:1052C00000210EF0F7FF04203D61BDE8F88F13E0E8
:1052D000E5211020FCF738FDC5211020FCF734FD36
:1052E0008BF801501F208BF80000D4F80900CBF890
:1052F0000400042060F30706C6F30720012808BF56
:1053000084F8089027D0EFF3108072B6217A8DF8D8
:1053100000109DF80010052913BF002925723D617A
:1053200065F30706B8B915E01248026822B1606853
:1053300030B100885946904702203D61BDE8F88FA2
:105340004FF410711020FCF7FFFC40F24A211020AE
:10535000FCF7FAFC62B616F0FF0F3FF4DAAEF0B2DB
:10536000BDE8F88F3819002068190020F0000020EF
:10537000EC000020E80000200A4910B508700A4837
:10538000002141618161C16101624162122213F019
:1053900032FB0648012100F10C021170011D416031
:1053A000016010BD3E04002054190020681900203F
:1053B00038B5037A8DF800309DF8003023B140F203
:1053C000C2211020FCF7C0FCF0B1416000F10801DF
:1053D0000A70EFF3108372B6DFF844C0C0F800C063
:1053E000ACF104014A6852B1127A8DF80020009A9B
:1053F00000929DF80040012C08BFC1F800C00A6867
:105400001060086033B904E040F275211020FCF709
:105410009BFC62B603480078BDE838400EF03CB80B
:105420006C1900203E040020094810B5002141619C
:105430008161C16101624162122213F0DCFA054808
:10544000012200F10C010A70011D4160016010BDD4
:10545000541900206819002002490148086070476B
:10546000DD540000E800002038B5037A8DF80030E4
:105470009DF80030002B1CBF027238BDF0B14160B6
:1054800000F108010A70EFF3108372B6DFF844C030
:10549000C0F800C0ACF104014A6852B1127A8DF82C
:1054A0000020009A00929DF80040012C08BFC1F82E
:1054B00000C00A681060086033B904E040F275214A
:1054C0001020FCF741FC62B603480078BDE8384084
:1054D0000DF0E2BF6C1900203E04002038B50C002E
:1054E00016D0A08000216172FDF77AFD05460EF00E
:1054F00012FE010011D06A4628460EF02CFEE08014
:1055000080B1FB2813D940F223111020FCF71CFCBA
:1055100040F213111020FCF717FC4FF48E7110208D
:10552000FCF712FC40F221111020FCF70DFC009852
:105530000FF0B7FE012818BF022805D040F2331142
:105540004FF01000FCF700FC20722068B0B1009909
:10555000E288C91C13F0D5F928460EF0A3FD90B1DE
:10556000002128460EF0A6FE90B10C48C17D00290E
:1055700008BF38BD018B491E018338BD4FF49D71B2
:105580001020FCF7E1FB40F23F111020FCF7DCFBA0
:105590004FF4A2711020FCF7D7FB0000381900204F
:1055A00030B45081B1F808C0A2F80CC08B89D38107
:1055B00048891082CC895482CD8DA54204BF4C8D80
:1055C000844206D10C8E9C4202BF8B8D6345002322
:1055D00001D04FF0010313754885508AC885908922
:1055E0008885D089088630BC014910460FF0F8BE86
:1055F0008956000030B490F86E508C88B1F808C01D
:1056000015F00C0F1BD000BFB4F5296F98BF4FF4F5
:10561000296490F86F5015F00C0F17D0BCF5296F66
:1056200098BF4FF4296C4A88C988A0F84C20A0F88C
:105630005010A0F84E40A0F852C030BC7047002B6C
:105640001CBF157815F00C0FDED1E2E7002B1CBF54
:10565000527812F00C0FE1D1E5E700000148007824
:10566000704700003F0400205081888A9081C88ADA
:10567000D081088B1082488B5082024910460FF06F
:10568000ACBE0000CD56000038B5A0F11805007D75
:105690000C4600F00100FFF77FFC0021002818BF36
:1056A00000910ED1617016202070D5F82200D5F837
:1056B0002610D5F82A2060600348A160E2604068A7
:1056C0000090BDF8000038BD7058000070B586B07D
:1056D0000E460446FFF76CFC002570B3A4F5F3708A
:1056E0002572048803A9204611F047FE18B1FE2157
:1056F0002C20FCF729FBADF80040BDF81200ADF8F6
:105700000200BDF81400ADF80400BDF80E00ADF8BD
:105710000600BDF81000ADF80800684611F074FEF0
:10572000002808BF009504D040F207112C20FCF798
:105730000BFBBDF8000006B070BDFFE72E203070F7
:105740007570D4F80A007060D4F80E00B060608AFA
:10575000B081024800680090EBE70000705800003C
:1057600070B5B0F838C012F00C0F0CF1040C1FFA31
:105770008CFC4FF434751CBF05EB8C1C1FFA8CFCA1
:105780000FD1012A04BF4FEACC0C0CF1500C06D00B
:10579000022A04BF4FEA8C0C0CF12C0C60D11FFACA
:1057A0008CFC12F00C0F18BF4FF4296406D1B0F82E
:1057B0004E60B0F84A40A64238BF3446644538BF10
:1057C000A446B0F84040241DA4B213F00C0F1CBF37
:1057D00005EB8414A4B20AD1012B04BFE4005034B9
:1057E00004D0022B04BFA4002C3439D1A4B213F08E
:1057F0000C0F14BF4FF42960B0F84200A04238BF2C
:1058000004461A48007898B113F00C0F18BF4FF4F3
:10581000696012D0844228BF2046044612F00C0F63
:1058200018BF4FF4696012D0844528BF6046844693
:105830000CEB04000844801D70BD012B08BF4FF421
:10584000E470E7D0022B08BFE820E3D008E0012A8B
:1058500008BF4FF4E470E7D0022A08BFE820E3D085
:1058600040F223210620FCF76FFA00003F040020DD
:10587000040000000400000070B46FF01F02010C6F
:1058800002EA90251F23A1F5AA4054381CBFA1F5B8
:10589000AA40B0F1550009D0A1F52850AA381EBF82
:1058A000A1F52A40B0F1AA00012000D100204FF05C
:1058B000000C62464FEA0C048CEA0106F6431643DC
:1058C000B6F1FF3F11D005F001064FEA5C0C4CEA3F
:1058D000C63C03F0010652086D085B08641C42EAEE
:1058E000C632162CE8D370BC704770BC00207047DD
:1058F00010B50C4C08212046FCF7D6FA2068002889
:1059000004BF60680028F5D0074C00BF4FF00801C5
:105910002046FCF7C9FA2068002804BF6068002808
:10592000F4D010BDF4000020FC000020094A0A4811
:10593000D2E9001348434B4083EAB11181EA432185
:1059400011604FEAF0604FEAF34100EB80005160D4
:1059500070470000F4000020BB79379E094A0A48CE
:10596000D2E9001348434B4083EAB11181EA432155
:1059700011604FEAF0604FEAF34100EB80005160A4
:1059800070470000FC000020BB79379E70B5A0F185
:10599000340530F8DC6C1B480C46016800291CBF3C
:1059A000284688471848016800291CBF30468847A8
:1059B000002060700C2121702071A4F8056095F81A
:1059C0003D00E0713046FDF70BFB0EF0F4FAA8B194
:1059D0003046FDF7D7FD00213046FDF7D9F901210A
:1059E0003046FDF7D5F9002818BF70BD074800689C
:1059F000002808BF70BDBDE87040004773216320D8
:105A0000FCF7A2F9040100200C010020080100208D
:105A100070B50278002A0CBF0125002540680E1DD4
:105A200000F1A8043DB10023A27F194620460FF0E3
:105A30000EF820B105E0207B10F0010F01D001200D
:105A400070BD3168124B7068194041F60702C4F806
:105A50006E101040C4F8720094F87120012142F0D9
:105A6000080284F871200020A4F85A0025B184F8B7
:105A70005C100420A07708E094F85C00401C84F8D7
:105A80005C00E06840F00100E060002070BD0000B4
:105A90002F4904F710B5041D07F02CFD044A41F608
:105AA0000703024001EA03002260606010BD0000AD
:105AB0002F4904F72DE9F84303780746002B0CBF64
:105AC0004FF001084FF000087E6801F1040906F16B
:105AD000A80406F5DC7596F8C520072120460EF0CF
