:1000000000000420190200000102000003020000A9
:1000100005020000070200000902000000000000C5
:100020000000000000000000000000000B020000C3
:100030000D020000000000000F020000110200008D
:1000400051B001001302000081BD0100FDD8010084
:1000500015D901001302000079BC01001302000051
:10006000130200001302000013020000130200003C
:1000700013020000F9C00100130200001302000087
:10008000B9F7010061C7010013020000130200006C
:10009000130200001302000013020000130200000C
:1000A00013020000130200001302000013020000FC
:1000B0001302000013020000000000000000000016
:1000C00013020000130200001302000013020000DC
:1000D00075C70100130200001302000013020000A4
:1000E00049F70100130200001302000000000000A5
:1000F000000000001302000000000000C9D301004E
:1001000000000000000000000000000000000000EF
:1001100000000000000000000000000000000000DF
:1001200000000000000000000000000000000000CF
:1001300000000000000000000000000000000000BF
:1001400000000000000000000000000000000000AF
:10015000000000000000000000000000000000009F
:10016000000000000000000000000000000000008F
:10017000000000000000000000000000000000007F
:10018000000000000000000000000000000000006F
:10019000000000000000000000000000000000005F
:1001A000000000000000000000000000000000004F
:1001B000000000000000000000000000000000003F
:1001C000000000000000000000000000000000002F
:1001D000000000000000000000000000000000001F
:1001E000000000000000000000000000000000000F
:1001F00000000000000000000000000000000000FF
:10020000FEE7FEE7FEE7FEE7FEE7FEE7FEE7FEE7C6
:10021000FEE7FEE700F002B8FFF7FCBF0F484FF023
:100220000701884385460E4880470E48016841F41F
:1002300070010160BFF34F8FBFF36F8F00F01AB8EA
:1002400009480A490A4A884207D0521A05D0037859
:1002500001300B700131013AF9D1704700000420E0
:1002600055A5010088ED00E0D8250200000000201F
:10027000140000203A493B480A1A02D00722914351
:100280008D46394939480A1A06D00722914381F32D
:100290000988022282F3148835483649364A00F02C
:1002A00041F836483649374A00F03CF83648374975
:1002B000374A00F037F837483749384A00F032F803
:1002C00037483849384A00F02DF838483849394A13
:1002D00000F028F838483949394A00F023F83948FD
:1002E0003949002200F036F838483949002200F038
:1002F00031F838483849091A22F057F8374A9047F8
:1003000025482649884205D00268043003B4904746
:1003100003BCF7E700208646EC4600200021304A67
:100320009047FEE7884214D0521A12D003460B437E
:1003300013430324234206D1036804300B600431C5
:10034000043AF9D17047037801300B700131013A5A
:10035000F9D17047884202D002700130FAE7704745
:100360000000042000E0032000000420000004201E
:10037000C8AA02001400002048010020E403000085
:10038000E4030000C4250200C8AA020014000020F3
:1003900014000020EC250200EC250200EC250200F0
:1003A000EC250200EC250200EC250200EC25020001
:1003B000EC250200C5AA0200FCAB020048010020A7
:1003C00048010020480100207434002074340020CB
:1003D0007434002074340020745400204102000062
:0403E000E503000031
:1003E40010B588B0AC4B03AC0FCB07C423800234E8
:1003F4001B0C237019F064FE07900EF0B9F90EF08F
:10040400A2F919F057FEA54800F038FBA449079853
:1004140011F076FB0EF0B0F9A2480EF04FFAA248A4
:100424000EF04CFA9F480EF049FAA0480EF046FA36
:100434009F480EF043FA9B480EF040FA00F0CAFAC7
:100444009C4B1B780121184611F0A8FD0346002B94
:1004540000F0C380974B1B780121184611F09EFDD4
:100464000346032B12D18F480EF028FA92480EF05F
:1004740025FA924B00934FF4AF73914A91499248F5
:100484000EF01CFA87480EF019FAA6E0894B1B7887
:100494000121184611F082FD0346042B12D1814834
:1004A4000EF00CFA84480EF009FA884B00934FF4CE
:1004B400AF73834A834984480EF000FA79480EF0FA
:1004C400FDF98AE07B4B1B780121184611F066FD8B
:1004D4000346052B12D173480EF0F0F976480EF05E
:1004E400EDF97B4B00934FF4AF73754A7549764829
:1004F4000EF0E4F96B480EF0E1F96EE06D4B1B78F9
:100504000121184611F04AFD0346062B12D1654815
:100514000EF0D4F968480EF0D1F96E4B00934FF405
:10052400AF73674A674968480EF0C8F95D480EF032
:10053400C5F952E05F4B1B780121184611F02EFDDE
:1005440003460A2B12D157480EF0B8F95A480EF058
:10055400B5F9614B00934FF4AF73594A59495A485E
:100564000EF0ACF94F480EF0A9F936E0514B1B7868
:100574000121184611F012FD0346102B12D14948EF
:100584000EF09CF94C480EF099F9544B00934FF43B
:10059400AF734B4A4B494C480EF090F941480EF06A
:1005A4008DF91AE0434B1B780121184611F0F6FC33
:1005B4000346112B11D13B480EF080F93E480EF052
:1005C4007DF9474B00934FF4AF733D4A3D493E4894
:1005D4000EF074F933480EF071F9364B1B78002194
:1005E400184611F0B6FC0346002B00F0EA80314BAC
:1005F4001B780021184611F0ACFC0346032B12D1E2
:1006040028480EF05BF92C480EF058F92B4B009358
:100614004FF4B0732A4A2B492B480EF04FF9214866
:100624000EF04CF9CDE0234B1B780021184611F055
:1006340090FC0346042B12D11A480EF03FF91E48D1
:100644000EF03CF9214B00934FF4B0731C4A1D4942
:100654001D480EF033F913480EF030F9B1E0154B94
:100664001B780021184611F074FC0346052B39D180
:100674000C480EF023F910480EF020F9144B0093A7
:100684004FF4B0730E4A0F490F480EF017F905489E
:100694000EF014F995E000BF602802004C01002020
:1006A400950A0000EC250200F0250200F425020062
:1006B400FC250200480100204C260200002702000D
:1006C4007028020054260200E426020018270200C3
:1006D4003027020044270200582702007027020036
:1006E40088270200A44B1B780021184611F031FC26
:1006F4000346062B12D1A1480EF0E0F8A0480EF0F4
:10070400DDF8A04B00934FF4B0739F4A9F49A04873
:100714000EF0D4F899480EF0D1F852E0964B1B78BD
:100724000021184611F015FC03460A2B12D19348F8
:100734000EF0C4F892480EF0C1F8964B00934FF4B3
:10074400B073914A914992480EF0B8F88B480EF074
:10075400B5F836E0884B1B780021184611F0F9FBF8
:100764000346102B12D185480EF0A8F884480EF0E9
:10077400A5F8894B00934FF4B073834A83498448A6
:100784000EF09CF87D480EF099F81AE07A4B1B782D
:100794000021184611F0DDFB0346112B11D17748D7
:1007A4000EF08CF876480EF089F87C4B00934FF4E9
:1007B400B073754A754976480EF080F86F480EF0AC
:1007C4007DF811F085FE0346002B00F0A78011F0A0
:1007D4007FFE0346032B12D168480EF06FF8684879
:1007E4000EF06CF86E4B00934FF4B173664A674990
:1007F40067480EF063F861480EF060F88EE011F07F
:1008040067FE0346042B12D15C480EF057F85C488F
:100814000EF054F8634B00934FF4B1735A4A5B499A
:100824005B480EF04BF855480EF048F876E011F0AE
:100834004FFE0346052B12D150480EF03FF85048A6
:100844000EF03CF8584B00934FF4B1734E4A4F49A5
:100854004F480EF033F849480EF030F85EE011F0DE
:1008640037FE0346062B12D144480EF027F84448BD
:100874000EF024F8434B00934FF4B173424A4349BA
:1008840043480EF01BF83D480EF018F846E011F00E
:100894001FFE03460A2B12D138480EF00FF83848D1
:1008A4000EF00CF83B4B00934FF4B173364A3749C2
:1008B40037480EF003F831480EF000F82EE011F03E
:1008C40007FE0346102B12D12C480DF0F7FF2C48DD
:1008D4000DF0F4FF304B00934FF4B1732A4A2B49C7
:1008E4002B480DF0EBFF25480DF0E8FF16E011F062
:1008F400EFFD0346112B11D120480DF0DFFF2048F6
:100904000DF0DCFF254B00934FF4B1731E4A1F49D1
:100914001F480DF0D3FF19480DF0D0FF23481FF0F6
:10092400E1FF2349234820F054FE0121224820F00E
:1009340050FE22481FF0D6FF21481FF0D3FF0921A3
:10094400204820F046FE05211F4820F042FE0021E9
:100954001E4820F03EFE002300220321144811F01B
:100964002FFE0346002B02D0194820F032FE42F23B
:1009740010700DF041FFFAE748010020EC25020059
:100984004C2602004427020070280200542602006C
:10099400E42602005827020070270200882702007C
:1009A400002702001827020030270200A8270200AF
:1009B400A027BE33B4270200CC270200E0270200A0
:1009C400FC27020014280200282802004028020004
:1009D4005428020000B587B000238DF8173004AB0B
:1009E400184611F08EFA03468DF817309DF817302B
:1009F400002B18D11D480DF061FF1D480DF05EFF5E
:100A04009DF8103019469DF811301A469DF81230A1
:100A140018469DF813300093034616480DF04EFF18
:100A240012480DF04BFF03AB184611F04DFA034684
:100A34008DF817309DF81730002B13D10B480DF0AB
:100A44003DFF0B480DF03AFF9DF80C3019469DF818
:100A54000D301A469DF80E3007480DF02FFF03485D
:100A64000DF02CFF00BF07B05DF804FB78280200EE
:100A74007C280200D42A0200FC2A020082B00190E1
:100A8400024A019B136000BF02B07047A00100201E
:100A940030B5C7B000238DF817310DF10B0203AB4D
:100AA4001146184611F08EF803468DF817319DF85B
:100AB4001731002B40F0CD83AB4B1B68002B00F0AB
:100AC400BB8346ABA3F586735B78182B3ADC002B0B
:100AD400C0F2A083182B00F29D8301A252F823F0E8
:100AE400510B0000990B0000C70B0000230C000001
:100AF400AD0C0000AD0D0000FD0D00004D0E00001A
:100B04009D0E000019120000F50B000019120000E0
:100B140019120000CB0E00001B0F0000490F00004B
:100B2400770F0000F50F000095100000D5100000AD
:100B3400251100001912000075110000AD1100000C
:100B4400E3110000FF2B00F0918363E387480DF06D
:100B5400B5FE87480DF0B2FE86480DF0AFFE83481F
:100B64000DF0ACFE46ABA3F586739B88194682480C
:100B74000DF0A4FE7C4B1B681B68002B00F07883EF
:100B8400794B1B681B6846AAA2F5867292881046A8
:100B940098476DE375480DF091FE75480DF08EFE93
:100BA40076480DF08BFE71480DF088FE6E4B1B6885
:100BB4005B68002B00F05E836B4B1B685B68984797
:100BC40058E36A480DF07AFE69480DF077FE6C48E8
:100BD4000DF074FE65480DF071FE634B1B689B6855
:100BE400002B00F04983604B1B689B68984743E3E4
:100BF4005E480DF063FE5E480DF060FE61480DF046
:100C04005DFE5A480DF05AFE574B1B68DB68002BFB
:100C140000F03483544B1B68DB6898472EE3534839
:100C24000DF04CFE52480DF049FE57480DF046FEBB
:100C34004E480DF043FE46ABA3F586731B79002B9B
:100C440015D14A480DF03AFE50480DF037FE46AB38
:100C5400A3F586731B79184600F0FCFB034619467E
:100C64004B480DF02BFE41480DF028FE0CE046AB3E
:100C7400A3F586731B79184600F0ECFB034619466E
:100C840043480DF01BFE00BF374B1B681B69002B4C
:100C940000F0F682344B1B681B6946AAA2F58672E3
:100CA400127910469847EBE230480DF007FE3048C1
:100CB4000DF004FE37480DF001FE2C480DF0FEFD4A
:100CC40046ABA3F586739B79184600F027FB0346D1
:100CD400194631480DF0F2FD46ABA3F58673DB7976
:100CE40019462E480DF0EAFD46ABA3F5867393F939
:100CF4000430403B19462A480DF0E0FD46ABA3F50D
:100D0400867393F90530002B00DA03339B105BB232
:100D1400194624480DF0D2FD134B1B685B69002B68
:100D240000F0B082104B1B685C6946ABA3F5867378
:100D340093F9040046ABA3F5867393F9051046AB0B
:100D4400A3F586739A7946ABA3F58673DD7946AB32
:100D5400A3F58673B3F8FA30DBB2019303AB08331F
:100D640000932B46A0478DE2A0010020282B02000F
:100D74002C2B0200342B0200682B02007C2B020077
:100D8400A42B0200CC2B0200F82B0200202C020022
:100D9400282C02003C2C0200682C0200782C020053
:100DA400882C0200982C0200A5480DF087FDA54868
:100DB4000DF084FDA4480DF081FDA1480DF07EFDE9
:100DC40046ABA3F586731B79184600F07FFB0346F8
:100DD40019469E480DF072FD9D4B1B689B69002BC4
:100DE40000F052829A4B1B689B6946AAA2F5867250
:100DF40012791046984747E291480DF05FFD9148FB
:100E04000DF05CFD93480DF059FD8D480DF056FD35
:100E140046ABA3F586731B79184600F071FB0346B5
:100E240019468D480DF04AFD894B1B68DB69002B80
:100E340000F02C82864B1B68DB6946AAA2F58672F9
:100E440012791046984721E27D480DF037FD7D4820
:100E54000DF034FD81480DF031FD79480DF02EFD83
:100E640046ABA3F586731B79184600F015FB0346C1
:100E740019467B480DF022FD754B1B681B6A002B3D
:100E840000F00682724B1B681B6A46AAA2F58672A2
:100E9400127910469847FBE169480DF00FFD694847
:100EA4000DF00CFD6F480DF009FD65480DF006FDD1
:100EB400674B1B685B6A002B00F0EC81644B1B687A
:100EC4005B6A9847E6E15E480DF0F8FC5D480DF07A
:100ED400F5FC65480DF0F2FC59480DF0EFFC46AB0B
:100EE400A3F586731B79184600F078FA0346194671
:100EF4005E480DF0E3FC564B1B689B6A002B00F028
:100F0400CB81534B1B689B6A46AAA2F58672127961
:100F140010469847C0E14A480DF0D0FC49480DF00E
:100F2400CDFC53480DF0CAFC45480DF0C7FC484BB6
:100F34001B68DB6A002B00F0B181454B1B68DB6A40
:100F44009847ABE13E480DF0B9FC3E480DF0B6FCC5
:100F540048480DF0B3FC3A480DF0B0FC3C4B1B681C
:100F64001B6B002B00F09C81394B1B681B6B984753
:100F740096E133480DF0A2FC32480DF09FFC3E4848
:100F84000DF09CFC2E480DF099FC46ABA3F586733E
:100F94001B79184600F044FA0346194637480DF009
:100FA4008DFC46ABA3F586735B79194634480DF086
:100FB40085FC46ABA3F586739B79194631480DF041
:100FC4007DFC234B1B685B6B002B00F06B81204B7B
:100FD4001B685B6B46AAA2F58672107946AAA2F535
:100FE4008672517946AAA2F586729279984759E198
:100FF40013480DF063FC13480DF060FC22480DF01B
:101004005DFC0F480DF05AFC46ABA3F586731B79C3
:10101400184600F097FA034619461C480DF04EFC9A
:101024000B4B1B689B6B002B00F03E81084B1B682D
:101034009B6B46AAA2F5867212791046984733E153
:10104400282B02002C2B0200A42C0200D02C02001E
:10105400A0010020E42C0200102D0200182D020033
:10106400402D02004C2D0200782D0200A02D02001C
:10107400AC2D0200D82D0200082E0200342E0200EE
:10108400482E0200582E0200702E0200A02E0200EC
:1010940093480DF013FC93480DF010FC92480DF0AA
:1010A4000DFC8F480DF00AFC904B1B68DB6B002B8A
:1010B40000F0FC808D4B1B68DB6B46AAA2F58672A0
:1010C400906846AAA2F58672127911469847EDE017
:1010D40083480DF0F3FB83480DF0F0FB84480DF0DA
:1010E400EDFB7F480DF0EAFB46ABA3F586731B7955
:1010F400184600F05BFA034619467E480DF0DEFB05
:101104007A4B1B681B6C002B00F0D280774B1B685A
:101114001B6C46AAA2F58672127910469847C7E05E
:101124006F480DF0CBFB6F480DF0C8FB72480DF013
:10113400C5FB6B480DF0C2FB46ABA3F586731B7968
:10114400184600F019FA034619466C480DF0B6FB30
:10115400664B1B685B6C002B00F0AC80634B1B6818
:101164005B6C46AAA2F58672127910469847A1E0F4
:101174005B480DF0A3FB5B480DF0A0FB60480DF04D
:101184009DFB57480DF09AFB584B1B689B6C002B3A
:1011940000F09280554B1B689B6C46AAA2F58672A0
:1011A40012791046984787E04D480DF087FB4D486B
:1011B4000DF084FB53480DF081FB49480DF07EFB94
:1011C4004A4B1B68DB6C002B78D0484B1B68DB6CEC
:1011D40046AAA2F586721279104698476EE04048F6
:1011E4000DF06CFB3F480DF069FB47480DF066FBC2
:1011F4003B480DF063FB3D4B1B681B6D002B5FD020
:101204003A4B1B681B6D46AAA2F5867212791046EA
:10121400984755E032480DF051FB32480DF04EFB33
:1012240046ABA3F586735B78194638480DF046FB48
:101234002B480DF043FB44E029480DF03FFB3448B4
:101244000DF03CFB33480DF039FB25480DF036FB1F
:1012540037E023480DF032FB2D480DF02FFB2E48CC
:101264000DF02CFB1E480DF029FB2AE000BF28E0FE
:1012740000BF26E000BF24E000BF22E000BF20E062
:1012840000BF1EE000BF1CE000BF1AE000BF18E072
:1012940000BF16E000BF14E000BF12E000BF10E082
:1012A40000BF0EE000BF0CE000BF0AE000BF08E092
:1012B40000BF06E000BF04E000BF02E000BF00E0A2
:1012C40000BF9DF81731002B06D146ABA3F58673FA
:1012D4005B78FF2B7FF4E1AB00BF47B030BD00BFAC
:1012E400282B02002C2B0200BC2E0200A00100209F
:1012F400F02E0200282F0200482F0200782F02004F
:101304008C2F0200BC2F0200EC2F02001C300200C4
:10131400202C0200483002007830020082B00346DC
:101324008DF807309DF80730013B0C2B36D801A20D
:1013340052F823F06D1300007113000075130000C0
:10134400791300007D130000811300008513000051
:10135400891300008D130000911300009513000001
:10136400991300009D1300000E4B18E00E4B16E07D
:101374000E4B14E00E4B12E00E4B10E00E4B0EE041
:101384000E4B0CE00E4B0AE00E4B08E00E4B06E051
:101394000E4B04E00E4B02E00E4B00E00E4B1846E1
:1013A40002B0704790350200B8350200E035020003
:1013B4000836020038360200683602009836020009
:1013C400C8360200F036020020370200503702000F
:1013D40080370200B03702008431020082B0034635
:1013E4008DF807309DF80730022B0AD0022B0ADC57
:1013F400002B02D0012B02D005E0054B04E0054B85
:1014040002E0054B00E0054B184602B0704700BFF0
:1014140014380200343802005038020084310200CB
:1014240082B003468DF807309DF80730002B02D0B8
:10143400012B02D003E0044B02E0044B00E0044B18
:10144400184602B0704700BF7C380200A83802007A
:101454008431020082B003468DF807309DF80730CE
:10146400022B0AD0022B0ADC002B02D0012B02D063
:1014740005E0054B04E0054B02E0054B00E0054B9D
:10148400184602B0704700BFD0380200F43802009A
:10149400143902008431020082B003468DF807300B
:1014A4009DF80730002B02D0012B02D003E0044B3F
:1014B40002E0044B00E0044B184602B0704700BF42
:1014C40038390200543902008431020082B00346E4
:1014D4008DF807309DF80730002B02D0012B02D085
:1014E40003E0044B02E0044B00E0044B184602B056
:1014F400704700BF70390200943902008431020041
:1015040082B003468DF807309DF807300A2B0AD0C5
:101514000A2B0ADC082B02D0092B02D005E0054B6C
:1015240004E0054B02E0054B00E0054B184602B011
:10153400704700BFBC390200E8390200143A0200C7
:101544008431020082B003468DF807309DF80730DD
:10155400002B02D0012B02D003E0044B02E0044B29
:1015640000E0044B184602B0704700BF443A020042
:10157400703A02008431020082B003468DF80730CD
:101584009DF80730002B02D0012B02D003E0044B5E
:1015940002E0044B00E0044B184602B0704700BF61
:1015A400A43A0200C83A02008431020082B0034621
:1015B4008DF807309DF80730002B02D0012B02D0A4
:1015C40003E0044B02E0044B00E0044B184602B075
:1015D400704700BFE83A0200183B02008431020061
:1015E40082B003460A468DF8073013468DF806305C
:1015F4009DF806300C2B59D801A252F823F000BFF5
:10160400AD160000AD160000AD160000AD160000CA
:10161400AD16000085160000651600004D1600008A
:101624004D1600003D1600004D160000391600004E
:101634004D16000000233AE09DF807300C2B01D131
:10164400012334E0002332E09DF807300C2B03D053
:101654009DF807300B2B01D1012328E0002326E05D
:101664009DF807300C2B07D09DF807300B2B03D0C7
:101674009DF807300A2B01D1012318E0002316E05E
:101684009DF807300C2B0BD09DF807300B2B07D09F
:101694009DF807300A2B03D09DF80730092B01D1A0
:1016A400012304E0002302E0012300E000231846A4
:1016B40002B0704700B583B00190019B1B6A019A88
:1016C4001268104698470346184603B05DF804FBB9
:1016D40000B583B001900091019B5B6A019A126886
:1016E4000099104698470346184603B05DF804FB7A
:1016F40000B585B003900B4601928DF80B30039B27
:101704009B6C039A10689DF90B10019A9847034645
:10171400184605B05DF804FB00B585B0039002914E
:101724001346ADF80630039BDB6C039A1068BDF8D2
:101734000620029998470346184605B05DF804FB55
:1017440000B583B001900B46ADF80230019B1B6ECF
:10175400019A1268BDF802101046984703461846CD
:1017640003B05DF804FB00B585B0039002910192CB
:10177400039BD3F8A0300199029898470346184672
:1017840005B05DF804FB00B585B0039002910192A9
:10179400039BD3F8A430019902989847034618464E
:1017A40005B05DF804FB00B583B001900091019B86
:1017B400D3F8C430019A126800991046984703463A
:1017C400184603B05DF804FB10B586B0059004918B
:1017D4000392ADF80A30059BD3F8C840059B1868FE
:1017E400BDF80A20BDF824300193089B00931346EA
:1017F400039A0499A0470346184606B010BD10B5D5
:1018040084B00390029100931346ADF80630039B15
:10181400D3F8D440039B1868BDF80620009B0299B6
:10182400A0470346184604B010BD00B583B001902C
:101834000091019BD3F8D830019A126800991046A0
:1018440098470346184603B05DF804FB00B583B01F
:1018540001900091019BD3F8F030009901989847CA
:101864000346184603B05DF804FB00B583B001904D
:101874000091019BD3F8F4300099019898470346EE
:10188400184603B05DF804FB82B001900091019BFF
:10189400009AC3F84C2100BF02B0704782B0019097
:1018A4000091019B009AC3F8502100BF02B0704719
:1018B40000B583B001900B468DF8033013468DF8C4
:1018C4000230019B002283F87420019B002283F8DC
:1018D400BB24019B0022C3F8A424019B002283F8AB
:1018E400CE24019B002283F81025019B9DF8032040
:1018F40083F87020019B012283F85120019B002270
:1019040083F81023019B9B6B9DF802201A70019BA6
:10191400002283F81A25019B0022C3F8E424019BCA
:101924000022A3F81C23019B0022A3F84C20019B56
:10193400002283F89224019B002283F89324019BC4
:101944004FF08052C3F89424019B0022C3F89824DA
:10195400019B002283F8BA24019B0022C3F82425AA
:10196400019B0022C3F82825019B0022C3F83425DB
:10197400019B0022C3F82C25019B0022C3F83025CB
:10198400019B0022C3F83825019B0022C3F83C25A3
:10199400019B03F59D6320220021184620F0E0FD01
:1019A400019B03F21E330622FF21184620F0D8FDC6
:1019B400019800F004F800BF03B05DF804FB00B523
:1019C40083B00190019B4FF0FF329A66019B002285
:1019D4005A66019B0022C3F8A824019B0022A3F8A5
:1019E400A024019B0022A3F89E24019B0022C3F89B
:1019F4008824019B002283F8EA21019B002283F8BA
:101A04007921019B002283F8DA21019B002283F8CB
:101A14008724019B002283F82624019B002283F85B
:101A24001125019B00221A66019B0022C3F814238E
:101A340012F04BFC0246019BC3F81823019B0022C1
:101A440083F81925019B002283F84425019B002279
:101A540083F84525019B002283F84625019B00223B
:101A640083F82025019B002283F82125019B002275
:101A740083F87620019B002283F8772000BF03B00F
:101A84005DF804FB00B583B00190019B022283F84A
:101A9400BB2412F01AFC0246019BD3F8BC34D3F8E1
:101AA400C4391A44019BC3F81425019B012283F80D
:101AB4001825019800F0CCFA00BF03B05DF804FBD0
:101AC40000B583B00190019B002283F8BB2412F07F
:101AD400FCFB0246019BD3F8BC34D3F8C4391A4446
:101AE400019BC3F81425019807F0CEF800BF03B09A
:101AF4005DF804FB82B00190019B062283F8BB24AD
:101B040000BF02B07047000010B584B00190019B83
:101B14000393039B93F884398DF80B30039BD3F81C
:101B2400C0099DF80B2013465B0113449B00183336
:101B3400039A134408331946FFF797FE0346002B14
:101B440003D0EE212D4812F0C5FC039BD3F8C03915
:101B540002211846FFF7F4FD0346002B03D0EF21C2
:101B6400264812F0B7FC039BD3F8C03918469DF8F9
:101B74000B30039A03F5DF739B00134459689DF8F7
:101B84000B20039B02F5657233F812301A46FFF7F7
:101B9400C3FD0346002B03D0F021184812F09AFC31
:101BA40000BF9DF80B2003991346DB009B1A9B0092
:101BB4000B4403F2D4531C6812F087FB0346E31A68
:101BC400002BEEDC12F0D4FC039BD3F8C03918468A
:101BD400FFF770FD0346002B03D0F921074812F0EC
:101BE40079FC039B03F2F47412F06FFB034619466D
:101BF4002046FFF749FE00BF04B010BD004B0200B1
:101C040010B584B00190019B0393039B93F884392E
:101C14008DF80B30039BD3F8C0099DF80B201346B5
:101C24005B0113449B001833039A13440833194689
:101C3400FFF70CFE0346002B04D04FF481712F48AC
:101C440012F048FC039BD3F8C03902211846FFF771
:101C540077FD0346002B04D040F20311274812F00D
:101C640039FC039BD3F8C03918469DF80B30039A0E
:101C740003F5DF739B00134459689DF80B20039B05
:101C840002F5657233F812301A46FFF745FD034634
:101C9400002B04D04FF48271184812F01BFC00BFD3
:101CA4009DF80B2003991346DB009B1A9B000B4401
:101CB40003F2D4531C6812F008FB0346E31A002B0A
:101CC400EEDC12F055FC039BD3F8C0391846FFF73D
:101CD400F1FC0346002B04D04FF48671074812F040
:101CE400F9FB039B03F2F47412F0EFFA034619466E
:101CF4002046FFF7C9FD00BF04B010BD304B020001
:101D040070B586B00390039B0593059B93F88439C3
:101D14008DF81330059BD3F8C03918469DF813206D
:101D240013465B0113449B001833059A134408338C
:101D34001946FFF738FD0346002B04D04FF48B718E
:101D4400544812F0C7FB059BD3F8C0391C469DF8D4
:101D54001320059913465B0113449B000B44343351
:101D640093F900009DF81320059913465B01134471
:101D74009B000B442C331B681A4601462046FFF790
:101D8400B7FC0346002B04D04FF48C71414812F089
:101D9400A1FB059BD3F8C03940F202411846FFF776
:101DA400CFFC0346002B04D040F21B11394812F03B
:101DB40091FB059BD3F8C0391E469DF813201346AA
:101DC4005B0113449B001833059A134403F1080084
:101DD4009DF8132013465B0113449B008033059A3E
:101DE40013449C1D9DF81320059913465B0113446D
:101DF4009B000B4436331D889DF81330059A03F578
:101E0400DF739B0013445B689DF81310059A01F57A
:101E1400657132F81120019200932B462246014647
:101E24003046FFF7D1FC0346002B04D040F21D11CD
:101E3400184812F04FFB00BF9DF813200599134674
:101E4400DB009B1A9B000B4403F2D4531C6812F072
:101E54003CFA0346E31A002BEEDC12F089FB059BE7
:101E6400D3F8C0391846FFF725FC0346002B04D0ED
:101E740040F22911074812F02DFB059B03F2F4747C
:101E840012F023FA034619462046FFF7FDFC00BF73
:101E940006B070BD604B020010B584B00190019B88
:101EA4000393039B93F884398DF80B30039BD3F889
:101EB400C0099DF80B2013465B0113449B00483373
:101EC400039A134404331946FFF7CFFC0346002B4F
:101ED40004D04FF49971264812F0FCFA039BD3F80E
:101EE400C039CC211846FFF72BFC0346002B04D045
:101EF40040F233111E4812F0EDFA00BF9DF80B209A
:101F040003991346DB009B1A9B000B4403F2D45342
:101F14001C6812F0DAF90346E31A002BEEDC12F027
:101F240027FB039BD3F8C03918469DF80B2003996F
:101F340013465B0113449B000B4478331B6819461A
:101F4400FFF7C6FB0346002B04D04FF49E710848EC
:101F540012F0C0FA039B03F2F47412F0B6F90346CC
:101F640019462046FFF79AFC00BF04B010BD00BF1D
:101F7400904B020010B584B00190019B0393039B26
:101F840093F884398DF80B30039BD3F8C0099DF87E
:101F94000B2013465B0113449B004833039A1344FC
:101FA40004331946FFF752FC0346002B04D040F2D9
:101FB4004511264812F08EFA039BD3F8C0398C21C0
:101FC4001846FFF7BDFB0346002B04D04FF4A37162
:101FD4001E4812F07FFA00BF9DF80B2003991346A8
:101FE400DB009B1A9B000B4403F2D4531C6812F0D1
:101FF4006CF90346E31A002BEEDC12F0B9FA039BEA
:10200400D3F8C03918469DF80B20039913465B0199
:1020140013449B000B4478331B681946FFF758FBA5
:102024000346002B04D04FF4A771084812F052FA6B
:10203400039B03F2F47412F048F903461946204650
:10204400FFF72CFC00BF04B010BD00BFC04B020062
:1020540030B5C9B048ABA3F58A73186025AB8422A8
:102064000021184620F07CFA1EAB00221A605A6048
:102074009A60DA601A615A619A6100231D9348AB31
:10208400A3F58A731B6893F84E2048ABA3F58A73B3
:102094001146186806F09AFF03468DF81F319DF823
:1020A4001F31002B40F09A8048ABA3F58A731B685C
:1020B40093F84E100DF171030DF1720248A8A0F5CA
:1020C4008A70006807F000F817AB14220021184644
:1020D40020F046FA48ABA3F58A731B68D3F8B034F2
:1020E4001A9348ABA3F58A73186807F0C1FA03463C
:1020F4008DF86D3048ABA3F58A731B6893F95010C3
:1021040048ABA3F58A731B68D3F8B02448ABA3F596
:102114008A731B6893F84E3048A8A0F58A7000684B
:1021240007F0BAF903468DF86C309DF872308DF8DB
:102134005C309DF871308DF85D3048ABA3F58A733F
:10214400186807F07CFA03468DF85E309DF85C3021
:102154009DF85D2011461846FFF742FA03468DF8B4
:102164005F309DF85C2048ABA3F58A73114618686C
:1021740006F022FF0346ADF8603000238DF862308C
:1021840048ABA3F58A731B6893F879308DF86330F4
:1021940001238DF8643000238DF8653001238DF818
:1021A400943026AC17AD0FCD0FC42B68236048AB19
:1021B400A3F58A731B68D3F8BC34D3F8C039184626
:1021C40017AA17AB04331946FFF7CDFA03461D933C
:1021D40002238DF87930B74B1F9388E19DF81F31A6
:1021E400012B40F0C68048ABA3F58A731B6893F8B3
:1021F4004E100DF15B0248ABA3F58A73186806F024
:10220400E9FF05AB2C220021184620F0A9F948ABC0
:10221400A3F58673012283F82A2048ABA3F58673BD
:1022240040F2FF121A8548ABA3F5867341F60F52AC
:102234009A8448ABA3F5867341F22102DA8448AB51
:10224400A3F58A731B68D3F8B02448ABA3F586734F
:102254001A6248ABA3F58A73186807F012FA0246AB
:1022640048ABA3F58673DA6148ABA3F58A731B68A0
:1022740093F9501048ABA3F58A731B68D3F8B024C4
:1022840048ABA3F58A731B6893F84E3048A8A0F5B1
:102294008A70006807F000F903461A4648ABA3F5B4
:1022A400867383F82B2048ABA3F5867301225A75F5
:1022B40048ABA3F58A731B6893F8792048ABA3F560
:1022C40086739A7548ABA3F5867328221A8248ABA5
:1022D400A3F586731822DA7448ABA3F5867301223A
:1022E4001A7648ABA3F586730422DA7548ABA3F5D6
:1022F400867346F2A8125A609DF85B301A464FF472
:102304007A7302FB03F31A4648ABA3F586731A608B
:1023140048ABA3F58673684A9A6048ABA3F5867305
:1023240004221A7300238DF8943048ABA3F5867306
:1023340026AC1D460FCD0FC40FCD0FC495E8070082
:1023440084E8070048ABA3F58A731B68D3F8BC3450
:10235400D3F8C039184605AA05AB10331946FFF760
:1023640012FA03461D9303238DF87930534B1F93C0
:10237400BDE09DF81F31022B40F0A48048ABA3F5CB
:102384008A731B6893F84E100DF159030DF15A022C
:1023940048A8A0F58A70006806F084FF10AB1822E4
:1023A4000021184620F0DCF848ABA3F58A731B68BB
:1023B40093F9501048ABA3F58A731B68D3F8B02483
:1023C40048ABA3F58A731B6893F84E3048A8A0F570
:1023D4008A70006807F060F803468DF8543048AB03
:1023E400A3F58A731B68D3F8BC34D3F8C0391A46F2
:1023F40010AB19461046FFF718FA4690469900208C
:1024040012F080F803469BB2ADF8563000238DF8E5
:1024140044309DF85A308DF8453048ABA3F58A73A3
:10242400186806F0C1FF03468DF8463001238DF885
:1024340048309DF859308DF847309DF85A30184689
:1024440006F07EFF03468DF8493048ABA3F58A7346
:10245400186807F01EF90346109348ABA3F58A7376
:102464001B68D3F8B034139300238DF8503026AC96
:1024740010AD0FCD0FC495E8030084E8030048AB0A
:10248400A3F58A731B68D3F8BC34D3F8C039184653
:1024940048ABA3F58A731B6893F879301A461DABD1
:1024A40010A9FFF7ACF904238DF87930044B1F937E
:1024B4001DE000BF0D1B0000A0860100051C0000EC
:1024C400051D00004A4811F0D7FF012011F0ECFF70
:1024D4004749484812F056F8474812F053F847481D
:1024E40012F050F8444812F04DF811F0D8FE48AB01
:1024F400A3F58A731B68D3F8BC040DF1730248ABCF
:10250400A3F58A73196809F07DFF0346002B14D0E4
:10251400374811F0B1FF012011F0C6FF34493548A6
:1025240012F030F8344812F02DF8354812F02AF839
:10253400314812F027F811F0B2FE9DF873308DF88F
:1025440078301D9B249348ABA3F58A731B68D3F89A
:10255400144512F011F80346E31A219348ABA3F58E
:102564008A731B6893F81835012B0AD148ABA3F57D
:102574008A731B68002283F8182500238DF88230A3
:1025840002E001238DF8823048ABA3F58A731B68FF
:10259400022283F8BB2448ABA3F58A731B68D3F8E3
:1025A400BC0448ABA3F58A731B6803F17A0248ABF9
:1025B400A3F58A731B6893F879301C461EA925ABD2
:1025C4000093234609F05EFF0346002B0CD048AB72
:1025D400A3F58A731B68062283F8BB249DF8733025
:1025E4001946084811F0CEFF00BF49B030BD00BF06
:1025F400F04B0200303F0200483F0200B03F0200AF
:10260400D83F0200E43F020010B588B00190019B5E
:10261400D3F8BC340DF10F020199184609F0F2FE0B
:10262400019BD3F8BC049DF80F10019B03F2CF4328
:1026340004AA0AF0D7F8019B93F8CF340A2B00F2CE
:10264400DB8001A252F823F013270000FD270000CD
:10265400FD27000079260000832600001B270000C8
:10266400FD270000FD270000FD270000FD270000D6
:10267400F5270000049A019BC3F8E424C7E0049AF8
:10268400019BC3F8D024019BD3F8BC249DF80F30E0
:1026940019460B465B010B449B0013447E33B3F98C
:1026A4000020019BA3F8D424019BD3F8BC249DF8FB
:1026B4000F3019460B465B010B449B0013447C33DB
:1026C400B3F90020019BA3F8D624019BD3F8BC34B2
:1026D4009DF80F2002F5657233F81230DAB2019BCF
:1026E40083F80F22019800F025F90346002B00F02F
:1026F4008B806A4A6A496B4811F044FF019B0522AA
:1027040083F8CF24019B002283F80F227CE06648E3
:1027140011F038FF7BE0049B0693019B93F8BA34D5
:10272400002B04D1019B93F85930079304E0019BDB
:1027340093F8593001330793079B4FF47A7202FBE5
:1027440003F30793019BD3F8E424079B1A44019BEA
:10275400D3F8C8341344019AD2F808251344069ACE
:10276400D31A019A92F8B8241146019A01F51D7101
:1027740032F911209C1A11F0FFFE0346E41A11F0FD
:10278400FEFE0346E31A0593059B002B16DA019B14
:1027940093F8B8341A46019B02F51D7233F91230CE
:1027A4009BB2013B99B2019B93F8B8341A4609B223
:1027B400019B02F51D7223F8121027E0059B002BE4
:1027C40024DD019B93F8B8341A46019B02F51D726F
:1027D40033F912309BB2013399B2019B93F8B834A8
:1027E4001A4609B2019B02F51D7223F812100DE07E
:1027F4002E4811F0C7FE0AE0019B93F8CF34194626
:102804002B4811F0BFFE02E000BF00E000BF019BB7
:1028140093F8BB34022B02D0042B09D00DE0019BAA
:10282400032283F8BB24019B002283F8102329E0B0
:10283400019B052283F8BB2424E0019B93F8CF3449
:102844000A2B1ED0019B93F8CF341946194811F076
:1028540099FE134811F096FE174811F00DFE012061
:1028640011F022FE1449154811F08CFE0C4811F0A9
:1028740089FE134811F086FE094811F083FE11F019
:102884000EFD00BF019B93F8CF340A2B03D1019BAB
:10289400062283F8BB2400BF08B010BDB840020074
:1028A400483F0200F0400200F840020010410200DC
:1028B4003C41020058410200104C0200303F02002B
:1028C400D83F020000B587B0019000230593019B17
:1028D400D3F81433002B27D011F0F7FC0390019B9D
:1028E400D3F81833039A9A4206D3019BD3F81833CA
:1028F400039AD31A049308E0019BD3F81833DB43FB
:102904000493049A039B13440493019BD3F8143354
:10291400049A9A4202D90023059305E0019BD3F857
:102924001423049BD31A0593059B184607B05DF83E
:1029340004FB000000B585B00190019B93F81032B0
:102944005B098DF80F309DF80F30002B0FD09DF8E8
:102954000F30022B0BD09DF80F30042B07D09DF8BD
:102964000F30062B03D09DF80F30072B08D19DF8AC
:102974000F3019461A4811F005FE4FF0FF332BE0D3
:10298400019B93F8CE34022B25D1019B93F811328D
:102994001A46019B93F812321B021A44019B93F8C6
:1029A40013321B041A44019B93F814321B0613447C
:1029B4000293019BDB6E029A9A420CD0019BDB6E60
:1029C400029A1946074811F0DDFD074811F0DAFDB7
:1029D4004FF0FF3300E00023184605B05DF804FB18
:1029E400C8440200E8440200483F020000B585B034
:1029F40001900B468DF8033013468DF80230019B8D
:102A040093F85C301A469DF802301946019806F096
:102A1400E1FE034605338DF80F309DF803209DF841
:102A24000F309A420AD99DF803309DF80F201946B9
:102A3400054811F0A7FD4FF0FF3300E000231846CE
:102A440005B05DF804FB00BF7049020082B0034684
:102A54000A468DF8073013468DF806309DF8063087
:102A64000C2B59D801A252F823F000BF192B0000F7
:102A7400192B0000192B0000192B0000192B000042
:102A8400F12A0000D12A0000B92A0000B92A000066
:102A9400A92A0000B92A0000A52A0000B92A0000CA
:102AA40000233AE09DF807300C2B01D1012334E0D8
:102AB400002332E09DF807300C2B03D09DF807303B
:102AC4000B2B01D1012328E0002326E09DF80730D9
:102AD4000C2B07D09DF807300B2B03D09DF8073043
:102AE4000A2B01D1012318E0002316E09DF80730DA
:102AF4000C2B0BD09DF807300B2B07D09DF807301B
:102B04000A2B03D09DF80730092B01D1012304E0DF
:102B1400002302E0012300E00023184602B07047BE
:102B240000B587B003900291019200934FF4CA72EA
:102B3400002103981FF014FD039B029A5A60039B23
:102B4400009ADA60039B9DF820201A72039B0022EE
:102B54001A70039B00225A70039B099A5A61039BC3
:102B64000A9A9A61039B0B9ADA61039B0C9A1A6284
:102B7400039B012283F83C21039B062283F848210E
:102B8400039B072283F84921039B03F59E72039B51
:102B9400C3F86821019B002B1AD000238DF817304D
:102BA40012E09DF817309DF8172001322C2101FB0B
:102BB40003F301991944039B5A3243F822109DF8F8
:102BC400173001338DF817309DF81730032BE8D9EF
:102BD400039BDA68039B1B7A1946104609F0D0FB65
:102BE400039BD868039B197A039B034A09F05CFB97
:102BF40000BF07B05DF804FB5530000000B583B09A
:102C040001900B468DF803309DF8033083F00103E7
:102C1400DBB2002B02D0019800F008F8019B9DF86C
:102C240003201A7000BF03B05DF804FB00B583B045
:102C34000190019B1B7883F00103DBB2002B12D1BE
:102C4400019B00225A70019800F03CFB019BDA685A
:102C5400019B1B7A1946104609F058FD019B00227E
:102C640083F82D2000E000BF03B05DF804FB00B53D
:102C740083B00190019B5B7883F00103DBB2002BEE
:102C840002D0019800F004F800BF03B05DF804FB23
:102C940030B5C1B00390039B1B7883F00103DBB212
:102CA400002B03D0AF4811F06DFCC0E1039B5B69BE
:102CB400002B14D1AC4811F0DFFB012011F0F4FB20
:102CC400A949AA4811F05EFCA94811F05BFCA94887
:102CD40011F058FCA64811F055FC11F0E0FA039BE2
:102CE4005A68039BD3F86831D26E5A60039B5A68C2
:102CF400039BD3F8683192F853201A75039B5A68E2
:102D0400039BD3F86831526D1A61039B052283F843
:102D1400382100238DF8FF3013E09DF8FF20039B3A
:102D24005A3253F822301B78002B05D0039B9DF8B0
:102D3400FF2083F8382108E09DF8FF3001338DF837
:102D4400FF309DF8FF30042BE7D9039B93F838310B
:102D5400052B14D1844811F08FFB012011F0A4FB42
:102D64008149824811F00EFC814811F00BFC824825
:102D740011F008FC7E4811F005FC11F090FA1EAB2E
:102D84008422002118461FF0EBFB7C4B3593039BF8
:102D94005868039B93F838311A46039B5A3253F808
:102DA40022301B7D194606F011F903468DF8FE30DA
:102DB4009DF8FE30002B67D1039B5868039B93F862
:102DC40038311A46039B5A3253F82230197D0DF1DB
:102DD4005A030DF15B0206F077F911AB14220021BE
:102DE40018461FF0BDFB039B5B68184606F040FCC9
:102DF40003468DF8553000238DF85630039B93F825
:102E040038311A46039B5A3253F822301B69149303
:102E140000238DF84A30FF238DF84B3000238DF8C2
:102E24004C3001238DF84D30039B5B689DF84420A2
:102E34001146184606F0C0F80346ADF84830039B27
:102E44005B68184606F0FBFB03468DF846309DF898
:102E54005B308DF844309DF85A308DF845309DF83C
:102E640044309DF8452011461846FFF7EFFD034610
:102E74008DF8473001238DF878302AAC11AD0FCD91
:102E84000FC42B68236094E09DF8FE30012B7BD1A6
:102E94003B4811F077FB039B5868039B93F8383148
:102EA4001A46039B5A3253F822301B7D0DF143021C
:102EB400194606F08FF905AB2C22002118461FF0A5
:102EC4004FFB039B5B68184606F0DBFB03460C9341
:102ED40001238DF83E3040F2FF13ADF83C3041F64B
:102EE4000F53ADF8383041F22103ADF83A30039B6B
:102EF40093F838311A46039B5A3253F822301B692F
:102F04000D9301238DF82930FF238DF82A302823CF
:102F1400ADF8243018238DF8273001238DF82C3098
:102F240004238DF82B3046F2A8130693154B079310
:102F340004238DF820309DF843301A464FF47A73F9
:102F440002FB03F3059300238DF878302AAC05AD1A
:102F54000FCD0FC40FCD0FC495E8070084E8070018
:102F640027E000BF2C4C0200D04E0200444C02006B
:102F74005C4C0200604C02008C4C0200C0D4010086
:102F8400B04C0200A08601002A4811F075FA012015
:102F940011F08AFA2749284811F0F4FA274811F069
:102FA400F1FA274811F0EEFA244811F0EBFA11F087
:102FB40076F917AB00221A605A609A60DA601A61D7
:102FC4005A619A61039B1B7A8DF85C3001238DF85A
:102FD400663011F07AF903461A9314231D939DF871
:102FE4007830012B05D100238DF85D30154B1893F3
:102FF40004E001238DF85D30134B1893039BD868CC
:10300400039B03F1390217A91EAB0093FF2309F0B8
:1030140039FA0346002B03D00C4811F0B3FA02E04E
:10302400039B01225A70039B002283F82D2041B098
:1030340030BD00BFD04E0200444C02005C4C020084
:10304400C04C02009D1E0000791F0000E44C0200E9
:1030540000B585B00190019BDB68019A127A134494
:1030640093F878378DF80F309DF80F30042B05D185
:10307400019B5B69019A926910469847019B5B78B2
:10308400002B02D00198FFF703FE00BF05B05DF8E6
:1030940004FB000010B586B0019000230493019B4B
:1030A400DB680DF10B020199184609F0ABF9019B9D
:1030B400D8689DF80B10019B103303AA09F092FB0A
:1030C400019B1B7C0A2B00F2E08001A252F823F042
:1030D400773200008F3200008F3200009D320000F2
:1030E400013100007F3200008F3200008F32000077
:1030F4008F3200008F32000087320000039A019B58
:103104005A62019BDA689DF80B3019460B465B0145
:103114000B449B0013447E33B3F90020019B1A85B2
:10312400019BDA689DF80B3019460B465B010B4492
:103134009B0013447C33B3F90020019B5A85019B07
:10314400DB689DF80B2002F5657233F81230DAB2B1
:10315400019B83F83820019B93F838301846019B73
:10316400DA689DF80B3019460B465B010B449B0053
:1031740013447E33B3F900301C46019BDA689DF892
:103184000B3019460B465B010B449B0013447C3304
:10319400B3F9003022460146414811F0F3F9019B8E
:1031A40093F838301A463F493F4811F0EBF90023B1
:1031B400059316E0059B03F00F03002B05D1059B37
:1031C400002B02D0394811F0DDF9019A059B134414
:1031D40039331B781946364811F0D4F9059B01336D
:1031E4000593019B93F838301A46059B9342E1D32B
:1031F4002E4811F0C7F9019800F0B8F80490049B28
:10320400002B31D1019800F05FF903461A46019B67
:1032140083F87C21019B93F87C31012B24D1019B01
:1032240093F838311A46019B5A3253F822301A7DEA
:10323400019B83F83420019B93F838311A46019B93
:103244005A3253F822301A69019B1A63019B93F88E
:1032540038310333DAB2019B83F82D20019BDB69FB
:10326400019A126A10469847019B002283F87C2138
:1032740013E0104811F086F90FE00F4811F082F9BD
:103284000BE00E4811F07EF907E0019B1B7C194608
:103294000B4811F077F900E000BF00BF06B010BD85
:1032A400004D0200344D0200404D0200544D020016
:1032B400584D0200604D0200784D0200904D02000E
:1032C400BC4D020000B585B0019000238DF80F308D
:1032D40000238DF80E302EE09DF80E305A1C019B11
:1032E4005A3253F822301B78002B1FD09DF80E3031
:1032F4005A1C019B5A3253F8223000221A709DF84E
:103304000E305A1C019B5A3253F8223000221A61A3
:103314009DF80E305A1C019B5A3253F82230FF227A
:103324001A759DF80F3001338DF80F309DF80E306B
:1033340001338DF80E309DF80E30032BCCD99DF857
:103344000F30002B0CD0019BD3F8683101221A7086
:10335400019BDA68019B1B7A1946104609F0D6F9DD
:103364000023184605B05DF804FB000000B587B0E3
:10337400019000230593019B052283F83821019BCA
:1033840093F839305B098DF811309DF81130002B1A
:1033940013D09DF81130012B0FD09DF81130022B62
:1033A4000BD09DF81130042B07D09DF81130062B5B
:1033B40003D09DF81130072B08D1059B013B0593E1
:1033C4009DF8113019463D4811F0DCF8019B5B680B
:1033D40093F8CE34022B64D1059B002B61D1019B61
:1033E40093F83A301A46019B93F83B301B021A4477
:1033F400019B93F83C301B041A44019B93F83D3025
:103404001B061344039300238DF813301DE09DF82D
:103414001320019B5A3253F822305B68039A9A4274
:103424000ED19DF81320019B5A3253F822301B7899
:10343400002B05D0019B9DF8132083F8382108E068
:103444009DF8133001338DF813309DF81330042B9D
:10345400DDD9019B93F83831042B22D9059B013B1C
:103464000593019B052283F8382100238DF812303F
:1034740013E09DF81220019B5A3253F822305B6806
:10348400039A19460E4811F07DF80E4811F07AF8A7
:103494009DF8123001338DF812309DF81230042B50
:1034A400E7D9059B002B03D0019B002283F8382029
:1034B400059B184607B05DF804FB00BFE44D02000D
:1034C400044E02005C4C0200F0B58FB0079000235C
:1034D4000D9300238DF83330079B93F8383018464A
:1034E40000F068FF03461A460D9B13440D93079B97
:1034F4005868079B93F83810079B93F838311A469D
:10350400079B5A3253F822301B7D1A46FFF76EFA96
:1035140003461A460D9B13440D930D9B002B01D0BB
:10352400002378E1079B03F13900079B03F27D1325
:103534000DF12A020DF12B0100F05EFF03461A463D
:103544000D9B13440D930D9B002B01D0002362E1CE
:10355400079B93F83831002B0AD0079B93F87D31F1
:10356400012B03D09DF82B30042B01D1002352E111
:10357400079B5A68079BD3F86831926E9A600023C0
:10358400ADF82830079B93F838311A46079B5A3216
:1035940053F822309B680993079B03F13905079B75
:1035A40093F83860079B03F29117079B93F838311F
:1035B4001A46079B5A3253F822305B68079A2C321A
:1035C400079901F5C971079800F28110079C04F569
:1035D400C1740DF1280C049403900291019200939C
:1035E40063463A463146284600F052FF02460D9B98
:1035F40013440D930D9B002B08D1BDF8283009AA64
:103604001146184600F0C2FF03460D930D9B002B94
:103614003DD1079B93F83830043BDAB2079B83F81B
:103624003820079B93F838303833079A1344591CD1
:103634000BAB0422184600F017FD079B03F1390079
:10364400079B93F838301D46079B93F838311A4688
:10365400079B5A3253F82230197B079B93F8383171
:103664001A46079B5A3253F822305C68099B0B9A1E
:10367400029201930123009323460A46294610F03F
:10368400FBFA0346002B02D04FF0FF330D930D9B42
:10369400002B40F0A280079B93F838311A46079B11
:1036A4005A3253F82230099A9A60079BD3F868215A
:1036B400079B5B6892689A66079B93F89231002B8C
:1036C40079D1079B93F83820079B93F89131D31A4B
:1036D400DBB2093BDAB2079B83F83820079B93F8E7
:1036E4002C30002B06D14D4810F04CFF4C4810F004
:1036F40049FF72E0079B93F8913109333833079AF5
:103704001344581C079B93F838301D46079B93F8C5
:1037140038311A46079B5A3253F82230597B079B9B
:1037240093F838311A46079B5A3253F822305C68B2
:10373400079B93F838311A46079B5A3253F82230C4
:103744009B68079A3932029201930123009323461E
:103754000A46294610F072FA0346002B14D0314869
:1037640010F08AFE012010F09FFE2E492E4810F022
:1037740009FF2B4810F006FF2C4810F003FF2848DF
:1037840010F000FF10F08BFD079B93F89131002B94
:1037940009D0274810F0F6FE214810F0F3FE4FF050
:1037A400FF330D9319E001238DF83330079B012279
:1037B40083F8932111E0079B93F89131002B09D0F2
:1037C4001B4810F0DFFE164810F0DCFE4FF0FF330C
:1037D4000D9302E001238DF833300D9B002B18D19B
:1037E4009DF82B20079B83F87F219DF82A20079BB7
:1037F40083F88021079B5B68184600F01BFA034698
:10380400002B06DC079B5B68079A92F87D2183F8FE
:1038140076209DF8333018460FB0F0BD344E0200C8
:103824005C4C0200E84E0200444C02006C4E020064
:10383400A04E020030B58BB0079006910592049318
:1038440040F25452002107981EF08AFE079B002282
:1038540083F81225079B002283F81123079B00227B
:1038640083F8D924079B032283F8C024079B069A74
:103874009A63079B059A1A64079B049ADA63079B69
:10388400002283F81825079B119A5A64079B129A01
:103894009A64079B0A22C3F81C25079B5E4AC3F857
:1038A40040259DF840209DF83C3019460798FDF7C7
:1038B400FFFF079800F08AF903468DF827309DF939
:1038C4002730002B08D0079800F088FB079800F0F9
:1038D4007DF903468DF827309DF92730002B0FD151
:1038E400079B9B6B1B78184604F03CFE0346002B99
:1038F40003D100238DF8273002E0FF238DF8273011
:103904009DF92730B3F1FF3F15D1444810F03AFE3A
:10391400434810F037FE079B4FF08052C3F89424BD
:10392400079B0022C3F89824079B9B6B01221A7003
:10393400079800F0EAF8079800F016FB079BB3F825
:103944004C3001339AB2079BA3F84C20079BB3F881
:103954001C331946334810F015FE079B93F81E33A9
:103964001846079B93F81F331C46079B93F8203394
:103974001D46079B93F821331A46079B93F822337D
:103984001946079B93F823330293019100922B4627
:1039940022460146244810F0F5FD079BB3F84C304D
:1039A4001946224810F0EEFD079B9B6B1B781A46C4
:1039B4001F4B53F8223019461E4810F0E3FD079BB5
:1039C4000E9AC3F8BC24079B4FF41662A3F89C24F8
:1039D400079BD3F8BC04079B93F8C014079B164AB3
:1039E40008F062FC079804F0EFFD079804F0B8FEB5
:1039F400079805F035FE03461A46079B83F88D2485
:103A0400079805F025FE03461A46079B83F88C2485
:103A140000BF0BB030BD00BF80994000745002005D
:103A2400AC500200B0500200C0500200FC50020032
:103A340014000020105102000D26000082B00190F5
:103A4400019B93F8CE34184602B0704700B583B09A
:103A54000190019B002283F8CE24019800F02BFAF8
:103A6400019805F07FF9019B0022C3F8A82400BF48
:103A740003B05DF804FB00B585B001900B468DF8EA
:103A84000330019B93F892348DF80F30019B9DF81D
:103A9400032083F892249DF80330002B08D1019869
:103AA40005F0B2F903461A46019B83F84F2007E05C
:103AB400019805F0F1FE03465AB2019B83F85020A9
:103AC4009DF803301946019804F0F0FE019804F0C3
:103AD400EDFF03468DF80E309DF90E30B3F1FF3F34
:103AE4000DD1019B9DF80F2083F892249DF80F308F
:103AF4001946019804F0DAFE019804F0D7FF9DF905
:103B04000E30184605B05DF804FB00B591B0019085
:103B1400019B1A6A019BD3F894349A420FD1019BFA
:103B240093F82420019B9B6B1B789A4207D1019B3D
:103B340093F82520019B93F81A359A422AD0019BC9
:103B4400D3F89424019B1A62019B9B6B1A78019B06
:103B540083F82420019B93F81A25019B83F82520E0
:103B6400019B3421184600F0D3FA0246019B5A63A4
:103B7400019B38221946012010F024FC02AB3822A4
:103B8400002118461EF0ECFC02AB38221946012035
:103B940010F0D2FB00BF11B05DF804FB82B00190BD
:103BA400019BD3F8BC34184602B0704782B0019030
:103BB400019BB3F84C30184602B0704782B00190B4
:103BC400019BB3F81C33184602B0704700B583B0AC
:103BD4000190019B38221946012010F0ADFB019B96
:103BE4003421184600F094FA0246019B5B6B9A421A
:103BF40012D1019B1A6A019BC3F89424019B9B6B0D
:103C0400019A92F824201A70019B93F82520019BB5
:103C140083F81A25002301E04FF0FF33184603B060
:103C24005DF804FB82B00190019BD3F8A4341846DC
:103C340002B0704700B599B0019000231793002398
:103C44008DF84F3010238DF8573003AB40220021FC
:103C540018461EF085FC002316930198FEF732FEE9
:103C64001490019805F01DFD0346002B13D09DF818
:103C7400573003AA0DF14F01019805F09BFC034650
:103C8400012B08D1019BDB6B9DF84F1003AA18464A
:103C940002F03AFA1690149B002B02D1169B17934C
:103CA40005E0169A149B9342B8BF13461793179BCB
:103CB400184619B05DF804FB00B583B001900B46BB
:103CC4008DF803309DF80330184604F04BFC03468E
:103CD400002B13D1019B9B6B9DF803201A70019854
:103CE400FFF713FF019804F06FFC019804F038FD0E
:103CF400019B0022C3F8A824002301E04FF0FF3306
:103D0400184603B05DF804FB82B00190019B93F860
:103D14001A35184602B0704784B001900C4B1B68EA
:103D24000293029B039300239DF80C2062F3070384
:103D34009DF80D2062F30F239DF80E2062F31743C4
:103D44009DF80F2062F31F63184604B0704700BF4C
:103D54004055020000B589B003900291019200938E
:103D6400039BD3F82C35029AD31A0793039BD3F8F9
:103D74002835079A13440693069B104AA2FB032393
:103D84009B090593059B4FF47A7202FB03F3069A91
:103D9400D31A0693039BD3F82435059A134404934A
:103DA400019B049A1A60009B069A1A60039800F01B
:103DB40007F80346184609B05DF804FBD34D6210BA
:103DC40000B585B0019010F074FA0390019BD3F80C
:103DD4003435002B0CD0019BD3F83435039AD21A16
:103DE400019BD3F84035D31A002B01DA012300E0FC
:103DF4000023184605B05DF804FB00B587B00190B8
:103E040010F057FA049000230393019BD3F8403534
:103E14000593019BD3F83435002B1AD0019BD3F8BA
:103E24003435049AD31A0393019BD3F84035039A8B
:103E34009A420ED8019BD3F84025039BD31A0593CD
:103E4400019BD3F84035059A9A4202D94FF4616335
:103E54000593059B184607B05DF804FB86B00390F4
:103E64000291019200238DF81730039B93F8443597
:103E7400032B0AD1039B93F82025029B1A70039B02
:103E840093F82125019B1A7008E0029B00221A7006
:103E9400019B00221A70FF238DF817309DF917300B
:103EA400184606B0704782B00190019B93F85335D1
:103EB400184602B0704700B583B00190019B002200
:103EC40083F81123019B002283F81025019B002213
:103ED40083F8D924019B012283F85220019BD3F853
:103EE400BC24019B93F8C0341946104608F00EFC1C
:103EF40000BF03B05DF804FB00B593B001900AABBA
:103F04002022002118461EF02BFB019BB3F81C3322
:103F1400ADF82830019BB3F84C300B93019B03F2AE
:103F24001E320CAB1068186092889A800AAB1C2170
:103F3400184600F0EDF8034611930AAB2022194607
:103F4400022010F03FFA02AB2022002118461EF096
:103F540007FB02AB20221946022010F0EDF900BF46
:103F640013B05DF804FB000000B58BB0019002AB08
:103F74002022002118461EF0F3FA02AB2022194633
:103F8400022010F0D9F902AB1C21184600F0C0F849
:103F94000246099B9A4213D1BDF80820019BA3F85D
:103FA4001C23039B9AB2019BA3F84C20019B03F2B0
:103FB4001E331A4604AB186810609B88938005E092
:103FC400044810F0DFFA044810F0DCFA00BF0BB02C
:103FD4005DF804FB70550200AC50020000B58FB0D0
:103FE40001901D4810F0CEFA02AB30221946012090
:103FF40010F0A2F902AB2C21184600F089F8024611
:104004000D9B9A421ED1154810F0BCFABDF8283019
:104014000A339AB2019BA3F81C230B9A019BC3F8A1
:104024009424BDF82A20019BA3F84C20019B9B6B90
:104034009DF830201A700198FFF75EFF0198FFF792
:1040440064FD05E0064810F09DFA064810F09AFA5F
:1040540000BF0FB05DF804FBA4550200C855020070
:10406400E8550200AC50020084B00390029113465C
:10407400ADF8063007E0029A531C0293039B591CC7
:10408400039112781A70BDF806305A1EADF8062056
:10409400002BF0D100BF00BF04B0704786B003907E
:1040A40002911346ADF80630BDF80630013B029A82
:1040B4001344059307E0059A531E0593039B591C6B
:1040C400039112781A70BDF806305A1EADF8062016
:1040D400002BF0D100BF00BF06B0704782B0019042
:1040E4000B468DF803301346ADF8003005E0019B14
:1040F4005A1C01929DF803201A70BDF800305A1E14
:10410400ADF80020002BF2D100BF00BF02B0704711
:1041140086B0019000916FF0050305931CE0019BAC
:104124005A1C01921B781A46059B534005930023A1
:1041340004930EE0059B03F001035B420393059B8C
:104144005A0803990A4B0B4053400593049B0133CF
:104154000493049B072BEDDD009B5A1E0092002B59
:10416400DDDC059BC3F10203184606B0704700BFAF
:104174002083B8ED82B001900B468DF803309DF892
:104184000330DB08DBB21A46019B13441B781A4642
:104194009DF8033003F0070342FA03F3DBB203F0A4
:1041A4000103DBB2184602B0704782B001900B469F
:1041B4008DF803309DF80330DB08D8B20246019B2A
:1041C40013441B785AB29DF8033003F0070301210E
:1041D40001FA03F35BB213435AB20146019B0B4449
:1041E400D2B21A7000BF02B0704782B001900B4681
:1041F4008DF803309DF80330DB08D8B20246019BEA
:1042040013441B785AB29DF8033003F007030121CD
:1042140001FA03F35BB2DB435BB213405AB20146CB
:10422400019B0B44D2B21A7000BF02B0704700B5B4
:1042340083B001900B468DF8033013468DF802309D
:104244009DF8023003F00103002B06D09DF80330E3
:1042540019460198FFF7A9FF05E09DF803301946B8
:104264000198FFF7C2FF00BF03B05DF804FB84B000
:1042740001900B468DF8033000238DF80F300DE0CC
:104284009DF80F30019A13441B78002B01D00023B2
:104294000BE09DF80F3001338DF80F309DF80F209F
:1042A4009DF803309A42EBD30123184604B07047BB
:1042B40082B001900B468DF803309DF803301B0942
:1042C400DBB25B00019A13441B881A469DF8033045
:1042D40003F00F0342FA03F3DBB203F00103DBB292
:1042E400184602B0704782B001900B468DF8033037
:1042F4009DF803301B09D8B203465B00019A1344AE
:104304001B881AB29DF8033003F00F03012101FA50
:1043140003F31BB2134319B203465B00019A13441F
:104324008AB21A8000BF02B0704782B001900B4677
:104334008DF803309DF803301B09D8B203465B00A7
:10434400019A13441B881AB29DF8033003F00F033B
:10435400012101FA03F31BB2DB431BB2134019B270
:1043640003465B00019A13448AB21A8000BF02B06C
:10437400704700B583B001900B468DF803301346A7
:104384008DF802309DF8023003F00103002B06D0B3
:104394009DF8033019460198FFF7A5FF05E09DF845
:1043A400033019460198FFF7C0FF00BF03B05DF862
:1043B40004FB000000B585B003468DF807300023E8
:1043C4008DF80F309DF807300B2B0BD8FF238DF899
:1043D4000F309DF807301946054810F0D3F805480A
:1043E40010F0D0F89DF90F30184605B05DF804FBC5
:1043F400005602002456020000B587B003900291D3
:104404000192009300238DF81730039B1B785B09FE
:10441400DAB2029B1A70039B1B7803F00303DAB22F
:10442400019B1A70029B1B78002B13D0029B1B78F4
:10443400022B0FD0029B1B78042B0BD0029B1B7802
:10444400062B07D0029B1B78072B03D0019B1B78FC
:10445400002B07D0FF238DF817300A4A0A490B486E
:1044640010F090F8029B1B78052B0CBF012300234E
:10447400DBB21A46009B1A709DF91730184607B034
:104484005DF804FB28560200245602003856020048
:1044940000B587B00390019200930B468DF80B3062
:1044A4000023059300230493039B01331B781A46CE
:1044B400039B02331B781B021A44039B03331B78B0
:1044C4001B041A44039B04331B781B0613440493F4
:1044D400049A089B9A4201D1002301E04FF0FF3374
:1044E4000593039B5A790B9B1A70039B06331B7825
:1044F4001A46039B07331B781B029BB213449AB2E0
:10450400009B1A800B9B1B7803F00F03DAB2019B0C
:104514001A70039B03F10801019B1B781A460C983F
:10452400FFF7A2FD9DF80B20019B1B780C339A42E8
:104534000CDD019B1B7808331A46039B13441A783D
:10454400099B1A700A9B00221A7007E00A9B012239
:104554001A700A4A0A490B4810F014F8059BB3F183
:10456400FF3F06D10499084810F00CF8044810F0F5
:1045740009F8059B184607B05DF804FB4056020095
:1045840024560200385602005056020000B585B089
:1045940003460091ADF80630009B1B68ADF80E3061
:1045A400009B1B681B0C1B040293BDF80620BDF87E
:1045B4000E309A4204D8009B1B68B3F1FF3F10D120
:1045C400009B1B68B3F1FF3F04D1BDF80620009B9C
:1045D4001A6023E0BDF80620029B1A44009B1A606F
:1045E4001CE0BDF80620BDF80E309A4208D2BDF892
:1045F4000620029B134403F58032009B1A600DE0F1
:10460400BDF80610009B1B681A4607480FF0BAFF56
:1046140006480FF0B7FF4FF0FF3300E000231846C1
:1046240005B05DF804FB00BF6C560200245602007E
:1046340082B003460A468DF8073013468DF80630DB
:104644009DF806300C2B59D801A252F823F000BF74
:10465400FD460000FD460000FD460000FD4600004A
:10466400FD460000D5460000B54600009D4600000A
:104674009D4600008D4600009D46000089460000CE
:104684009D46000000233AE09DF807300C2B01D131
:10469400012334E0002332E09DF807300C2B03D0D3
:1046A4009DF807300B2B01D1012328E0002326E0DD
:1046B4009DF807300C2B07D09DF807300B2B03D047
:1046C4009DF807300A2B01D1012318E0002316E0DE
:1046D4009DF807300C2B0BD09DF807300B2B07D01F
:1046E4009DF807300A2B03D09DF80730092B01D120
:1046F400012304E0002302E0012300E00023184624
:1047040002B0704700B583B001900091019B5B6AD1
:10471400019A12680099104698470346184603B058
:104724005DF804FB00B583B001900B46ADF8023090
:10473400019B1B6E019A1268BDF80210104698473F
:104744000346184603B05DF804FB00B585B003903A
:1047540002910192039BD3F8A030019902989847E3
:104764000346184605B05DF804FB00B583B001901C
:104774000091019BD3F8F4300099019898470346BF
:10478400184603B05DF804FB82B001900091019BD0
:10479400009AC3F8502100BF02B0704700B585B03D
:1047A40003900291019200938422002103981DF04A
:1047B400D7FE039B009A5A60039B9DF818201A7336
:1047C400039B029A1A60039B019A9A60039B00223E
:1047D4009A73039B0022DA73039B00225A73039B90
:1047E400002283F82A20039B079A1A65039B089AE0
:1047F4005A65039B0C4A5A64039B012283F84C209C
:10480400039B5A68039B1B7B1946104607F0B8FDAF
:10481400039B5868039B197B039B044A07F044FDE0
:1048240000BF05B05DF804FB00881300654D00006F
:1048340000B583B001900B468DF803309DF803302A
:1048440083F00103DBB2002B02D0019800F008F8DA
:10485400019B9DF803209A7300BF03B05DF804FB2D
:1048640000B583B00190019B9B7B83F00103DBB215
:10487400002B10D1019B0022DA73019B5A68019B23
:104884001B7B1946104607F041FF019B1B68184625
:1048940002F018F900E000BF03B05DF804FB00006B
:1048A40010B588B001900FF010FD034603F57A733C
:1048B40007930023059300230493019B5B680DF188
:1048C4000F020199184607F09DFD019B002283F811
:1048D4002A20019B1A7B9DF80F309A4204D040F2A3
:1048E40017115B480FF0F6FD019B9B7B83F00103DE
:1048F400DBB2002B04D057480FF044FE0123A4E0A0
:10490400019B986804AB05AA0799FFF723FA0346AD
:1049140083F00103DBB2002B04D04F480FF032FECA
:10492400032392E0059B03F07F034C4A02FB03F34D
:1049340003F5FA330693069A079B13440693049BE4
:10494400069AD31A0693069A13469B0013445B00F7
:104954001A46019B9A64019B9C68019B9B681846BC
:1049640004F0A2FF03461946204605F089F80346E1
:10497400B3F57A7F11D3019B9C68019B9B68184611
:1049840004F092FF03461946204605F079F80346E1
:10499400334AA2FB03239B0900E001234FF4FA628C
:1049A400B2FBF3F3FE2B28D8019B9C68019B9B6808
:1049B400184604F079FF03461946204605F060F8CE
:1049C4000346B3F57A7F11D3019B9C68019B9B68D6
:1049D400184604F069FF03461946204605F050F8CE
:1049E40003461F4AA2FB03239B0900E001234FF463
:1049F400FA62B2FBF3F39AB200E0FF22019B1A863B
:104A0400019B0122DA73019B986804AB05AA0699FD
:104A1400FFF7A0F9059A019BDA62059B049A1946EF
:104A240010480FF0AFFD019800F022F8019B9B6C39
:104A34000D4AA2FB0323DA08079BD11A019B9B6C46
:104A44001A460A480FF09EFD0023184608B010BD10
:104A5400405A0200B8560200D056020018FCFFFF6C
:104A6400D34D6210FC560200CDCCCCCC345702009E
:104A740030B5B3B003902BAB00221A605A609A6031
:104A8400DA601A615A619A6126AB14220021184631
:104A94001DF066FD039800F071FB03468DF8AD3000
:104AA400039B1B7B8DF8AC3000238DF8B630039844
:104AB40001F0D4F803462E93039B9C68039B9B68E8
:104AC400184604F0F1FE03461946204604F0D8FFC8
:104AD4000346B3F57A7F11D3039B9C68039B9B68C1
:104AE400184604F0E1FE03461946204604F0C8FFC8
:104AF4000346554AA2FB03239B0900E00123039AC2
:104B0400128E02FB03F33193504B2C9305AB84229A
:104B1400002118461DF024FD01238DF81430039B59
:104B24001B8EDBB28DF8AA30039B9B68184604F0F9
:104B34009FFD03468DF8A930039B9B68184604F03B
:104B44007EFD03468DF89A3001238DF89E30039B39
:104B54009C68039B9B68184604F0A6FE034619460E
:104B6400204600F08FFA0346184600F0B5FA0346D3
:104B74008DF89F3000238DF8A03000238DF8A130EC
:104B8400039B9C68039B9B68184604F08DFE0346B8
:104B94001946204600F076FA03468DF89830039BB8
:104BA4009C68039B9B68184604F07EFE03461946E6
:104BB400204600F07CFA03468DF89930039B9A68EE
:104BC400039BDB6A1946104604F078FE03462993DA
:104BD4009DF898309DF8992011461846FFF728FD56
:104BE40003468DF89B300A23ADF89C3011AC26ADFA
:104BF4000FCD0FC42B68236040F6B8331C93039B7E
:104C04005B68D3F8C039184626AA26AB0433194684
:104C1400FFF79BFD0246039B5A63039B5868039B63
:104C240003F110022BA905AB0093192307F02AFC0A
:104C34000346002B04D04FF4AE7105480FF04AFC34
:104C440000BF33B030BD00BFD34D6210594C0000DB
:104C5400585A020010B584B00190019B0393039B42
:104C640093F884398DF80B309DF80B200399134683
:104C7400DB009B1A9B000B4403F2C9531B780E2BD9
:104C840009D135480FF07EFC9DF80B301946039886
:104C940007F03CFD5DE00FF06BFC039BD3F8C0090B
:104CA4009DF80B2013465B0113449B004833039A81
:104CB400134404331946FFF758FD0346002B04D070
:104CC40040F26D1125480FF005FC039BD3F8C03961
:104CD400CC211846FFF726FD0346002B04D04FF4E1
:104CE400B7711E480FF0F6FB00BF9DF80B20039927
:104CF4001346DB009B1A9B000B4403F2D4531C683D
:104D04000FF0E3FA0346E31A002BEEDC039BD3F81F
:104D1400C03918469DF80B20039913465B011344D0
:104D24009B000B4478331B681946FFF7EBFC0346E2
:104D3400002B04D040F2751108480FF0CBFB039B05
:104D440003F2F4740FF0C1FA034619462046FFF744
:104D54001BFD04B010BD00BF505702006C5A020086
:104D640030B589B00390039BDB7B83F00103DBB296
:104D7400002B40F0D480039B5B68039A127B13449E
:104D840093F878378DF81B3000230793039B5B68F7
:104D9400039A127B02F5F97253F82240039B9D6833
:104DA400039B9B68184604F07FFD0346194628467A
:104DB40004F066FE03465B085A4AA2FB03235B0920
:104DC400E31A0593059B642202FB03F31946564834
:104DD4000FF0D8FB039B00225A739DF81B30042B61
:104DE40028D1039B03F11004039B9D68039B9B68DC
:104DF400184604F059FD03461946284600F042F9C6
:104E040003461946204600F095F807900599039843
:104E140000F054FF03461A46039B5A73039B5B68D6
:104E2400039A127B02F5657233F81230DAB2039BEF
:104E340083F829200599039800F054FA039800F0A8
:104E4400E9FA059B394AA2FB0323DB08079A1946B2
:104E5400039800F0AFF9039B9B6C344AA2FB032335
:104E6400DB081946039800F0B5FB039800F046FBF5
:104E7400039B93F82A30012B24D1039B9B6893F85E
:104E84004635032B1ED1039B9A6C039B5B6CD31A90
:104E94000493039B1868039B9B6C244AA2FB032383
:104EA400DA08039BDB6A019340F6B833009340F6BB
:104EB4004803049901F028FE039B1B68184601F07F
:104EC400D3FE07E01A480FF05DFB039B1B681846EE
:104ED40001F0F8FD039BDB6A03F18002039BDA62B5
:104EE400039B93F82A30002B03D10398FFF7D8FCD7
:104EF40016E00398FFF7BCFD039B9B681846FEF77A
:104F0400D2FF0346002B0BD0039B0D2283F879209C
:104F1400039B1B6D039A526D1046984700E000BF37
:104F240009B030BD1F85EB5188570200CDCCCCCCE5
:104F3400A857020000B585B001900B468DF80330E8
:104F44009DF80330033B019A13441B7819469DF8DE
:104F54000330023B019A13441B781B029BB20B449F
:104F6400ADF80E309DF803309BB2033B9BB219465B
:104F7400019800F033F80346ADF80C30BDF80C206E
:104F8400BDF80E309A4204D013480FF0FBFA002308
:104F94001EE09DF80330073B019A13441B78194621
:104FA4009DF80330063B019A13441B781B02CA1870
:104FB4009DF80330053B01990B441B781B041A44EC
:104FC4009DF80330043B01990B441B781B061344E2
:104FD400184605B05DF804FBC057020086B0019086
:104FE4000B46ADF802300023ADF81630BDF80230A0
:104FF400002B01D1002342E00023049338E0019AFE
:10500400049B13441B78ADF80C30BDF80C301B0224
:105014001AB2BDF9163053401BB2ADF81630002356
:105024008DF80F301DE0BDF8163023F4FF4323F054
:105034007F03ADF80A30BDF816305B00ADF81630CA
:10504400BDF80A30002B07D0BDF8163083F4815325
:1050540083F00103ADF816309DF80F3001338DF85D
:105064000F309DF80F30072BDDD9049B01330493D7
:10507400BDF80230049A9A42C1D3BDF816301846DE
:1050840006B0704700B585B001900B468DF803302B
:105094000DF10E030DF10F029DF80310019804F0B9
:1050A40013F89DF80F30184605B05DF804FB00B501
:1050B40085B001900B468DF803300DF10E030DF110
:1050C4000F029DF80310019803F0FEFF9DF80E30C7
:1050D400184605B05DF804FB00B585B003468DF8AD
:1050E400073000238DF80F309DF80730083B042B60
:1050F40020D801A252F823F01151000019510000E8
:1051040021510000295100003151000013238DF872
:105114000F3025E011238DF80F3021E013238DF893
:105124000F301DE015238DF80F3019E017238DF88B
:105134000F3015E00D480FF09FF901200FF0B4F97E
:105144000A490B480FF01EFA0A480FF01BFA0A48E6
:105154000FF018FA07480FF015FA0FF0A0F800BF87
:105164009DF80F30184605B05DF804FB985A02000C
:10517400E8570200005802000458020082B001906F
:10518400019BDA6D019B9B6D1344019A92F84C20AC
:10519400B3FBF2F101FB02F29B1A002B04D0019B3A
:1051A40093F82A30002B01D1002300E00E23184687
:1051B40002B0704700B585B0039002910192039B41
:1051C400002283F87A20039B002283F87820039B33
:1051D4005B7B002B59D0039B029A1A67039B5A6886
:1051E400039B1B7B19460B465B010B449B0013443A
:1051F4007E33B3F90020039BA3F87420039B5A6801
:10520400039B1B7B19460B465B010B449B00134419
:105214007C33B3F90020039BA3F87620039B9B689F
:10522400184604F041FB03461A46039B83F880208A
:10523400039B9A68039BDB6A1946104604F03EFB05
:105244000246039BDA67039B029A9A66039B1B68D8
:10525400029AC3F8A821039B9B6D5A1C039B9A6571
:10526400039B1B6E5A1C039B1A66039B00225A66FF
:10527400039B93F86C30032B28BF0323DBB2013369
:10528400DAB2039B83F86C2028E0039BDB6D5A1C85
:10529400039BDA65039B00221A66039B5B6E5A1C10
:1052A400039B5A66039B5A68039B1B7B19460B4658
:1052B400DB005B1A9B00134403F2C9531B780E2BCB
:1052C4000CD0039B93F86C30002B07D0039B93F80E
:1052D4006C30013BDAB2039B83F86C2000BF05B04D
:1052E4005DF804FB00B583B001900091019B5B7BEA
:1052F400002B6CD0019B93F82A30002B25D1019B05
:105304009B6C009AD11A019B5A6B13469B00134461
:105314005B00CB1A19463D480FF034F9019B3C4A17
:105324005A64019B0022DA63019B00229A63019B69
:1053340000221A64019B5A6B13469B0013445B00C2
:105344001A46009B9A1A019B9A64019B93F82A308F
:10535400012B3CD1019B9B6C009AD11A019B5A6B87
:1053640013469B0013445B00CB1A1A46019B9A63B5
:10537400019BDA6B1346DB009A1A019B9B6B134467
:10538400002B00DA0733DB101A46019BDA63019B1A
:105394001A6C019BDB6B1A44019B1A64019B1B6C06
:1053A400202B07DD019B5B6C5A1C019B5A64019BFB
:1053B40000221A64019B1B6C13F1200F07DA019B76
:1053C4005B6C5A1E019B5A64019B00221A64019B68
:1053D4009A6C019B596C019BDB6B002BB8BF5B4241
:1053E400642B08DD019BDB6B002B02DA6FF0630397
:1053F40003E0642301E0019BDB6B0B441A44019B33
:105404009A6400BF03B05DF804FB00BF2458020097
:105414000088130030B583B00190019B5B7B83F05F
:105424000103DBB2002B5FD0019B1B8E1D46019B49
:105434009C68019B9B68184604F036FA034619469B
:10544400204604F01DFB0346B3F57A7F11D3019B7C
:105454009C68019B9B68184604F026FA034619468B
:10546400204604F00DFB0346234AA2FB03239B09B9
:1054740000E001234FF4FA62B2FBF3F3FE2B27D8CA
:10548400019B9C68019B9B68184604F00DFA034637
:105494001946204604F0F4FA0346B3F57A7F11D393
:1054A400019B9C68019B9B68184604F0FDF9034628
:1054B4001946204604F0E4FA03460F4AA2FB0323EC
:1054C4009B0900E001234FF4FA62B2FBF3F300E01E
:1054D400FF23AB4203D9019B5B6E382B04D9019B9C
:1054E400002283F82A2004E0019B012283F82A2069
:1054F40000BF00BF03B030BDD34D621030B589B0DA
:105504000590059B5B7B002B2BD0059B93F82930E2
:105514001A46284928480FF035F80023079316E067
:10552400079B03F00F03002B05D1079B002B02D030
:1055340022480FF027F8059A079B134410331B7871
:1055440019461F480FF01EF8079B01330793059B6C
:1055540093F829301A46079B9342E1D317480FF07A
:1055640011F8059B996C059BDA6B059B5B6C1548E0
:105574000FF008F814480FF005F8059B996D059B8A
:10558400D86D059B1C6E059B5B6E059A92F86C208A
:105594001546059A128E02920195009323460246FF
:1055A4000A480EF0EFFF0A480EF0ECFF00BF09B006
:1055B40030BD00BF5C5802006C58020080580200E5
:1055C400845802008C580200D8580200085902007E
:1055D400B059020070B588B005900491059B93F80A
:1055E4002A30002B55D1059B9C68059B9B68184667
:1055F40004F05AF903461946204604F041FA0346DA
:10560400B3F57A7F11D3059B9C68059B9B6818466C
:1056140004F04AF903461946204604F031FA0346D9
:10562400B14AA2FB03239B0900E001234FF4FA6271
:10563400B2FBF3F3FE2B28D8059B9C68059B9B6863
:10564400184604F031F903461946204604F018FAC6
:105654000346B3F57A7F11D3059B9C68059B9B6831
:10566400184604F021F903461946204604F008FAC6
:1056740003469D4AA2FB03239B0900E001234FF448
:10568400FA62B2FBF3F39AB200E0FF22059B1A869A
:10569400DFE2059B9B6E049AD31A194693480EF0D9
:1056A40071FF059B9C68059B9B68184604F0FCF8F9
:1056B40003461846059B9B6E049AD21A059B03F178
:1056C40030010023029306AB019307AB00930B4612
:1056D4000146204604F050FA059B5B6E002B40F017
:1056E400B882059B93F86C30C3F10503059A128EBA
:1056F40002FB03F5059B9C68059B9B68184604F018
:10570400D3F803461946204604F0BAF90346B3F524
:105714007A7F11D3059B9C68059B9B68184604F00F
:10572400C3F803461946204604F0AAF903466E4A14
:10573400A2FB03239B0900E001234FF4FA62B2FBAE
:10574400F3F3062B27D9059B9C68059B9B68184699
:1057540004F0AAF803461946204604F091F90346DA
:10576400B3F57A7F11D3059B9C68059B9B6818460B
:1057740004F09AF803461946204604F081F90346DA
:10578400594AA2FB03239B0900E001234FF4FA6268
:10579400B2FBF3F400E00624059B9E68059B9B681E
:1057A400184604F081F803461946304604F068F9B7
:1057B4000346B3F57A7F11D3059B9E68059B9B68CE
:1057C400184604F071F803461946304604F058F9B7
:1057D4000346454AA2FB03239B0900E001234FF43F
:1057E400FA62B2FBF3F3FE2B27D8059B9E68059B58
:1057F4009B68184604F058F803461946304604F0EE
:105804003FF90346B3F57A7F11D3059B9E68059B48
:105814009B68184604F048F803461946304604F0DD
:105824002FF90346304AA2FB03239B0900E001231E
:105834004FF4FA62B2FBF3F300E0FF239C4257D229
:10584400059B9C68059B9B68184604F02DF803464D
:105854001946204604F014F90346B3F57A7F11D3B0
:10586400059B9C68059B9B68184604F01DF803463D
:105874001946204604F004F903461B4AA2FB0323FD
:105884009B0900E001234FF4FA62B2FBF3F3062B09
:1058940027D9059B9C68059B9B68184604F004F86F
:1058A40003461946204604F0EBF80346B3F57A7F25
:1058B40011D3059B9C68059B9B68184603F0F4FF75
:1058C40003461946204604F0DBF80346064AA2FBC9
:1058D40003239B0900E001234FF4FA62B2FBF3F3C4
:1058E40058E0062356E000BFD34D6210E059020091
:1058F400059B9C68059B9B68184603F0D5FF0346EF
:105904001946204604F0BCF80346B3F57A7F11D358
:10591400059B9C68059B9B68184603F0C5FF0346DE
:105924001946204604F0ACF80346AF4AA2FB032311
:105934009B0900E001234FF4FA62B2FBF3F3FE2B60
:1059440027D8059B9C68059B9B68184603F0ACFF11
:1059540003461946204604F093F80346B3F57A7FCC
:1059640011D3059B9C68059B9B68184603F09CFF1C
:1059740003461946204604F083F803469A4AA2FBDC
:1059840003239B0900E001234FF4FA62B2FBF3F313
:1059940000E0FF23AB420BD9059B93F86C30C3F1B5
:1059A40005039AB2059B1B8E12FB03F39BB24EE1D7
:1059B400059B9C68059B9B68184603F075FF03468E
:1059C4001946204604F05CF80346B3F57A7F11D3F8
:1059D400059B9C68059B9B68184603F065FF03467E
:1059E4001946204604F04CF803467F4AA2FB0323E1
:1059F4009B0900E001234FF4FA62B2FBF3F3062B98
:105A040027D9059B9C68059B9B68184603F04CFFAF
:105A140003461946204604F033F80346B3F57A7F6B
:105A240011D3059B9C68059B9B68184603F03CFFBB
:105A340003461946204604F023F803466A4AA2FBAB
:105A440003239B0900E001234FF4FA62B2FBF3F451
:105A540000E00624059B9D68059B9B68184603F09F
:105A640023FF03461946284604F00AF80346B3F513
:105A74007A7F11D3059B9D68059B9B68184603F0AC
:105A840013FF03461946284603F0FAFF0346564A15
:105A9400A2FB03239B0900E001234FF4FA62B2FB4B
:105AA400F3F3FE2B27D8059B9D68059B9B6818463E
:105AB40003F0FAFE03461946284603F0E1FF0346C5
:105AC400B3F57A7F11D3059B9D68059B9B681846A7
:105AD40003F0EAFE03461946284603F0D1FF0346C5
